{
  "_format": "hh-sol-artifact-1",
  "contractName": "RaffleVRF",
  "sourceName": "contracts/RaffleVRF.sol",
  "abi": [
    {
      "inputs": [],
      "stateMutability": "nonpayable",
      "type": "constructor"
    },
    {
      "anonymous": false,
      "inputs": [
        {
          "indexed": true,
          "internalType": "address",
          "name": "from",
          "type": "address"
        },
        {
          "indexed": true,
          "internalType": "address",
          "name": "to",
          "type": "address"
        }
      ],
      "name": "OwnershipTransferRequested",
      "type": "event"
    },
    {
      "anonymous": false,
      "inputs": [
        {
          "indexed": true,
          "internalType": "address",
          "name": "from",
          "type": "address"
        },
        {
          "indexed": true,
          "internalType": "address",
          "name": "to",
          "type": "address"
        }
      ],
      "name": "OwnershipTransferred",
      "type": "event"
    },
    {
      "anonymous": false,
      "inputs": [
        {
          "indexed": false,
          "internalType": "uint256",
          "name": "requestId",
          "type": "uint256"
        },
        {
          "indexed": false,
          "internalType": "uint256[]",
          "name": "randomWords",
          "type": "uint256[]"
        },
        {
          "indexed": false,
          "internalType": "uint256",
          "name": "payment",
          "type": "uint256"
        }
      ],
      "name": "RequestFulfilled",
      "type": "event"
    },
    {
      "anonymous": false,
      "inputs": [
        {
          "indexed": false,
          "internalType": "uint256",
          "name": "requestId",
          "type": "uint256"
        },
        {
          "indexed": false,
          "internalType": "uint32",
          "name": "numWords",
          "type": "uint32"
        }
      ],
      "name": "RequestSent",
      "type": "event"
    },
    {
      "inputs": [],
      "name": "acceptOwnership",
      "outputs": [],
      "stateMutability": "nonpayable",
      "type": "function"
    },
    {
      "inputs": [],
      "name": "calcuateRandomSeed",
      "outputs": [
        {
          "internalType": "uint256",
          "name": "",
          "type": "uint256"
        }
      ],
      "stateMutability": "nonpayable",
      "type": "function"
    },
    {
      "inputs": [],
      "name": "clearWinners",
      "outputs": [
        {
          "internalType": "address[]",
          "name": "",
          "type": "address[]"
        }
      ],
      "stateMutability": "nonpayable",
      "type": "function"
    },
    {
      "inputs": [
        {
          "internalType": "uint256",
          "name": "index",
          "type": "uint256"
        }
      ],
      "name": "getAccount",
      "outputs": [
        {
          "internalType": "address",
          "name": "",
          "type": "address"
        }
      ],
      "stateMutability": "view",
      "type": "function"
    },
    {
      "inputs": [],
      "name": "getParticipants",
      "outputs": [
        {
          "internalType": "address[]",
          "name": "",
          "type": "address[]"
        }
      ],
      "stateMutability": "view",
      "type": "function"
    },
    {
      "inputs": [],
      "name": "getRandomSeed",
      "outputs": [
        {
          "internalType": "uint256",
          "name": "",
          "type": "uint256"
        }
      ],
      "stateMutability": "view",
      "type": "function"
    },
    {
      "inputs": [
        {
          "internalType": "uint256",
          "name": "_requestId",
          "type": "uint256"
        }
      ],
      "name": "getRequestStatus",
      "outputs": [
        {
          "internalType": "uint256",
          "name": "paid",
          "type": "uint256"
        },
        {
          "internalType": "bool",
          "name": "fulfilled",
          "type": "bool"
        },
        {
          "internalType": "uint256[]",
          "name": "randomWords",
          "type": "uint256[]"
        }
      ],
      "stateMutability": "view",
      "type": "function"
    },
    {
      "inputs": [],
      "name": "getWinners",
      "outputs": [
        {
          "internalType": "address[]",
          "name": "",
          "type": "address[]"
        }
      ],
      "stateMutability": "view",
      "type": "function"
    },
    {
      "inputs": [],
      "name": "initTemp",
      "outputs": [],
      "stateMutability": "nonpayable",
      "type": "function"
    },
    {
      "inputs": [],
      "name": "lastRequestId",
      "outputs": [
        {
          "internalType": "uint256",
          "name": "",
          "type": "uint256"
        }
      ],
      "stateMutability": "view",
      "type": "function"
    },
    {
      "inputs": [
        {
          "internalType": "uint256",
          "name": "",
          "type": "uint256"
        }
      ],
      "name": "listOfParticipants",
      "outputs": [
        {
          "internalType": "address",
          "name": "",
          "type": "address"
        }
      ],
      "stateMutability": "view",
      "type": "function"
    },
    {
      "inputs": [],
      "name": "numOfwinners",
      "outputs": [
        {
          "internalType": "uint256",
          "name": "",
          "type": "uint256"
        }
      ],
      "stateMutability": "view",
      "type": "function"
    },
    {
      "inputs": [],
      "name": "owner",
      "outputs": [
        {
          "internalType": "address",
          "name": "",
          "type": "address"
        }
      ],
      "stateMutability": "view",
      "type": "function"
    },
    {
      "inputs": [
        {
          "internalType": "uint256",
          "name": "_requestId",
          "type": "uint256"
        },
        {
          "internalType": "uint256[]",
          "name": "_randomWords",
          "type": "uint256[]"
        }
      ],
      "name": "rawFulfillRandomWords",
      "outputs": [],
      "stateMutability": "nonpayable",
      "type": "function"
    },
    {
      "inputs": [
        {
          "internalType": "uint256",
          "name": "",
          "type": "uint256"
        }
      ],
      "name": "requestIds",
      "outputs": [
        {
          "internalType": "uint256",
          "name": "",
          "type": "uint256"
        }
      ],
      "stateMutability": "view",
      "type": "function"
    },
    {
      "inputs": [],
      "name": "requestRandomWords",
      "outputs": [
        {
          "internalType": "uint256",
          "name": "requestId",
          "type": "uint256"
        }
      ],
      "stateMutability": "nonpayable",
      "type": "function"
    },
    {
      "inputs": [
        {
          "internalType": "uint256",
          "name": "",
          "type": "uint256"
        }
      ],
      "name": "s_requests",
      "outputs": [
        {
          "internalType": "uint256",
          "name": "paid",
          "type": "uint256"
        },
        {
          "internalType": "bool",
          "name": "fulfilled",
          "type": "bool"
        }
      ],
      "stateMutability": "view",
      "type": "function"
    },
    {
      "inputs": [],
      "name": "seed",
      "outputs": [
        {
          "internalType": "uint256",
          "name": "",
          "type": "uint256"
        }
      ],
      "stateMutability": "view",
      "type": "function"
    },
    {
      "inputs": [],
      "name": "selectUsers",
      "outputs": [
        {
          "internalType": "address[]",
          "name": "",
          "type": "address[]"
        }
      ],
      "stateMutability": "nonpayable",
      "type": "function"
    },
    {
      "inputs": [],
      "name": "selectUsersV2",
      "outputs": [
        {
          "internalType": "address[]",
          "name": "",
          "type": "address[]"
        }
      ],
      "stateMutability": "nonpayable",
      "type": "function"
    },
    {
      "inputs": [
        {
          "internalType": "uint256",
          "name": "",
          "type": "uint256"
        }
      ],
      "name": "tempList",
      "outputs": [
        {
          "internalType": "address",
          "name": "",
          "type": "address"
        }
      ],
      "stateMutability": "view",
      "type": "function"
    },
    {
      "inputs": [
        {
          "internalType": "address",
          "name": "to",
          "type": "address"
        }
      ],
      "name": "transferOwnership",
      "outputs": [],
      "stateMutability": "nonpayable",
      "type": "function"
    },
    {
      "inputs": [
        {
          "internalType": "uint256",
          "name": "",
          "type": "uint256"
        }
      ],
      "name": "winners",
      "outputs": [
        {
          "internalType": "address",
          "name": "",
          "type": "address"
        }
      ],
      "stateMutability": "view",
      "type": "function"
    },
    {
      "inputs": [],
      "name": "withdrawLink",
      "outputs": [],
      "stateMutability": "nonpayable",
      "type": "function"
    }
  ],
  "bytecode": "0x60c0604052604051806101e00160405280735b38da6a701c568545dcfcb03fcb875f56beddc473ffffffffffffffffffffffffffffffffffffffff1673ffffffffffffffffffffffffffffffffffffffff16815260200173ab8483f64d9c6d1ecf9b849ae677dd3315835cb273ffffffffffffffffffffffffffffffffffffffff1673ffffffffffffffffffffffffffffffffffffffff168152602001734b20993bc481177ec7e8f571cecae8a9e22c02db73ffffffffffffffffffffffffffffffffffffffff1673ffffffffffffffffffffffffffffffffffffffff1681526020017378731d3ca6b7e34ac0f824c42a7cc18a495cabab73ffffffffffffffffffffffffffffffffffffffff1673ffffffffffffffffffffffffffffffffffffffff16815260200173617f2e2fd72fd9d5503197092ac168c91465e7f273ffffffffffffffffffffffffffffffffffffffff1673ffffffffffffffffffffffffffffffffffffffff1681526020017317f6ad8ef982297579c203069c1dbffe4348c37273ffffffffffffffffffffffffffffffffffffffff1673ffffffffffffffffffffffffffffffffffffffff168152602001735c6b0f7bf3e7ce046039bd8fabdfd3f9f502167873ffffffffffffffffffffffffffffffffffffffff1673ffffffffffffffffffffffffffffffffffffffff1681526020017303c6fced478cbbc9a4fab34ef9f40767739d1ff773ffffffffffffffffffffffffffffffffffffffff1673ffffffffffffffffffffffffffffffffffffffff168152602001731ae0ea34a72d944a8c7603ffb3ec30a6669e454c73ffffffffffffffffffffffffffffffffffffffff1673ffffffffffffffffffffffffffffffffffffffff168152602001730a098eda01ce92ff4a4ccb7a4fffb5a43ebc70dc73ffffffffffffffffffffffffffffffffffffffff1673ffffffffffffffffffffffffffffffffffffffff16815260200173ca35b7d915458ef540ade6068dfe2f44e8fa733c73ffffffffffffffffffffffffffffffffffffffff1673ffffffffffffffffffffffffffffffffffffffff1681526020017314723a09acff6d2a60dcdf7aa4aff308fddc160c73ffffffffffffffffffffffffffffffffffffffff1673ffffffffffffffffffffffffffffffffffffffff168152602001734b0897b0513fdc7c541b6d9d7e929c4e5364d2db73ffffffffffffffffffffffffffffffffffffffff1673ffffffffffffffffffffffffffffffffffffffff16815260200173583031d1113ad414f02576bd6afabfb30214022573ffffffffffffffffffffffffffffffffffffffff1673ffffffffffffffffffffffffffffffffffffffff16815260200173dd870fa1b7c4700f2bd7f44238821c26f739214873ffffffffffffffffffffffffffffffffffffffff1673ffffffffffffffffffffffffffffffffffffffff16815250600290600f6200043a92919062000858565b50600260039080546200044f929190620008e7565b506005600655620186a0600b60006101000a81548163ffffffff021916908363ffffffff1602179055506003600b60046101000a81548161ffff021916908361ffff1602179055506001600b60066101000a81548163ffffffff021916908363ffffffff16021790555073326c977e6efc84e512bb9c30f76e30c160ed06fb600b600a6101000a81548173ffffffffffffffffffffffffffffffffffffffff021916908373ffffffffffffffffffffffffffffffffffffffff16021790555073708701a1dff4f478de54383e49a627ed4852c816600c60006101000a81548173ffffffffffffffffffffffffffffffffffffffff021916908373ffffffffffffffffffffffffffffffffffffffff1602179055503480156200057057600080fd5b5033806000600b600a9054906101000a900473ffffffffffffffffffffffffffffffffffffffff16600c60009054906101000a900473ffffffffffffffffffffffffffffffffffffffff168173ffffffffffffffffffffffffffffffffffffffff1660808173ffffffffffffffffffffffffffffffffffffffff16815250508073ffffffffffffffffffffffffffffffffffffffff1660a08173ffffffffffffffffffffffffffffffffffffffff16815250505050600073ffffffffffffffffffffffffffffffffffffffff168273ffffffffffffffffffffffffffffffffffffffff16141562000698576040517f08c379a00000000000000000000000000000000000000000000000000000000081526004016200068f90620009be565b60405180910390fd5b816000806101000a81548173ffffffffffffffffffffffffffffffffffffffff021916908373ffffffffffffffffffffffffffffffffffffffff160217905550600073ffffffffffffffffffffffffffffffffffffffff168173ffffffffffffffffffffffffffffffffffffffff16146200071f576200071e816200072860201b60201c565b5b50505062000a52565b3373ffffffffffffffffffffffffffffffffffffffff168173ffffffffffffffffffffffffffffffffffffffff1614156200079a576040517f08c379a0000000000000000000000000000000000000000000000000000000008152600401620007919062000a30565b60405180910390fd5b80600160006101000a81548173ffffffffffffffffffffffffffffffffffffffff021916908373ffffffffffffffffffffffffffffffffffffffff1602179055508073ffffffffffffffffffffffffffffffffffffffff1660008054906101000a900473ffffffffffffffffffffffffffffffffffffffff1673ffffffffffffffffffffffffffffffffffffffff167fed8889f560326eb138920d842192f0eb3dd22b4f139c87a2c57538e05bae127860405160405180910390a350565b828054828255906000526020600020908101928215620008d4579160200282015b82811115620008d35782518260006101000a81548173ffffffffffffffffffffffffffffffffffffffff021916908373ffffffffffffffffffffffffffffffffffffffff1602179055509160200191906001019062000879565b5b509050620008e391906200093e565b5090565b8280548282559060005260206000209081019282156200092b5760005260206000209182015b828111156200092a5782548255916001019190600101906200090d565b5b5090506200093a91906200093e565b5090565b5b80821115620009595760008160009055506001016200093f565b5090565b600082825260208201905092915050565b7f43616e6e6f7420736574206f776e657220746f207a65726f0000000000000000600082015250565b6000620009a66018836200095d565b9150620009b3826200096e565b602082019050919050565b60006020820190508181036000830152620009d98162000997565b9050919050565b7f43616e6e6f74207472616e7366657220746f2073656c66000000000000000000600082015250565b600062000a186017836200095d565b915062000a2582620009e0565b602082019050919050565b6000602082019050818103600083015262000a4b8162000a09565b9050919050565b60805160a05161286462000a946000396000818161047001528181611088015281816116c4015281816116e501526118230152600061168801526128646000f3fe608060405234801561001057600080fd5b50600436106101585760003560e01c806393b3cc6b116100c3578063d8a4676f1161007c578063d8a4676f146103a8578063df15c37e146103da578063e0c86289146103f8578063e9d5f0ff14610416578063f2fde38b14610434578063fc2a88c31461045057610158565b806393b3cc6b146102d1578063a168fa89146102ef578063a2fb117514610320578063acc0520814610350578063ad62944e1461036e578063ce88b1451461037857610158565b80637d94792a116101155780637d94792a146101fb5780638461b706146102195780638796ba8c146102495780638da5cb5b146102795780638dc654a214610297578063903a593e146102a157610158565b80631fe543e31461015d57806350ea0f23146101795780635aa68ac0146101975780636d5eac26146101b5578063711b2040146101d357806379ba5097146101f1575b600080fd5b61017760048036038101906101729190611d92565b61046e565b005b61018161050a565b60405161018e9190611ede565b60405180910390f35b61019f61060b565b6040516101ac9190611ede565b60405180910390f35b6101bd610699565b6040516101ca9190611f0f565b60405180910390f35b6101db61069f565b6040516101e89190611ede565b60405180910390f35b6101f961095f565b005b610203610af4565b6040516102109190611f0f565b60405180910390f35b610233600480360381019061022e9190611f2a565b610afa565b6040516102409190611f66565b60405180910390f35b610263600480360381019061025e9190611f2a565b610b39565b6040516102709190611f0f565b60405180910390f35b610281610b5d565b60405161028e9190611f66565b60405180910390f35b61029f610b86565b005b6102bb60048036038101906102b69190611f2a565b610d0c565b6040516102c89190611f66565b60405180910390f35b6102d9610d4b565b6040516102e69190611f0f565b60405180910390f35b61030960048036038101906103049190611f2a565b610d55565b604051610317929190611f9c565b60405180910390f35b61033a60048036038101906103359190611f2a565b610d86565b6040516103479190611f66565b60405180910390f35b610358610dc5565b6040516103659190611f0f565b60405180910390f35b610376610e23565b005b610392600480360381019061038d9190611f2a565b610e40565b60405161039f9190611f66565b60405180910390f35b6103c260048036038101906103bd9190611f2a565b610e88565b6040516103d193929190612083565b60405180910390f35b6103e2610fa2565b6040516103ef9190611ede565b60405180910390f35b610400611030565b60405161040d9190611f0f565b60405180910390f35b61041e611277565b60405161042b9190611ede565b60405180910390f35b61044e600480360381019061044991906120ed565b61147b565b005b61045861148f565b6040516104659190611f0f565b60405180910390f35b7f000000000000000000000000000000000000000000000000000000000000000073ffffffffffffffffffffffffffffffffffffffff163373ffffffffffffffffffffffffffffffffffffffff16146104fc576040517f08c379a00000000000000000000000000000000000000000000000000000000081526004016104f390612177565b60405180910390fd5b6105068282611495565b5050565b606061051461159d565b60005b60058054905081101561057e57600580548061053657610535612197565b5b6001900381819060005260206000200160006101000a81549073ffffffffffffffffffffffffffffffffffffffff021916905590558080610576906121f5565b915050610517565b50600580548060200260200160405190810160405280929190818152602001828054801561060157602002820191906000526020600020905b8160009054906101000a900473ffffffffffffffffffffffffffffffffffffffff1673ffffffffffffffffffffffffffffffffffffffff16815260200190600101908083116105b7575b5050505050905090565b6060600280548060200260200160405190810160405280929190818152602001828054801561068f57602002820191906000526020600020905b8160009054906101000a900473ffffffffffffffffffffffffffffffffffffffff1673ffffffffffffffffffffffffffffffffffffffff1681526020019060010190808311610645575b5050505050905090565b60065481565b606060006106ab610d4b565b90505b600073ffffffffffffffffffffffffffffffffffffffff16600382815481106106da576106d961223e565b5b9060005260206000200160009054906101000a900473ffffffffffffffffffffffffffffffffffffffff1673ffffffffffffffffffffffffffffffffffffffff16146108b7576005600382815481106107365761073561223e565b5b9060005260206000200160009054906101000a900473ffffffffffffffffffffffffffffffffffffffff169080600181540180825580915050600190039060005260206000200160009091909190916101000a81548173ffffffffffffffffffffffffffffffffffffffff021916908373ffffffffffffffffffffffffffffffffffffffff16021790555060076000600383815481106107d9576107d861223e565b5b9060005260206000200160009054906101000a900473ffffffffffffffffffffffffffffffffffffffff1673ffffffffffffffffffffffffffffffffffffffff1673ffffffffffffffffffffffffffffffffffffffff168152602001908152602001600020600081548092919061084f906121f5565b919050555060006003828154811061086a5761086961223e565b5b9060005260206000200160006101000a81548173ffffffffffffffffffffffffffffffffffffffff021916908373ffffffffffffffffffffffffffffffffffffffff1602179055506108c3565b6108c08161162d565b90505b60065460058054905014156106ae57600580548060200260200160405190810160405280929190818152602001828054801561095457602002820191906000526020600020905b8160009054906101000a900473ffffffffffffffffffffffffffffffffffffffff1673ffffffffffffffffffffffffffffffffffffffff168152602001906001019080831161090a575b505050505091505090565b600160009054906101000a900473ffffffffffffffffffffffffffffffffffffffff1673ffffffffffffffffffffffffffffffffffffffff163373ffffffffffffffffffffffffffffffffffffffff16146109ef576040517f08c379a00000000000000000000000000000000000000000000000000000000081526004016109e6906122b9565b60405180910390fd5b60008060009054906101000a900473ffffffffffffffffffffffffffffffffffffffff169050336000806101000a81548173ffffffffffffffffffffffffffffffffffffffff021916908373ffffffffffffffffffffffffffffffffffffffff1602179055506000600160006101000a81548173ffffffffffffffffffffffffffffffffffffffff021916908373ffffffffffffffffffffffffffffffffffffffff1602179055503373ffffffffffffffffffffffffffffffffffffffff168173ffffffffffffffffffffffffffffffffffffffff167f8be0079c531659141344cd1fd0a4f28419497f9722a3daafe3b4186f6b6457e060405160405180910390a350565b60045481565b60028181548110610b0a57600080fd5b906000526020600020016000915054906101000a900473ffffffffffffffffffffffffffffffffffffffff1681565b60098181548110610b4957600080fd5b906000526020600020016000915090505481565b60008060009054906101000a900473ffffffffffffffffffffffffffffffffffffffff16905090565b610b8e61159d565b6000600b600a9054906101000a900473ffffffffffffffffffffffffffffffffffffffff1690508073ffffffffffffffffffffffffffffffffffffffff1663a9059cbb338373ffffffffffffffffffffffffffffffffffffffff166370a08231306040518263ffffffff1660e01b8152600401610c0b9190611f66565b60206040518083038186803b158015610c2357600080fd5b505afa158015610c37573d6000803e3d6000fd5b505050506040513d601f19601f82011682018060405250810190610c5b91906122ee565b6040518363ffffffff1660e01b8152600401610c7892919061231b565b602060405180830381600087803b158015610c9257600080fd5b505af1158015610ca6573d6000803e3d6000fd5b505050506040513d601f19601f82011682018060405250810190610cca9190612370565b610d09576040517f08c379a0000000000000000000000000000000000000000000000000000000008152600401610d00906123e9565b60405180910390fd5b50565b60038181548110610d1c57600080fd5b906000526020600020016000915054906101000a900473ffffffffffffffffffffffffffffffffffffffff1681565b6000600454905090565b60086020528060005260406000206000915090508060000154908060010160009054906101000a900460ff16905082565b60058181548110610d9657600080fd5b906000526020600020016000915054906101000a900473ffffffffffffffffffffffffffffffffffffffff1681565b6000610dcf61159d565b60028054905060086000600a548152602001908152602001600020600201600081548110610e0057610dff61223e565b5b9060005260206000200154610e159190612438565b600481905550600454905090565b610e2b61159d565b60026003908054610e3d929190611b33565b50565b600060028281548110610e5657610e5561223e565b5b9060005260206000200160009054906101000a900473ffffffffffffffffffffffffffffffffffffffff169050919050565b60008060606000600860008681526020019081526020016000206000015411610ee6576040517f08c379a0000000000000000000000000000000000000000000000000000000008152600401610edd906124b5565b60405180910390fd5b600060086000868152602001908152602001600020604051806060016040529081600082015481526020016001820160009054906101000a900460ff1615151515815260200160028201805480602002602001604051908101604052809291908181526020018280548015610f7a57602002820191906000526020600020905b815481526020019060010190808311610f66575b5050505050815250509050806000015181602001518260400151935093509350509193909250565b6060600580548060200260200160405190810160405280929190818152602001828054801561102657602002820191906000526020600020905b8160009054906101000a900473ffffffffffffffffffffffffffffffffffffffff1673ffffffffffffffffffffffffffffffffffffffff1681526020019060010190808311610fdc575b5050505050905090565b600061103a61159d565b611079600b60009054906101000a900463ffffffff16600b60049054906101000a900461ffff16600b60069054906101000a900463ffffffff16611684565b905060405180606001604052807f000000000000000000000000000000000000000000000000000000000000000073ffffffffffffffffffffffffffffffffffffffff16634306d354600b60009054906101000a900463ffffffff166040518263ffffffff1660e01b81526004016110f191906124f4565b60206040518083038186803b15801561110957600080fd5b505afa15801561111d573d6000803e3d6000fd5b505050506040513d601f19601f8201168201806040525081019061114191906122ee565b8152602001600015158152602001600067ffffffffffffffff81111561116a57611169611c4f565b5b6040519080825280602002602001820160405280156111985781602001602082028036833780820191505090505b50815250600860008381526020019081526020016000206000820151816000015560208201518160010160006101000a81548160ff02191690831515021790555060408201518160020190805190602001906111f5929190611b85565b50905050600981908060018154018082558091505060019003906000526020600020016000909190919091505580600a819055507fcc58b13ad3eab50626c6a6300b1d139cd6ebb1688a7cced9461c2f7e762665ee81600b60069054906101000a900463ffffffff1660405161126c92919061250f565b60405180910390a190565b60606000611283610d4b565b905060005b6006548110156113ed576005600383815481106112a8576112a761223e565b5b9060005260206000200160009054906101000a900473ffffffffffffffffffffffffffffffffffffffff169080600181540180825580915050600190039060005260206000200160009091909190916101000a81548173ffffffffffffffffffffffffffffffffffffffff021916908373ffffffffffffffffffffffffffffffffffffffff160217905550600760006003848154811061134b5761134a61223e565b5b9060005260206000200160009054906101000a900473ffffffffffffffffffffffffffffffffffffffff1673ffffffffffffffffffffffffffffffffffffffff1673ffffffffffffffffffffffffffffffffffffffff16815260200190815260200160002060008154809291906113c1906121f5565b91905055506113cf826118c8565b6113d88261162d565b915080806113e5906121f5565b915050611288565b50600580548060200260200160405190810160405280929190818152602001828054801561147057602002820191906000526020600020905b8160009054906101000a900473ffffffffffffffffffffffffffffffffffffffff1673ffffffffffffffffffffffffffffffffffffffff1681526020019060010190808311611426575b505050505091505090565b61148361159d565b61148c81611a06565b50565b600a5481565b60006008600084815260200190815260200160002060000154116114ee576040517f08c379a00000000000000000000000000000000000000000000000000000000081526004016114e5906124b5565b60405180910390fd5b60016008600084815260200190815260200160002060010160006101000a81548160ff02191690831515021790555080600860008481526020019081526020016000206002019080519060200190611547929190611b85565b507f147eb1ff0c82f87f2b03e2c43f5a36488ff63ec6b730195fde4605f612f8db518282600860008681526020019081526020016000206000015460405161159193929190612538565b60405180910390a15050565b60008054906101000a900473ffffffffffffffffffffffffffffffffffffffff1673ffffffffffffffffffffffffffffffffffffffff163373ffffffffffffffffffffffffffffffffffffffff161461162b576040517f08c379a0000000000000000000000000000000000000000000000000000000008152600401611622906125c2565b60405180910390fd5b565b600061163761159d565b6003805490508280611648906121f5565b935060405160200161165a9190612603565b6040516020818303038152906040528051906020012060001c61167d9190612438565b9050919050565b60007f000000000000000000000000000000000000000000000000000000000000000073ffffffffffffffffffffffffffffffffffffffff16634000aea07f00000000000000000000000000000000000000000000000000000000000000007f000000000000000000000000000000000000000000000000000000000000000073ffffffffffffffffffffffffffffffffffffffff16634306d354886040518263ffffffff1660e01b815260040161173c91906124f4565b60206040518083038186803b15801561175457600080fd5b505afa158015611768573d6000803e3d6000fd5b505050506040513d601f19601f8201168201806040525081019061178c91906122ee565b8787876040516020016117a19392919061263b565b6040516020818303038152906040526040518463ffffffff1660e01b81526004016117ce939291906126fa565b602060405180830381600087803b1580156117e857600080fd5b505af11580156117fc573d6000803e3d6000fd5b505050506040513d601f19601f820116820180604052508101906118209190612370565b507f000000000000000000000000000000000000000000000000000000000000000073ffffffffffffffffffffffffffffffffffffffff1663fc2a88c36040518163ffffffff1660e01b815260040160206040518083038186803b15801561188757600080fd5b505afa15801561189b573d6000803e3d6000fd5b505050506040513d601f19601f820116820180604052508101906118bf91906122ee565b90509392505050565b6118d061159d565b60038054905081106118e157611a03565b60008190505b60016003805490506118f99190612738565b8110156119ba57600360018261190f919061276c565b815481106119205761191f61223e565b5b9060005260206000200160009054906101000a900473ffffffffffffffffffffffffffffffffffffffff166003828154811061195f5761195e61223e565b5b9060005260206000200160006101000a81548173ffffffffffffffffffffffffffffffffffffffff021916908373ffffffffffffffffffffffffffffffffffffffff16021790555080806119b2906121f5565b9150506118e7565b5060038054806119cd576119cc612197565b5b6001900381819060005260206000200160006101000a81549073ffffffffffffffffffffffffffffffffffffffff021916905590555b50565b3373ffffffffffffffffffffffffffffffffffffffff168173ffffffffffffffffffffffffffffffffffffffff161415611a75576040517f08c379a0000000000000000000000000000000000000000000000000000000008152600401611a6c9061280e565b60405180910390fd5b80600160006101000a81548173ffffffffffffffffffffffffffffffffffffffff021916908373ffffffffffffffffffffffffffffffffffffffff1602179055508073ffffffffffffffffffffffffffffffffffffffff1660008054906101000a900473ffffffffffffffffffffffffffffffffffffffff1673ffffffffffffffffffffffffffffffffffffffff167fed8889f560326eb138920d842192f0eb3dd22b4f139c87a2c57538e05bae127860405160405180910390a350565b828054828255906000526020600020908101928215611b745760005260206000209182015b82811115611b73578254825591600101919060010190611b58565b5b509050611b819190611bd2565b5090565b828054828255906000526020600020908101928215611bc1579160200282015b82811115611bc0578251825591602001919060010190611ba5565b5b509050611bce9190611bd2565b5090565b5b80821115611beb576000816000905550600101611bd3565b5090565b6000604051905090565b600080fd5b600080fd5b6000819050919050565b611c1681611c03565b8114611c2157600080fd5b50565b600081359050611c3381611c0d565b92915050565b600080fd5b6000601f19601f8301169050919050565b7f4e487b7100000000000000000000000000000000000000000000000000000000600052604160045260246000fd5b611c8782611c3e565b810181811067ffffffffffffffff82111715611ca657611ca5611c4f565b5b80604052505050565b6000611cb9611bef565b9050611cc58282611c7e565b919050565b600067ffffffffffffffff821115611ce557611ce4611c4f565b5b602082029050602081019050919050565b600080fd5b6000611d0e611d0984611cca565b611caf565b90508083825260208201905060208402830185811115611d3157611d30611cf6565b5b835b81811015611d5a5780611d468882611c24565b845260208401935050602081019050611d33565b5050509392505050565b600082601f830112611d7957611d78611c39565b5b8135611d89848260208601611cfb565b91505092915050565b60008060408385031215611da957611da8611bf9565b5b6000611db785828601611c24565b925050602083013567ffffffffffffffff811115611dd857611dd7611bfe565b5b611de485828601611d64565b9150509250929050565b600081519050919050565b600082825260208201905092915050565b6000819050602082019050919050565b600073ffffffffffffffffffffffffffffffffffffffff82169050919050565b6000611e4582611e1a565b9050919050565b611e5581611e3a565b82525050565b6000611e678383611e4c565b60208301905092915050565b6000602082019050919050565b6000611e8b82611dee565b611e958185611df9565b9350611ea083611e0a565b8060005b83811015611ed1578151611eb88882611e5b565b9750611ec383611e73565b925050600181019050611ea4565b5085935050505092915050565b60006020820190508181036000830152611ef88184611e80565b905092915050565b611f0981611c03565b82525050565b6000602082019050611f246000830184611f00565b92915050565b600060208284031215611f4057611f3f611bf9565b5b6000611f4e84828501611c24565b91505092915050565b611f6081611e3a565b82525050565b6000602082019050611f7b6000830184611f57565b92915050565b60008115159050919050565b611f9681611f81565b82525050565b6000604082019050611fb16000830185611f00565b611fbe6020830184611f8d565b9392505050565b600081519050919050565b600082825260208201905092915050565b6000819050602082019050919050565b611ffa81611c03565b82525050565b600061200c8383611ff1565b60208301905092915050565b6000602082019050919050565b600061203082611fc5565b61203a8185611fd0565b935061204583611fe1565b8060005b8381101561207657815161205d8882612000565b975061206883612018565b925050600181019050612049565b5085935050505092915050565b60006060820190506120986000830186611f00565b6120a56020830185611f8d565b81810360408301526120b78184612025565b9050949350505050565b6120ca81611e3a565b81146120d557600080fd5b50565b6000813590506120e7816120c1565b92915050565b60006020828403121561210357612102611bf9565b5b6000612111848285016120d8565b91505092915050565b600082825260208201905092915050565b7f6f6e6c792056524620563220777261707065722063616e2066756c66696c6c00600082015250565b6000612161601f8361211a565b915061216c8261212b565b602082019050919050565b6000602082019050818103600083015261219081612154565b9050919050565b7f4e487b7100000000000000000000000000000000000000000000000000000000600052603160045260246000fd5b7f4e487b7100000000000000000000000000000000000000000000000000000000600052601160045260246000fd5b600061220082611c03565b91507fffffffffffffffffffffffffffffffffffffffffffffffffffffffffffffffff821415612233576122326121c6565b5b600182019050919050565b7f4e487b7100000000000000000000000000000000000000000000000000000000600052603260045260246000fd5b7f4d7573742062652070726f706f736564206f776e657200000000000000000000600082015250565b60006122a360168361211a565b91506122ae8261226d565b602082019050919050565b600060208201905081810360008301526122d281612296565b9050919050565b6000815190506122e881611c0d565b92915050565b60006020828403121561230457612303611bf9565b5b6000612312848285016122d9565b91505092915050565b60006040820190506123306000830185611f57565b61233d6020830184611f00565b9392505050565b61234d81611f81565b811461235857600080fd5b50565b60008151905061236a81612344565b92915050565b60006020828403121561238657612385611bf9565b5b60006123948482850161235b565b91505092915050565b7f556e61626c6520746f207472616e736665720000000000000000000000000000600082015250565b60006123d360128361211a565b91506123de8261239d565b602082019050919050565b60006020820190508181036000830152612402816123c6565b9050919050565b7f4e487b7100000000000000000000000000000000000000000000000000000000600052601260045260246000fd5b600061244382611c03565b915061244e83611c03565b92508261245e5761245d612409565b5b828206905092915050565b7f72657175657374206e6f7420666f756e64000000000000000000000000000000600082015250565b600061249f60118361211a565b91506124aa82612469565b602082019050919050565b600060208201905081810360008301526124ce81612492565b9050919050565b600063ffffffff82169050919050565b6124ee816124d5565b82525050565b600060208201905061250960008301846124e5565b92915050565b60006040820190506125246000830185611f00565b61253160208301846124e5565b9392505050565b600060608201905061254d6000830186611f00565b818103602083015261255f8185612025565b905061256e6040830184611f00565b949350505050565b7f4f6e6c792063616c6c61626c65206279206f776e657200000000000000000000600082015250565b60006125ac60168361211a565b91506125b782612576565b602082019050919050565b600060208201905081810360008301526125db8161259f565b9050919050565b6000819050919050565b6125fd6125f882611c03565b6125e2565b82525050565b600061260f82846125ec565b60208201915081905092915050565b600061ffff82169050919050565b6126358161261e565b82525050565b600060608201905061265060008301866124e5565b61265d602083018561262c565b61266a60408301846124e5565b949350505050565b600081519050919050565b600082825260208201905092915050565b60005b838110156126ac578082015181840152602081019050612691565b838111156126bb576000848401525b50505050565b60006126cc82612672565b6126d6818561267d565b93506126e681856020860161268e565b6126ef81611c3e565b840191505092915050565b600060608201905061270f6000830186611f57565b61271c6020830185611f00565b818103604083015261272e81846126c1565b9050949350505050565b600061274382611c03565b915061274e83611c03565b925082821015612761576127606121c6565b5b828203905092915050565b600061277782611c03565b915061278283611c03565b9250827fffffffffffffffffffffffffffffffffffffffffffffffffffffffffffffffff038211156127b7576127b66121c6565b5b828201905092915050565b7f43616e6e6f74207472616e7366657220746f2073656c66000000000000000000600082015250565b60006127f860178361211a565b9150612803826127c2565b602082019050919050565b60006020820190508181036000830152612827816127eb565b905091905056fea264697066735822122021685257b9a98ce9a6765398a84010531b2ff03e567bcc39f4fe20dcf8787b6564736f6c63430008090033",
  "linkReferences": {},
  "deployedLinkReferences": {}
}