{
  "_format": "hh-sol-artifact-1",
  "contractName": "LaunchNFT",
  "sourceName": "contracts/LaunchNFT.sol",
  "abi": [
    {
      "inputs": [],
      "stateMutability": "payable",
      "type": "constructor"
    },
    {
      "inputs": [],
      "name": "ApprovalCallerNotOwnerNorApproved",
      "type": "error"
    },
    {
      "inputs": [],
      "name": "ApprovalQueryForNonexistentToken",
      "type": "error"
    },
    {
      "inputs": [],
      "name": "BalanceQueryForZeroAddress",
      "type": "error"
    },
    {
      "inputs": [],
      "name": "MintERC2309QuantityExceedsLimit",
      "type": "error"
    },
    {
      "inputs": [],
      "name": "MintToZeroAddress",
      "type": "error"
    },
    {
      "inputs": [],
      "name": "MintZeroQuantity",
      "type": "error"
    },
    {
      "inputs": [],
      "name": "OwnerQueryForNonexistentToken",
      "type": "error"
    },
    {
      "inputs": [],
      "name": "OwnershipNotInitializedForExtraData",
      "type": "error"
    },
    {
      "inputs": [],
      "name": "TransferCallerNotOwnerNorApproved",
      "type": "error"
    },
    {
      "inputs": [],
      "name": "TransferFromIncorrectOwner",
      "type": "error"
    },
    {
      "inputs": [],
      "name": "TransferToNonERC721ReceiverImplementer",
      "type": "error"
    },
    {
      "inputs": [],
      "name": "TransferToZeroAddress",
      "type": "error"
    },
    {
      "inputs": [],
      "name": "URIQueryForNonexistentToken",
      "type": "error"
    },
    {
      "anonymous": false,
      "inputs": [
        {
          "indexed": true,
          "internalType": "address",
          "name": "owner",
          "type": "address"
        },
        {
          "indexed": true,
          "internalType": "address",
          "name": "approved",
          "type": "address"
        },
        {
          "indexed": true,
          "internalType": "uint256",
          "name": "tokenId",
          "type": "uint256"
        }
      ],
      "name": "Approval",
      "type": "event"
    },
    {
      "anonymous": false,
      "inputs": [
        {
          "indexed": true,
          "internalType": "address",
          "name": "owner",
          "type": "address"
        },
        {
          "indexed": true,
          "internalType": "address",
          "name": "operator",
          "type": "address"
        },
        {
          "indexed": false,
          "internalType": "bool",
          "name": "approved",
          "type": "bool"
        }
      ],
      "name": "ApprovalForAll",
      "type": "event"
    },
    {
      "anonymous": false,
      "inputs": [
        {
          "indexed": true,
          "internalType": "uint256",
          "name": "fromTokenId",
          "type": "uint256"
        },
        {
          "indexed": false,
          "internalType": "uint256",
          "name": "toTokenId",
          "type": "uint256"
        },
        {
          "indexed": true,
          "internalType": "address",
          "name": "from",
          "type": "address"
        },
        {
          "indexed": true,
          "internalType": "address",
          "name": "to",
          "type": "address"
        }
      ],
      "name": "ConsecutiveTransfer",
      "type": "event"
    },
    {
      "anonymous": false,
      "inputs": [
        {
          "indexed": true,
          "internalType": "uint256",
          "name": "_Duration",
          "type": "uint256"
        },
        {
          "indexed": true,
          "internalType": "uint256",
          "name": "_startTime",
          "type": "uint256"
        }
      ],
      "name": "LaunchStart",
      "type": "event"
    },
    {
      "anonymous": false,
      "inputs": [
        {
          "indexed": true,
          "internalType": "uint256",
          "name": "_timeElapsed",
          "type": "uint256"
        },
        {
          "indexed": true,
          "internalType": "uint256",
          "name": "_endTime",
          "type": "uint256"
        }
      ],
      "name": "LaunchStop",
      "type": "event"
    },
    {
      "anonymous": false,
      "inputs": [
        {
          "indexed": true,
          "internalType": "address",
          "name": "from",
          "type": "address"
        },
        {
          "indexed": true,
          "internalType": "address",
          "name": "to",
          "type": "address"
        }
      ],
      "name": "OwnershipTransferRequested",
      "type": "event"
    },
    {
      "anonymous": false,
      "inputs": [
        {
          "indexed": true,
          "internalType": "address",
          "name": "from",
          "type": "address"
        },
        {
          "indexed": true,
          "internalType": "address",
          "name": "to",
          "type": "address"
        }
      ],
      "name": "OwnershipTransferred",
      "type": "event"
    },
    {
      "anonymous": false,
      "inputs": [
        {
          "indexed": true,
          "internalType": "address",
          "name": "sender",
          "type": "address"
        },
        {
          "indexed": true,
          "internalType": "uint256",
          "name": "num",
          "type": "uint256"
        }
      ],
      "name": "ParticipateIn",
      "type": "event"
    },
    {
      "anonymous": false,
      "inputs": [
        {
          "indexed": false,
          "internalType": "uint256",
          "name": "requestId",
          "type": "uint256"
        },
        {
          "indexed": false,
          "internalType": "uint256[]",
          "name": "randomWords",
          "type": "uint256[]"
        },
        {
          "indexed": false,
          "internalType": "uint256",
          "name": "payment",
          "type": "uint256"
        }
      ],
      "name": "RequestFulfilled",
      "type": "event"
    },
    {
      "anonymous": false,
      "inputs": [
        {
          "indexed": false,
          "internalType": "uint256",
          "name": "requestId",
          "type": "uint256"
        },
        {
          "indexed": false,
          "internalType": "uint32",
          "name": "numWords",
          "type": "uint32"
        }
      ],
      "name": "RequestSent",
      "type": "event"
    },
    {
      "anonymous": false,
      "inputs": [
        {
          "indexed": true,
          "internalType": "address",
          "name": "from",
          "type": "address"
        },
        {
          "indexed": true,
          "internalType": "address",
          "name": "to",
          "type": "address"
        },
        {
          "indexed": true,
          "internalType": "uint256",
          "name": "tokenId",
          "type": "uint256"
        }
      ],
      "name": "Transfer",
      "type": "event"
    },
    {
      "inputs": [],
      "name": "MAX_PER_ADDR",
      "outputs": [
        {
          "internalType": "uint256",
          "name": "",
          "type": "uint256"
        }
      ],
      "stateMutability": "view",
      "type": "function"
    },
    {
      "inputs": [],
      "name": "MAX_PER_TX",
      "outputs": [
        {
          "internalType": "uint256",
          "name": "",
          "type": "uint256"
        }
      ],
      "stateMutability": "view",
      "type": "function"
    },
    {
      "inputs": [],
      "name": "PRICE_PER_TICKET",
      "outputs": [
        {
          "internalType": "uint256",
          "name": "",
          "type": "uint256"
        }
      ],
      "stateMutability": "view",
      "type": "function"
    },
    {
      "inputs": [],
      "name": "TOTAL_SUPPLY",
      "outputs": [
        {
          "internalType": "uint256",
          "name": "",
          "type": "uint256"
        }
      ],
      "stateMutability": "view",
      "type": "function"
    },
    {
      "inputs": [],
      "name": "acceptOwnership",
      "outputs": [],
      "stateMutability": "nonpayable",
      "type": "function"
    },
    {
      "inputs": [
        {
          "internalType": "address",
          "name": "to",
          "type": "address"
        },
        {
          "internalType": "uint256",
          "name": "tokenId",
          "type": "uint256"
        }
      ],
      "name": "approve",
      "outputs": [],
      "stateMutability": "payable",
      "type": "function"
    },
    {
      "inputs": [
        {
          "internalType": "address",
          "name": "owner",
          "type": "address"
        }
      ],
      "name": "balanceOf",
      "outputs": [
        {
          "internalType": "uint256",
          "name": "",
          "type": "uint256"
        }
      ],
      "stateMutability": "view",
      "type": "function"
    },
    {
      "inputs": [],
      "name": "calcuateRandomSeed",
      "outputs": [
        {
          "internalType": "uint256",
          "name": "",
          "type": "uint256"
        }
      ],
      "stateMutability": "nonpayable",
      "type": "function"
    },
    {
      "inputs": [],
      "name": "calculateRandomSeed",
      "outputs": [
        {
          "internalType": "uint256",
          "name": "result",
          "type": "uint256"
        }
      ],
      "stateMutability": "view",
      "type": "function"
    },
    {
      "inputs": [
        {
          "internalType": "address",
          "name": "",
          "type": "address"
        }
      ],
      "name": "countOfwins",
      "outputs": [
        {
          "internalType": "uint256",
          "name": "",
          "type": "uint256"
        }
      ],
      "stateMutability": "view",
      "type": "function"
    },
    {
      "inputs": [],
      "name": "durationOfLaunch",
      "outputs": [
        {
          "internalType": "uint256",
          "name": "",
          "type": "uint256"
        }
      ],
      "stateMutability": "view",
      "type": "function"
    },
    {
      "inputs": [
        {
          "internalType": "uint256",
          "name": "index",
          "type": "uint256"
        }
      ],
      "name": "getAccount",
      "outputs": [
        {
          "internalType": "address",
          "name": "",
          "type": "address"
        }
      ],
      "stateMutability": "view",
      "type": "function"
    },
    {
      "inputs": [
        {
          "internalType": "uint256",
          "name": "tokenId",
          "type": "uint256"
        }
      ],
      "name": "getApproved",
      "outputs": [
        {
          "internalType": "address",
          "name": "",
          "type": "address"
        }
      ],
      "stateMutability": "view",
      "type": "function"
    },
    {
      "inputs": [],
      "name": "getParticipants",
      "outputs": [
        {
          "internalType": "address[]",
          "name": "",
          "type": "address[]"
        }
      ],
      "stateMutability": "view",
      "type": "function"
    },
    {
      "inputs": [],
      "name": "getRandomSeed",
      "outputs": [
        {
          "internalType": "uint256",
          "name": "",
          "type": "uint256"
        }
      ],
      "stateMutability": "view",
      "type": "function"
    },
    {
      "inputs": [
        {
          "internalType": "uint256",
          "name": "_requestId",
          "type": "uint256"
        }
      ],
      "name": "getRequestStatus",
      "outputs": [
        {
          "internalType": "uint256",
          "name": "paid",
          "type": "uint256"
        },
        {
          "internalType": "bool",
          "name": "fulfilled",
          "type": "bool"
        },
        {
          "internalType": "uint256[]",
          "name": "randomWords",
          "type": "uint256[]"
        }
      ],
      "stateMutability": "view",
      "type": "function"
    },
    {
      "inputs": [],
      "name": "getWinners",
      "outputs": [
        {
          "internalType": "address[]",
          "name": "",
          "type": "address[]"
        }
      ],
      "stateMutability": "view",
      "type": "function"
    },
    {
      "inputs": [],
      "name": "initAll",
      "outputs": [],
      "stateMutability": "nonpayable",
      "type": "function"
    },
    {
      "inputs": [
        {
          "internalType": "address",
          "name": "owner",
          "type": "address"
        },
        {
          "internalType": "address",
          "name": "operator",
          "type": "address"
        }
      ],
      "name": "isApprovedForAll",
      "outputs": [
        {
          "internalType": "bool",
          "name": "",
          "type": "bool"
        }
      ],
      "stateMutability": "view",
      "type": "function"
    },
    {
      "inputs": [],
      "name": "isParticipateActive",
      "outputs": [
        {
          "internalType": "bool",
          "name": "",
          "type": "bool"
        }
      ],
      "stateMutability": "view",
      "type": "function"
    },
    {
      "inputs": [],
      "name": "lastRequestId",
      "outputs": [
        {
          "internalType": "uint256",
          "name": "",
          "type": "uint256"
        }
      ],
      "stateMutability": "view",
      "type": "function"
    },
    {
      "inputs": [],
      "name": "launchStartTime",
      "outputs": [
        {
          "internalType": "uint256",
          "name": "",
          "type": "uint256"
        }
      ],
      "stateMutability": "view",
      "type": "function"
    },
    {
      "inputs": [],
      "name": "launchStopTime",
      "outputs": [
        {
          "internalType": "uint256",
          "name": "",
          "type": "uint256"
        }
      ],
      "stateMutability": "view",
      "type": "function"
    },
    {
      "inputs": [
        {
          "internalType": "uint256",
          "name": "",
          "type": "uint256"
        }
      ],
      "name": "listOfParticipants",
      "outputs": [
        {
          "internalType": "address",
          "name": "",
          "type": "address"
        }
      ],
      "stateMutability": "view",
      "type": "function"
    },
    {
      "inputs": [],
      "name": "maxPerAddr",
      "outputs": [
        {
          "internalType": "uint256",
          "name": "",
          "type": "uint256"
        }
      ],
      "stateMutability": "view",
      "type": "function"
    },
    {
      "inputs": [],
      "name": "maxPerTx",
      "outputs": [
        {
          "internalType": "uint256",
          "name": "",
          "type": "uint256"
        }
      ],
      "stateMutability": "view",
      "type": "function"
    },
    {
      "inputs": [],
      "name": "name",
      "outputs": [
        {
          "internalType": "string",
          "name": "",
          "type": "string"
        }
      ],
      "stateMutability": "view",
      "type": "function"
    },
    {
      "inputs": [],
      "name": "numOfwinners",
      "outputs": [
        {
          "internalType": "uint256",
          "name": "",
          "type": "uint256"
        }
      ],
      "stateMutability": "view",
      "type": "function"
    },
    {
      "inputs": [],
      "name": "operator",
      "outputs": [
        {
          "internalType": "address",
          "name": "",
          "type": "address"
        }
      ],
      "stateMutability": "view",
      "type": "function"
    },
    {
      "inputs": [],
      "name": "owner",
      "outputs": [
        {
          "internalType": "address",
          "name": "",
          "type": "address"
        }
      ],
      "stateMutability": "view",
      "type": "function"
    },
    {
      "inputs": [
        {
          "internalType": "uint256",
          "name": "tokenId",
          "type": "uint256"
        }
      ],
      "name": "ownerOf",
      "outputs": [
        {
          "internalType": "address",
          "name": "",
          "type": "address"
        }
      ],
      "stateMutability": "view",
      "type": "function"
    },
    {
      "inputs": [
        {
          "internalType": "uint256",
          "name": "num",
          "type": "uint256"
        }
      ],
      "name": "participateInLaunch",
      "outputs": [],
      "stateMutability": "payable",
      "type": "function"
    },
    {
      "inputs": [
        {
          "internalType": "address",
          "name": "",
          "type": "address"
        }
      ],
      "name": "participatedPerAddress",
      "outputs": [
        {
          "internalType": "uint256",
          "name": "",
          "type": "uint256"
        }
      ],
      "stateMutability": "view",
      "type": "function"
    },
    {
      "inputs": [
        {
          "internalType": "uint256",
          "name": "_requestId",
          "type": "uint256"
        },
        {
          "internalType": "uint256[]",
          "name": "_randomWords",
          "type": "uint256[]"
        }
      ],
      "name": "rawFulfillRandomWords",
      "outputs": [],
      "stateMutability": "nonpayable",
      "type": "function"
    },
    {
      "inputs": [
        {
          "internalType": "uint256",
          "name": "",
          "type": "uint256"
        }
      ],
      "name": "requestIds",
      "outputs": [
        {
          "internalType": "uint256",
          "name": "",
          "type": "uint256"
        }
      ],
      "stateMutability": "view",
      "type": "function"
    },
    {
      "inputs": [],
      "name": "requestRandomSeed",
      "outputs": [
        {
          "internalType": "uint256",
          "name": "requestId",
          "type": "uint256"
        }
      ],
      "stateMutability": "nonpayable",
      "type": "function"
    },
    {
      "inputs": [
        {
          "internalType": "uint256",
          "name": "",
          "type": "uint256"
        }
      ],
      "name": "s_requests",
      "outputs": [
        {
          "internalType": "uint256",
          "name": "paid",
          "type": "uint256"
        },
        {
          "internalType": "bool",
          "name": "fulfilled",
          "type": "bool"
        }
      ],
      "stateMutability": "view",
      "type": "function"
    },
    {
      "inputs": [
        {
          "internalType": "address",
          "name": "from",
          "type": "address"
        },
        {
          "internalType": "address",
          "name": "to",
          "type": "address"
        },
        {
          "internalType": "uint256",
          "name": "tokenId",
          "type": "uint256"
        }
      ],
      "name": "safeTransferFrom",
      "outputs": [],
      "stateMutability": "payable",
      "type": "function"
    },
    {
      "inputs": [
        {
          "internalType": "address",
          "name": "from",
          "type": "address"
        },
        {
          "internalType": "address",
          "name": "to",
          "type": "address"
        },
        {
          "internalType": "uint256",
          "name": "tokenId",
          "type": "uint256"
        },
        {
          "internalType": "bytes",
          "name": "_data",
          "type": "bytes"
        }
      ],
      "name": "safeTransferFrom",
      "outputs": [],
      "stateMutability": "payable",
      "type": "function"
    },
    {
      "inputs": [],
      "name": "selectWinners",
      "outputs": [],
      "stateMutability": "nonpayable",
      "type": "function"
    },
    {
      "inputs": [],
      "name": "selectWinnersV2",
      "outputs": [],
      "stateMutability": "nonpayable",
      "type": "function"
    },
    {
      "inputs": [
        {
          "internalType": "address",
          "name": "operator",
          "type": "address"
        },
        {
          "internalType": "bool",
          "name": "approved",
          "type": "bool"
        }
      ],
      "name": "setApprovalForAll",
      "outputs": [],
      "stateMutability": "nonpayable",
      "type": "function"
    },
    {
      "inputs": [
        {
          "internalType": "string",
          "name": "uri",
          "type": "string"
        }
      ],
      "name": "setBaseURI",
      "outputs": [],
      "stateMutability": "nonpayable",
      "type": "function"
    },
    {
      "inputs": [
        {
          "internalType": "uint256",
          "name": "_duration",
          "type": "uint256"
        }
      ],
      "name": "setDuration",
      "outputs": [],
      "stateMutability": "nonpayable",
      "type": "function"
    },
    {
      "inputs": [
        {
          "internalType": "uint256",
          "name": "num",
          "type": "uint256"
        }
      ],
      "name": "setRandomSeed",
      "outputs": [],
      "stateMutability": "nonpayable",
      "type": "function"
    },
    {
      "inputs": [],
      "name": "settlement",
      "outputs": [],
      "stateMutability": "nonpayable",
      "type": "function"
    },
    {
      "inputs": [],
      "name": "startLaunch",
      "outputs": [],
      "stateMutability": "nonpayable",
      "type": "function"
    },
    {
      "inputs": [],
      "name": "stopLaunch",
      "outputs": [],
      "stateMutability": "nonpayable",
      "type": "function"
    },
    {
      "inputs": [
        {
          "internalType": "bytes4",
          "name": "interfaceId",
          "type": "bytes4"
        }
      ],
      "name": "supportsInterface",
      "outputs": [
        {
          "internalType": "bool",
          "name": "",
          "type": "bool"
        }
      ],
      "stateMutability": "view",
      "type": "function"
    },
    {
      "inputs": [],
      "name": "symbol",
      "outputs": [
        {
          "internalType": "string",
          "name": "",
          "type": "string"
        }
      ],
      "stateMutability": "view",
      "type": "function"
    },
    {
      "inputs": [
        {
          "internalType": "uint256",
          "name": "",
          "type": "uint256"
        }
      ],
      "name": "tempList",
      "outputs": [
        {
          "internalType": "address",
          "name": "",
          "type": "address"
        }
      ],
      "stateMutability": "view",
      "type": "function"
    },
    {
      "inputs": [
        {
          "internalType": "uint256",
          "name": "tokenId",
          "type": "uint256"
        }
      ],
      "name": "tokenURI",
      "outputs": [
        {
          "internalType": "string",
          "name": "",
          "type": "string"
        }
      ],
      "stateMutability": "view",
      "type": "function"
    },
    {
      "inputs": [],
      "name": "totalSupply",
      "outputs": [
        {
          "internalType": "uint256",
          "name": "",
          "type": "uint256"
        }
      ],
      "stateMutability": "view",
      "type": "function"
    },
    {
      "inputs": [
        {
          "internalType": "address",
          "name": "from",
          "type": "address"
        },
        {
          "internalType": "address",
          "name": "to",
          "type": "address"
        },
        {
          "internalType": "uint256",
          "name": "tokenId",
          "type": "uint256"
        }
      ],
      "name": "transferFrom",
      "outputs": [],
      "stateMutability": "payable",
      "type": "function"
    },
    {
      "inputs": [
        {
          "internalType": "address",
          "name": "to",
          "type": "address"
        }
      ],
      "name": "transferOwnership",
      "outputs": [],
      "stateMutability": "nonpayable",
      "type": "function"
    },
    {
      "inputs": [
        {
          "internalType": "uint256",
          "name": "",
          "type": "uint256"
        }
      ],
      "name": "winners",
      "outputs": [
        {
          "internalType": "address",
          "name": "",
          "type": "address"
        }
      ],
      "stateMutability": "view",
      "type": "function"
    },
    {
      "inputs": [],
      "name": "withdrawLink",
      "outputs": [],
      "stateMutability": "nonpayable",
      "type": "function"
    },
    {
      "stateMutability": "payable",
      "type": "receive"
    }
  ],
  "bytecode": "0x60c060405273326c977e6efc84e512bb9c30f76e30c160ed06fb600d60006101000a81548173ffffffffffffffffffffffffffffffffffffffff021916908373ffffffffffffffffffffffffffffffffffffffff16021790555073708701a1dff4f478de54383e49a627ed4852c816600e60006101000a81548173ffffffffffffffffffffffffffffffffffffffff021916908373ffffffffffffffffffffffffffffffffffffffff160217905550620186a0600e60146101000a81548163ffffffff021916908363ffffffff1602179055506003600e60186101000a81548161ffff021916908361ffff1602179055506001600e601a6101000a81548163ffffffff021916908363ffffffff1602179055506000601060146101000a81548160ff02191690831515021790555061012c6013556000601755604051806101e0016040528073d119a4b0ecab5983e74a8f9ac8e1f32c48efcfcf73ffffffffffffffffffffffffffffffffffffffff1673ffffffffffffffffffffffffffffffffffffffff16815260200173f9ef4b1d33ae37dfe5f82e1b91ffd12d62d5551a73ffffffffffffffffffffffffffffffffffffffff1673ffffffffffffffffffffffffffffffffffffffff16815260200173034c9f2d589aa70b963bbc90929b55fd2689067873ffffffffffffffffffffffffffffffffffffffff1673ffffffffffffffffffffffffffffffffffffffff16815260200173e06644881f40f96a74eff6224ece45f1068a5fc173ffffffffffffffffffffffffffffffffffffffff1673ffffffffffffffffffffffffffffffffffffffff168152602001732a19ff2f460df0b1446e6cdae8ae646390800e1e73ffffffffffffffffffffffffffffffffffffffff1673ffffffffffffffffffffffffffffffffffffffff16815260200173dd24313433d5b670e43e24d63dcb487ad2d29ec873ffffffffffffffffffffffffffffffffffffffff1673ffffffffffffffffffffffffffffffffffffffff16815260200173a50eef1178b2c3ef8c73d0eebbcd14f3f87e7e6b73ffffffffffffffffffffffffffffffffffffffff1673ffffffffffffffffffffffffffffffffffffffff168152602001739160a61c08884d418dc0cff6523fd5362da5410e73ffffffffffffffffffffffffffffffffffffffff1673ffffffffffffffffffffffffffffffffffffffff16815260200173572d94477d3df3a7ee78230dc86a1af27f41907c73ffffffffffffffffffffffffffffffffffffffff1673ffffffffffffffffffffffffffffffffffffffff16815260200173b6f737e9787d90af7c06ef3e287f84dbb293483873ffffffffffffffffffffffffffffffffffffffff1673ffffffffffffffffffffffffffffffffffffffff16815260200173ce6d662d7611e100cc16c372fd2c5abe1734cb5573ffffffffffffffffffffffffffffffffffffffff1673ffffffffffffffffffffffffffffffffffffffff16815260200173a6e63083b5e72a06b907403e1850e1380c89581673ffffffffffffffffffffffffffffffffffffffff1673ffffffffffffffffffffffffffffffffffffffff16815260200173cdc6fa0c30d171c3cfdbf283ad30b618afbf29a173ffffffffffffffffffffffffffffffffffffffff1673ffffffffffffffffffffffffffffffffffffffff16815260200173ee8229352c7f7501dde85d253bd9c574a639695373ffffffffffffffffffffffffffffffffffffffff1673ffffffffffffffffffffffffffffffffffffffff16815260200173221bc9a22caaa1e27c317244573e7081d3e2628c73ffffffffffffffffffffffffffffffffffffffff1673ffffffffffffffffffffffffffffffffffffffff16815250601890600f6200056e92919062000a38565b50601860199080546200058392919062000ac7565b506005601c5533806000600d60009054906101000a900473ffffffffffffffffffffffffffffffffffffffff16600e60009054906101000a900473ffffffffffffffffffffffffffffffffffffffff166040518060400160405280600981526020017f4c61756e63684e465400000000000000000000000000000000000000000000008152506040518060400160405280600381526020017f4e4654000000000000000000000000000000000000000000000000000000000081525081600290805190602001906200065792919062000b1e565b5080600390805190602001906200067092919062000b1e565b50620006816200081860201b60201c565b60008190555050508173ffffffffffffffffffffffffffffffffffffffff1660808173ffffffffffffffffffffffffffffffffffffffff16815250508073ffffffffffffffffffffffffffffffffffffffff1660a08173ffffffffffffffffffffffffffffffffffffffff16815250505050600073ffffffffffffffffffffffffffffffffffffffff168273ffffffffffffffffffffffffffffffffffffffff16141562000766576040517f08c379a00000000000000000000000000000000000000000000000000000000081526004016200075d9062000c2f565b60405180910390fd5b81600860006101000a81548173ffffffffffffffffffffffffffffffffffffffff021916908373ffffffffffffffffffffffffffffffffffffffff160217905550600073ffffffffffffffffffffffffffffffffffffffff168173ffffffffffffffffffffffffffffffffffffffff1614620007ee57620007ed816200081d60201b60201c565b5b50505062000802336200094f60201b60201c565b6002601481905550600260158190555062000d9a565b600090565b3373ffffffffffffffffffffffffffffffffffffffff168173ffffffffffffffffffffffffffffffffffffffff1614156200088f576040517f08c379a0000000000000000000000000000000000000000000000000000000008152600401620008869062000ca1565b60405180910390fd5b80600960006101000a81548173ffffffffffffffffffffffffffffffffffffffff021916908373ffffffffffffffffffffffffffffffffffffffff1602179055508073ffffffffffffffffffffffffffffffffffffffff16600860009054906101000a900473ffffffffffffffffffffffffffffffffffffffff1673ffffffffffffffffffffffffffffffffffffffff167fed8889f560326eb138920d842192f0eb3dd22b4f139c87a2c57538e05bae127860405160405180910390a350565b6200095f620009a360201b60201c565b80601060006101000a81548173ffffffffffffffffffffffffffffffffffffffff021916908373ffffffffffffffffffffffffffffffffffffffff16021790555050565b600860009054906101000a900473ffffffffffffffffffffffffffffffffffffffff1673ffffffffffffffffffffffffffffffffffffffff163373ffffffffffffffffffffffffffffffffffffffff161462000a36576040517f08c379a000000000000000000000000000000000000000000000000000000000815260040162000a2d9062000d13565b60405180910390fd5b565b82805482825590600052602060002090810192821562000ab4579160200282015b8281111562000ab35782518260006101000a81548173ffffffffffffffffffffffffffffffffffffffff021916908373ffffffffffffffffffffffffffffffffffffffff1602179055509160200191906001019062000a59565b5b50905062000ac3919062000baf565b5090565b82805482825590600052602060002090810192821562000b0b5760005260206000209182015b8281111562000b0a57825482559160010191906001019062000aed565b5b50905062000b1a919062000baf565b5090565b82805462000b2c9062000d64565b90600052602060002090601f01602090048101928262000b50576000855562000b9c565b82601f1062000b6b57805160ff191683800117855562000b9c565b8280016001018555821562000b9c579182015b8281111562000b9b57825182559160200191906001019062000b7e565b5b50905062000bab919062000baf565b5090565b5b8082111562000bca57600081600090555060010162000bb0565b5090565b600082825260208201905092915050565b7f43616e6e6f7420736574206f776e657220746f207a65726f0000000000000000600082015250565b600062000c1760188362000bce565b915062000c248262000bdf565b602082019050919050565b6000602082019050818103600083015262000c4a8162000c08565b9050919050565b7f43616e6e6f74207472616e7366657220746f2073656c66000000000000000000600082015250565b600062000c8960178362000bce565b915062000c968262000c51565b602082019050919050565b6000602082019050818103600083015262000cbc8162000c7a565b9050919050565b7f4f6e6c792063616c6c61626c65206279206f776e657200000000000000000000600082015250565b600062000cfb60168362000bce565b915062000d088262000cc3565b602082019050919050565b6000602082019050818103600083015262000d2e8162000cec565b9050919050565b7f4e487b7100000000000000000000000000000000000000000000000000000000600052602260045260246000fd5b6000600282049050600182168062000d7d57607f821691505b6020821081141562000d945762000d9362000d35565b5b50919050565b60805160a051615c8762000ddc6000396000818161131e015281816131d50152818161409d015281816140be01526141fc015260006140610152615c876000f3fe60806040526004361061037a5760003560e01c80638796ba8c116101d1578063b88d4fde11610102578063e985e9c5116100a0578063f43a22dc1161006f578063f43a22dc14610c89578063f6be71d114610cb4578063f968adbe14610cdd578063fc2a88c314610d0857610381565b8063e985e9c514610bcd578063ea99881214610c0a578063f25f299614610c35578063f2fde38b14610c6057610381565b8063ce88b145116100dc578063ce88b14514610afb578063d8a4676f14610b38578063df15c37e14610b77578063e1da26c614610ba257610381565b8063b88d4fde14610a77578063c87b56dd14610a93578063c8cf323214610ad057610381565b806395d89b411161016f578063a2fb117511610149578063a2fb1175146109cd578063aaf96ff514610a0a578063acc0520814610a21578063b22a981514610a4c57610381565b806395d89b411461093b578063a168fa8914610966578063a22cb465146109a457610381565b80638ef99b83116101ab5780638ef99b831461087d578063902d55a5146108a8578063903a593e146108d357806393b3cc6b1461091057610381565b80638796ba8c146107fe5780638da5cb5b1461083b5780638dc654a21461086657610381565b806355f804b3116102ab5780636d5eac261161024957806379ba50971161022357806379ba5097146107635780637bb501ec1461077a578063811d8526146107a55780638461b706146107c157610381565b80636d5eac26146106d05780636de652b7146106fb57806370a082311461072657610381565b806359a945e91161028557806359a945e9146106285780635aa68ac01461063f5780636352211e1461066a57806366fea1d4146106a757610381565b806355f804b3146105bd578063570ca735146105e6578063579792951461061157610381565b80631fe543e3116103185780632c97fab9116102f25780632c97fab91461052257806342842e0e1461054d57806351160630146105695780635319a3121461058057610381565b80631fe543e3146104c65780632323c183146104ef57806323b872dd1461050657610381565b806309495f881161035457806309495f881461042b578063095ea7b31461046857806318160ddd146104845780631a0de74c146104af57610381565b806301ffc9a71461038657806306fdde03146103c3578063081812fc146103ee57610381565b3661038157005b600080fd5b34801561039257600080fd5b506103ad60048036038101906103a8919061464a565b610d33565b6040516103ba9190614692565b60405180910390f35b3480156103cf57600080fd5b506103d8610dc5565b6040516103e59190614746565b60405180910390f35b3480156103fa57600080fd5b506104156004803603810190610410919061479e565b610e57565b604051610422919061480c565b60405180910390f35b34801561043757600080fd5b50610452600480360381019061044d9190614853565b610ed6565b60405161045f919061488f565b60405180910390f35b610482600480360381019061047d91906148aa565b610eee565b005b34801561049057600080fd5b50610499611032565b6040516104a6919061488f565b60405180910390f35b3480156104bb57600080fd5b506104c4611049565b005b3480156104d257600080fd5b506104ed60048036038101906104e89190614a32565b61131c565b005b3480156104fb57600080fd5b506105046113b8565b005b610520600480360381019061051b9190614a8e565b611501565b005b34801561052e57600080fd5b50610537611826565b604051610544919061488f565b60405180910390f35b61056760048036038101906105629190614a8e565b61182b565b005b34801561057557600080fd5b5061057e61184b565b005b34801561058c57600080fd5b506105a760048036038101906105a29190614853565b611b43565b6040516105b4919061488f565b60405180910390f35b3480156105c957600080fd5b506105e460048036038101906105df9190614b96565b611b5b565b005b3480156105f257600080fd5b506105fb611c05565b604051610608919061480c565b60405180910390f35b34801561061d57600080fd5b50610626611c2b565b005b34801561063457600080fd5b5061063d611e42565b005b34801561064b57600080fd5b50610654611f78565b6040516106619190614c9d565b60405180910390f35b34801561067657600080fd5b50610691600480360381019061068c919061479e565b612006565b60405161069e919061480c565b60405180910390f35b3480156106b357600080fd5b506106ce60048036038101906106c9919061479e565b612018565b005b3480156106dc57600080fd5b506106e56120b2565b6040516106f2919061488f565b60405180910390f35b34801561070757600080fd5b506107106120b8565b60405161071d919061488f565b60405180910390f35b34801561073257600080fd5b5061074d60048036038101906107489190614853565b6120c3565b60405161075a919061488f565b60405180910390f35b34801561076f57600080fd5b5061077861217c565b005b34801561078657600080fd5b5061078f612313565b60405161079c919061488f565b60405180910390f35b6107bf60048036038101906107ba919061479e565b612319565b005b3480156107cd57600080fd5b506107e860048036038101906107e3919061479e565b61260d565b6040516107f5919061480c565b60405180910390f35b34801561080a57600080fd5b506108256004803603810190610820919061479e565b61264c565b604051610832919061488f565b60405180910390f35b34801561084757600080fd5b50610850612670565b60405161085d919061480c565b60405180910390f35b34801561087257600080fd5b5061087b61269a565b005b34801561088957600080fd5b506108926128a8565b60405161089f919061488f565b60405180910390f35b3480156108b457600080fd5b506108bd61292b565b6040516108ca919061488f565b60405180910390f35b3480156108df57600080fd5b506108fa60048036038101906108f5919061479e565b612930565b604051610907919061480c565b60405180910390f35b34801561091c57600080fd5b5061092561296f565b604051610932919061488f565b60405180910390f35b34801561094757600080fd5b50610950612979565b60405161095d9190614746565b60405180910390f35b34801561097257600080fd5b5061098d6004803603810190610988919061479e565b612a0b565b60405161099b929190614cbf565b60405180910390f35b3480156109b057600080fd5b506109cb60048036038101906109c69190614d14565b612a3c565b005b3480156109d957600080fd5b506109f460048036038101906109ef919061479e565b612b47565b604051610a01919061480c565b60405180910390f35b348015610a1657600080fd5b50610a1f612b86565b005b348015610a2d57600080fd5b50610a36612d01565b604051610a43919061488f565b60405180910390f35b348015610a5857600080fd5b50610a61612de7565b604051610a6e919061488f565b60405180910390f35b610a916004803603810190610a8c9190614df5565b612ded565b005b348015610a9f57600080fd5b50610aba6004803603810190610ab5919061479e565b612e60565b604051610ac79190614746565b60405180910390f35b348015610adc57600080fd5b50610ae5612eff565b604051610af2919061488f565b60405180910390f35b348015610b0757600080fd5b50610b226004803603810190610b1d919061479e565b612f05565b604051610b2f919061480c565b60405180910390f35b348015610b4457600080fd5b50610b5f6004803603810190610b5a919061479e565b612f4d565b604051610b6e93929190614f36565b60405180910390f35b348015610b8357600080fd5b50610b8c613067565b604051610b999190614c9d565b60405180910390f35b348015610bae57600080fd5b50610bb76130f5565b604051610bc4919061488f565b60405180910390f35b348015610bd957600080fd5b50610bf46004803603810190610bef9190614f74565b6133c4565b604051610c019190614692565b60405180910390f35b348015610c1657600080fd5b50610c1f613458565b604051610c2c919061488f565b60405180910390f35b348015610c4157600080fd5b50610c4a61345e565b604051610c579190614692565b60405180910390f35b348015610c6c57600080fd5b50610c876004803603810190610c829190614853565b613471565b005b348015610c9557600080fd5b50610c9e613485565b604051610cab919061488f565b60405180910390f35b348015610cc057600080fd5b50610cdb6004803603810190610cd6919061479e565b61348a565b005b348015610ce957600080fd5b50610cf2613524565b604051610cff919061488f565b60405180910390f35b348015610d1457600080fd5b50610d1d61352a565b604051610d2a919061488f565b60405180910390f35b60006301ffc9a760e01b827bffffffffffffffffffffffffffffffffffffffffffffffffffffffff19161480610d8e57506380ac58cd60e01b827bffffffffffffffffffffffffffffffffffffffffffffffffffffffff1916145b80610dbe5750635b5e139f60e01b827bffffffffffffffffffffffffffffffffffffffffffffffffffffffff1916145b9050919050565b606060028054610dd490614fe3565b80601f0160208091040260200160405190810160405280929190818152602001828054610e0090614fe3565b8015610e4d5780601f10610e2257610100808354040283529160200191610e4d565b820191906000526020600020905b815481529060010190602001808311610e3057829003601f168201915b5050505050905090565b6000610e6282613530565b610e98576040517fcf4700e400000000000000000000000000000000000000000000000000000000815260040160405180910390fd5b6006600083815260200190815260200160002060000160009054906101000a900473ffffffffffffffffffffffffffffffffffffffff169050919050565b601d6020528060005260406000206000915090505481565b6000610ef982612006565b90508073ffffffffffffffffffffffffffffffffffffffff16610f1a61358f565b73ffffffffffffffffffffffffffffffffffffffff1614610f7d57610f4681610f4161358f565b6133c4565b610f7c576040517fcfb3b94200000000000000000000000000000000000000000000000000000000815260040160405180910390fd5b5b826006600084815260200190815260200160002060000160006101000a81548173ffffffffffffffffffffffffffffffffffffffff021916908373ffffffffffffffffffffffffffffffffffffffff160217905550818373ffffffffffffffffffffffffffffffffffffffff168273ffffffffffffffffffffffffffffffffffffffff167f8c5be1e5ebec7d5bd14f71427d1e84f3dd0314c0f7b2291e5b200ac8c7c3b92560405160405180910390a4505050565b600061103c613597565b6001546000540303905090565b3373ffffffffffffffffffffffffffffffffffffffff16601060009054906101000a900473ffffffffffffffffffffffffffffffffffffffff1673ffffffffffffffffffffffffffffffffffffffff16146110d9576040517f08c379a00000000000000000000000000000000000000000000000000000000081526004016110d090615087565b60405180910390fd5b60006110e361296f565b905060005b601c54601b805490501461131857600073ffffffffffffffffffffffffffffffffffffffff1660198381548110611122576111216150a7565b5b9060005260206000200160009054906101000a900473ffffffffffffffffffffffffffffffffffffffff1673ffffffffffffffffffffffffffffffffffffffff16146112fb57601b6019838154811061117e5761117d6150a7565b5b9060005260206000200160009054906101000a900473ffffffffffffffffffffffffffffffffffffffff169080600181540180825580915050600190039060005260206000200160009091909190916101000a81548173ffffffffffffffffffffffffffffffffffffffff021916908373ffffffffffffffffffffffffffffffffffffffff160217905550601d600060198481548110611221576112206150a7565b5b9060005260206000200160009054906101000a900473ffffffffffffffffffffffffffffffffffffffff1673ffffffffffffffffffffffffffffffffffffffff1673ffffffffffffffffffffffffffffffffffffffff168152602001908152602001600020600081548092919061129790615105565b91905055506000601983815481106112b2576112b16150a7565b5b9060005260206000200160006101000a81548173ffffffffffffffffffffffffffffffffffffffff021916908373ffffffffffffffffffffffffffffffffffffffff1602179055505b611305828261359c565b91508061131190615105565b90506110e8565b5050565b7f000000000000000000000000000000000000000000000000000000000000000073ffffffffffffffffffffffffffffffffffffffff163373ffffffffffffffffffffffffffffffffffffffff16146113aa576040517f08c379a00000000000000000000000000000000000000000000000000000000081526004016113a19061519a565b60405180910390fd5b6113b48282613684565b5050565b3373ffffffffffffffffffffffffffffffffffffffff16601060009054906101000a900473ffffffffffffffffffffffffffffffffffffffff1673ffffffffffffffffffffffffffffffffffffffff1614611448576040517f08c379a000000000000000000000000000000000000000000000000000000000815260040161143f90615087565b60405180910390fd5b60005b601b805490508110156114ee576000601d6000601b8481548110611472576114716150a7565b5b9060005260206000200160009054906101000a900473ffffffffffffffffffffffffffffffffffffffff1673ffffffffffffffffffffffffffffffffffffffff1673ffffffffffffffffffffffffffffffffffffffff1681526020019081526020016000208190555080806114e690615105565b91505061144b565b506114f761378c565b6114ff61382c565b565b600061150c826138d1565b90508373ffffffffffffffffffffffffffffffffffffffff168173ffffffffffffffffffffffffffffffffffffffff1614611573576040517fa114810000000000000000000000000000000000000000000000000000000000815260040160405180910390fd5b60008061157f8461399f565b91509150611595818761159061358f565b6139c6565b6115e1576115aa866115a561358f565b6133c4565b6115e0576040517f59c896be00000000000000000000000000000000000000000000000000000000815260040160405180910390fd5b5b600073ffffffffffffffffffffffffffffffffffffffff168573ffffffffffffffffffffffffffffffffffffffff161415611648576040517fea553b3400000000000000000000000000000000000000000000000000000000815260040160405180910390fd5b6116558686866001613a0a565b801561166057600082555b600560008773ffffffffffffffffffffffffffffffffffffffff1673ffffffffffffffffffffffffffffffffffffffff168152602001908152602001600020600081546001900391905081905550600560008673ffffffffffffffffffffffffffffffffffffffff1673ffffffffffffffffffffffffffffffffffffffff168152602001908152602001600020600081546001019190508190555061172e8561170a888887613a10565b7c020000000000000000000000000000000000000000000000000000000017613a38565b600460008681526020019081526020016000208190555060007c0200000000000000000000000000000000000000000000000000000000841614156117b65760006001850190506000600460008381526020019081526020016000205414156117b45760005481146117b3578360046000838152602001908152602001600020819055505b5b505b838573ffffffffffffffffffffffffffffffffffffffff168773ffffffffffffffffffffffffffffffffffffffff167fddf252ad1be2c89b69c2b068fc378daa952ba7f163c4a11628f55a4df523b3ef60405160405180910390a461181e8686866001613a63565b505050505050565b600281565b61184683838360405180602001604052806000815250612ded565b505050565b3373ffffffffffffffffffffffffffffffffffffffff16601060009054906101000a900473ffffffffffffffffffffffffffffffffffffffff1673ffffffffffffffffffffffffffffffffffffffff16146118db576040517f08c379a00000000000000000000000000000000000000000000000000000000081526004016118d290615087565b60405180910390fd5b60005b601880549050811015611b40576000601d600060188481548110611905576119046150a7565b5b9060005260206000200160009054906101000a900473ffffffffffffffffffffffffffffffffffffffff1673ffffffffffffffffffffffffffffffffffffffff1673ffffffffffffffffffffffffffffffffffffffff1681526020019081526020016000205414611a3a57611a3560188281548110611987576119866150a7565b5b9060005260206000200160009054906101000a900473ffffffffffffffffffffffffffffffffffffffff16601d6000601885815481106119ca576119c96150a7565b5b9060005260206000200160009054906101000a900473ffffffffffffffffffffffffffffffffffffffff1673ffffffffffffffffffffffffffffffffffffffff1673ffffffffffffffffffffffffffffffffffffffff16815260200190815260200160002054613a69565b611b2d565b600060188281548110611a5057611a4f6150a7565b5b9060005260206000200160009054906101000a900473ffffffffffffffffffffffffffffffffffffffff1673ffffffffffffffffffffffffffffffffffffffff1666038d7ea4c68000604051611aa5906151eb565b60006040518083038185875af1925050503d8060008114611ae2576040519150601f19603f3d011682016040523d82523d6000602084013e611ae7565b606091505b5050905080611b2b576040517f08c379a0000000000000000000000000000000000000000000000000000000008152600401611b229061524c565b60405180910390fd5b505b8080611b3890615105565b9150506118de565b50565b60166020528060005260406000206000915090505481565b3373ffffffffffffffffffffffffffffffffffffffff16601060009054906101000a900473ffffffffffffffffffffffffffffffffffffffff1673ffffffffffffffffffffffffffffffffffffffff1614611beb576040517f08c379a0000000000000000000000000000000000000000000000000000000008152600401611be290615087565b60405180910390fd5b80600f9080519060200190611c0192919061447b565b5050565b601060009054906101000a900473ffffffffffffffffffffffffffffffffffffffff1681565b3373ffffffffffffffffffffffffffffffffffffffff16601060009054906101000a900473ffffffffffffffffffffffffffffffffffffffff1673ffffffffffffffffffffffffffffffffffffffff1614611cbb576040517f08c379a0000000000000000000000000000000000000000000000000000000008152600401611cb290615087565b60405180910390fd5b6000611cc561296f565b90506000805b601c54811015611e3d57601b60198481548110611ceb57611cea6150a7565b5b9060005260206000200160009054906101000a900473ffffffffffffffffffffffffffffffffffffffff169080600181540180825580915050600190039060005260206000200160009091909190916101000a81548173ffffffffffffffffffffffffffffffffffffffff021916908373ffffffffffffffffffffffffffffffffffffffff160217905550601d600060198581548110611d8e57611d8d6150a7565b5b9060005260206000200160009054906101000a900473ffffffffffffffffffffffffffffffffffffffff1673ffffffffffffffffffffffffffffffffffffffff1673ffffffffffffffffffffffffffffffffffffffff1681526020019081526020016000206000815480929190611e0490615105565b9190505550611e1283613c26565b611e1c838361359c565b925081611e2890615105565b91508080611e3590615105565b915050611ccb565b505050565b3373ffffffffffffffffffffffffffffffffffffffff16601060009054906101000a900473ffffffffffffffffffffffffffffffffffffffff1673ffffffffffffffffffffffffffffffffffffffff1614611ed2576040517f08c379a0000000000000000000000000000000000000000000000000000000008152600401611ec990615087565b60405180910390fd5b601060149054906101000a900460ff1615611f22576040517f08c379a0000000000000000000000000000000000000000000000000000000008152600401611f19906152b8565b60405180910390fd5b6001601060146101000a81548160ff021916908315150217905550426011819055506011546013547f389460ae1a631e45311498d24231a574ee6b54ab0d9bf3ffbefe7a317bf94c4960405160405180910390a3565b60606018805480602002602001604051908101604052809291908181526020018280548015611ffc57602002820191906000526020600020905b8160009054906101000a900473ffffffffffffffffffffffffffffffffffffffff1673ffffffffffffffffffffffffffffffffffffffff1681526020019060010190808311611fb2575b5050505050905090565b6000612011826138d1565b9050919050565b3373ffffffffffffffffffffffffffffffffffffffff16601060009054906101000a900473ffffffffffffffffffffffffffffffffffffffff1673ffffffffffffffffffffffffffffffffffffffff16146120a8576040517f08c379a000000000000000000000000000000000000000000000000000000000815260040161209f90615087565b60405180910390fd5b80601a8190555050565b601c5481565b66038d7ea4c6800081565b60008073ffffffffffffffffffffffffffffffffffffffff168273ffffffffffffffffffffffffffffffffffffffff16141561212b576040517f8f4eb60400000000000000000000000000000000000000000000000000000000815260040160405180910390fd5b67ffffffffffffffff600560008473ffffffffffffffffffffffffffffffffffffffff1673ffffffffffffffffffffffffffffffffffffffff16815260200190815260200160002054169050919050565b600960009054906101000a900473ffffffffffffffffffffffffffffffffffffffff1673ffffffffffffffffffffffffffffffffffffffff163373ffffffffffffffffffffffffffffffffffffffff161461220c576040517f08c379a000000000000000000000000000000000000000000000000000000000815260040161220390615324565b60405180910390fd5b6000600860009054906101000a900473ffffffffffffffffffffffffffffffffffffffff16905033600860006101000a81548173ffffffffffffffffffffffffffffffffffffffff021916908373ffffffffffffffffffffffffffffffffffffffff1602179055506000600960006101000a81548173ffffffffffffffffffffffffffffffffffffffff021916908373ffffffffffffffffffffffffffffffffffffffff1602179055503373ffffffffffffffffffffffffffffffffffffffff168173ffffffffffffffffffffffffffffffffffffffff167f8be0079c531659141344cd1fd0a4f28419497f9722a3daafe3b4186f6b6457e060405160405180910390a350565b60115481565b601060149054906101000a900460ff16612368576040517f08c379a000000000000000000000000000000000000000000000000000000000815260040161235f90615390565b60405180910390fd5b612370613dec565b60135460115461238091906153b0565b106123c0576040517f08c379a00000000000000000000000000000000000000000000000000000000081526004016123b790615452565b60405180910390fd5b60008111612403576040517f08c379a00000000000000000000000000000000000000000000000000000000081526004016123fa906154be565b60405180910390fd5b601454811115612448576040517f08c379a000000000000000000000000000000000000000000000000000000000815260040161243f90615550565b60405180910390fd5b601554601660003373ffffffffffffffffffffffffffffffffffffffff1673ffffffffffffffffffffffffffffffffffffffff168152602001908152602001600020548261249691906153b0565b11156124d7576040517f08c379a00000000000000000000000000000000000000000000000000000000081526004016124ce906155e2565b60405180910390fd5b80601760008282546124e991906153b0565b9250508190555080601660003373ffffffffffffffffffffffffffffffffffffffff1673ffffffffffffffffffffffffffffffffffffffff168152602001908152602001600020600082825461253f91906153b0565b9250508190555060005b818110156125c5576018339080600181540180825580915050600190039060005260206000200160009091909190916101000a81548173ffffffffffffffffffffffffffffffffffffffff021916908373ffffffffffffffffffffffffffffffffffffffff160217905550806125be90615105565b9050612549565b50803373ffffffffffffffffffffffffffffffffffffffff167f88b4081bc2573b78164bf68e4df2ee32d3ad041325994feab80bd9f3a177211a60405160405180910390a350565b6018818154811061261d57600080fd5b906000526020600020016000915054906101000a900473ffffffffffffffffffffffffffffffffffffffff1681565b600b818154811061265c57600080fd5b906000526020600020016000915090505481565b6000600860009054906101000a900473ffffffffffffffffffffffffffffffffffffffff16905090565b3373ffffffffffffffffffffffffffffffffffffffff16601060009054906101000a900473ffffffffffffffffffffffffffffffffffffffff1673ffffffffffffffffffffffffffffffffffffffff161461272a576040517f08c379a000000000000000000000000000000000000000000000000000000000815260040161272190615087565b60405180910390fd5b6000600d60009054906101000a900473ffffffffffffffffffffffffffffffffffffffff1690508073ffffffffffffffffffffffffffffffffffffffff1663a9059cbb338373ffffffffffffffffffffffffffffffffffffffff166370a08231306040518263ffffffff1660e01b81526004016127a7919061480c565b60206040518083038186803b1580156127bf57600080fd5b505afa1580156127d3573d6000803e3d6000fd5b505050506040513d601f19601f820116820180604052508101906127f79190615617565b6040518363ffffffff1660e01b8152600401612814929190615644565b602060405180830381600087803b15801561282e57600080fd5b505af1158015612842573d6000803e3d6000fd5b505050506040513d601f19601f820116820180604052508101906128669190615682565b6128a5576040517f08c379a000000000000000000000000000000000000000000000000000000000815260040161289c906156fb565b60405180910390fd5b50565b6000801515600a6000600c54815260200190815260200160002060010160009054906101000a900460ff16151514156128e057600080fd5b601880549050600a6000600c548152602001908152602001600020600201600081548110612911576129106150a7565b5b9060005260206000200154612926919061574a565b905090565b600581565b6019818154811061294057600080fd5b906000526020600020016000915054906101000a900473ffffffffffffffffffffffffffffffffffffffff1681565b6000601a54905090565b60606003805461298890614fe3565b80601f01602080910402602001604051908101604052809291908181526020018280546129b490614fe3565b8015612a015780601f106129d657610100808354040283529160200191612a01565b820191906000526020600020905b8154815290600101906020018083116129e457829003601f168201915b5050505050905090565b600a6020528060005260406000206000915090508060000154908060010160009054906101000a900460ff16905082565b8060076000612a4961358f565b73ffffffffffffffffffffffffffffffffffffffff1673ffffffffffffffffffffffffffffffffffffffff16815260200190815260200160002060008473ffffffffffffffffffffffffffffffffffffffff1673ffffffffffffffffffffffffffffffffffffffff16815260200190815260200160002060006101000a81548160ff0219169083151502179055508173ffffffffffffffffffffffffffffffffffffffff16612af661358f565b73ffffffffffffffffffffffffffffffffffffffff167f17307eab39ab6107e8899845ad3d59bd9653f200f220920489ca2b5937696c3183604051612b3b9190614692565b60405180910390a35050565b601b8181548110612b5757600080fd5b906000526020600020016000915054906101000a900473ffffffffffffffffffffffffffffffffffffffff1681565b3373ffffffffffffffffffffffffffffffffffffffff16601060009054906101000a900473ffffffffffffffffffffffffffffffffffffffff1673ffffffffffffffffffffffffffffffffffffffff1614612c16576040517f08c379a0000000000000000000000000000000000000000000000000000000008152600401612c0d90615087565b60405180910390fd5b601060149054906101000a900460ff16612c65576040517f08c379a0000000000000000000000000000000000000000000000000000000008152600401612c5c906157c7565b60405180910390fd5b6000601060146101000a81548160ff02191690831515021790555042601281905550612c8f613dec565b601354601154612c9f91906153b0565b1015612cc057601354601154612cb591906153b0565b601281905550612cc8565b426012819055505b601254612cd3613dec565b7ff0fcbc0076696dba8c2b6bd5b039faa5f8a5743ef0b895335badfe8adcc928df60405160405180910390a3565b60003373ffffffffffffffffffffffffffffffffffffffff16601060009054906101000a900473ffffffffffffffffffffffffffffffffffffffff1673ffffffffffffffffffffffffffffffffffffffff1614612d93576040517f08c379a0000000000000000000000000000000000000000000000000000000008152600401612d8a90615087565b60405180910390fd5b601880549050600a6000600c548152602001908152602001600020600201600081548110612dc457612dc36150a7565b5b9060005260206000200154612dd9919061574a565b601a81905550601a54905090565b60125481565b612df8848484611501565b60008373ffffffffffffffffffffffffffffffffffffffff163b14612e5a57612e2384848484613e12565b612e59576040517fd1a57ed600000000000000000000000000000000000000000000000000000000815260040160405180910390fd5b5b50505050565b6060612e6b82613530565b612ea1576040517fa14c4b5000000000000000000000000000000000000000000000000000000000815260040160405180910390fd5b6000612eab613f72565b9050600081511415612ecc5760405180602001604052806000815250612ef7565b80612ed684614004565b604051602001612ee7929190615823565b6040516020818303038152906040525b915050919050565b60135481565b600060188281548110612f1b57612f1a6150a7565b5b9060005260206000200160009054906101000a900473ffffffffffffffffffffffffffffffffffffffff169050919050565b60008060606000600a60008681526020019081526020016000206000015411612fab576040517f08c379a0000000000000000000000000000000000000000000000000000000008152600401612fa290615893565b60405180910390fd5b6000600a6000868152602001908152602001600020604051806060016040529081600082015481526020016001820160009054906101000a900460ff161515151581526020016002820180548060200260200160405190810160405280929190818152602001828054801561303f57602002820191906000526020600020905b81548152602001906001019080831161302b575b5050505050815250509050806000015181602001518260400151935093509350509193909250565b6060601b8054806020026020016040519081016040528092919081815260200182805480156130eb57602002820191906000526020600020905b8160009054906101000a900473ffffffffffffffffffffffffffffffffffffffff1673ffffffffffffffffffffffffffffffffffffffff16815260200190600101908083116130a1575b5050505050905090565b60003373ffffffffffffffffffffffffffffffffffffffff16601060009054906101000a900473ffffffffffffffffffffffffffffffffffffffff1673ffffffffffffffffffffffffffffffffffffffff1614613187576040517f08c379a000000000000000000000000000000000000000000000000000000000815260040161317e90615087565b60405180910390fd5b6131c6600e60149054906101000a900463ffffffff16600e60189054906101000a900461ffff16600e601a9054906101000a900463ffffffff1661405d565b905060405180606001604052807f000000000000000000000000000000000000000000000000000000000000000073ffffffffffffffffffffffffffffffffffffffff16634306d354600e60149054906101000a900463ffffffff166040518263ffffffff1660e01b815260040161323e91906158d2565b60206040518083038186803b15801561325657600080fd5b505afa15801561326a573d6000803e3d6000fd5b505050506040513d601f19601f8201168201806040525081019061328e9190615617565b8152602001600015158152602001600067ffffffffffffffff8111156132b7576132b66148ef565b5b6040519080825280602002602001820160405280156132e55781602001602082028036833780820191505090505b50815250600a60008381526020019081526020016000206000820151816000015560208201518160010160006101000a81548160ff0219169083151502179055506040820151816002019080519060200190613342929190614501565b50905050600b81908060018154018082558091505060019003906000526020600020016000909190919091505580600c819055507fcc58b13ad3eab50626c6a6300b1d139cd6ebb1688a7cced9461c2f7e762665ee81600e601a9054906101000a900463ffffffff166040516133b99291906158ed565b60405180910390a190565b6000600760008473ffffffffffffffffffffffffffffffffffffffff1673ffffffffffffffffffffffffffffffffffffffff16815260200190815260200160002060008373ffffffffffffffffffffffffffffffffffffffff1673ffffffffffffffffffffffffffffffffffffffff16815260200190815260200160002060009054906101000a900460ff16905092915050565b60155481565b601060149054906101000a900460ff1681565b6134796142a1565b61348281614333565b50565b600281565b3373ffffffffffffffffffffffffffffffffffffffff16601060009054906101000a900473ffffffffffffffffffffffffffffffffffffffff1673ffffffffffffffffffffffffffffffffffffffff161461351a576040517f08c379a000000000000000000000000000000000000000000000000000000000815260040161351190615087565b60405180910390fd5b8060138190555050565b60145481565b600c5481565b60008161353b613597565b1115801561354a575060005482105b8015613588575060007c0100000000000000000000000000000000000000000000000000000000600460008581526020019081526020016000205416145b9050919050565b600033905090565b600090565b60003373ffffffffffffffffffffffffffffffffffffffff16601060009054906101000a900473ffffffffffffffffffffffffffffffffffffffff1673ffffffffffffffffffffffffffffffffffffffff161461362e576040517f08c379a000000000000000000000000000000000000000000000000000000000815260040161362590615087565b60405180910390fd5b600060198054905060018561364391906153b0565b84604051602001613655929190615937565b6040516020818303038152906040528051906020012060001c613678919061574a565b90508091505092915050565b6000600a600084815260200190815260200160002060000154116136dd576040517f08c379a00000000000000000000000000000000000000000000000000000000081526004016136d490615893565b60405180910390fd5b6001600a600084815260200190815260200160002060010160006101000a81548160ff02191690831515021790555080600a60008481526020019081526020016000206002019080519060200190613736929190614501565b507f147eb1ff0c82f87f2b03e2c43f5a36488ff63ec6b730195fde4605f612f8db518282600a60008681526020019081526020016000206000015460405161378093929190615963565b60405180910390a15050565b3373ffffffffffffffffffffffffffffffffffffffff16601060009054906101000a900473ffffffffffffffffffffffffffffffffffffffff1673ffffffffffffffffffffffffffffffffffffffff161461381c576040517f08c379a000000000000000000000000000000000000000000000000000000000815260040161381390615087565b60405180910390fd5b601b600061382a919061454e565b565b3373ffffffffffffffffffffffffffffffffffffffff16601060009054906101000a900473ffffffffffffffffffffffffffffffffffffffff1673ffffffffffffffffffffffffffffffffffffffff16146138bc576040517f08c379a00000000000000000000000000000000000000000000000000000000081526004016138b390615087565b60405180910390fd5b601860199080546138ce92919061456f565b50565b600080829050806138e0613597565b11613968576000548110156139675760006004600083815260200190815260200160002054905060007c010000000000000000000000000000000000000000000000000000000082161415613965575b600081141561395b576004600083600190039350838152602001908152602001600020549050613930565b809250505061399a565b505b5b6040517fdf2d9b4200000000000000000000000000000000000000000000000000000000815260040160405180910390fd5b919050565b60008060006006600085815260200190815260200160002090508092508254915050915091565b600073ffffffffffffffffffffffffffffffffffffffff8316925073ffffffffffffffffffffffffffffffffffffffff821691508382148383141790509392505050565b50505050565b60008060e883901c905060e8613a27868684614462565b62ffffff16901b9150509392505050565b600073ffffffffffffffffffffffffffffffffffffffff83169250814260a01b178317905092915050565b50505050565b6000805490506000821415613aaa576040517fb562e8dd00000000000000000000000000000000000000000000000000000000815260040160405180910390fd5b613ab76000848385613a0a565b600160406001901b178202600560008573ffffffffffffffffffffffffffffffffffffffff1673ffffffffffffffffffffffffffffffffffffffff16815260200190815260200160002060008282540192505081905550613b2e83613b1f6000866000613a10565b613b288561446b565b17613a38565b6004600083815260200190815260200160002081905550600080838301905073ffffffffffffffffffffffffffffffffffffffff85169150828260007fddf252ad1be2c89b69c2b068fc378daa952ba7f163c4a11628f55a4df523b3ef600080a4600183015b818114613bcf57808360007fddf252ad1be2c89b69c2b068fc378daa952ba7f163c4a11628f55a4df523b3ef600080a4600181019050613b94565b506000821415613c0b576040517f2e07630000000000000000000000000000000000000000000000000000000000815260040160405180910390fd5b806000819055505050613c216000848385613a63565b505050565b3373ffffffffffffffffffffffffffffffffffffffff16601060009054906101000a900473ffffffffffffffffffffffffffffffffffffffff1673ffffffffffffffffffffffffffffffffffffffff1614613cb6576040517f08c379a0000000000000000000000000000000000000000000000000000000008152600401613cad90615087565b60405180910390fd5b6019805490508110613cc757613de9565b60008190505b6001601980549050613cdf91906159a1565b811015613da0576019600182613cf591906153b0565b81548110613d0657613d056150a7565b5b9060005260206000200160009054906101000a900473ffffffffffffffffffffffffffffffffffffffff1660198281548110613d4557613d446150a7565b5b9060005260206000200160006101000a81548173ffffffffffffffffffffffffffffffffffffffff021916908373ffffffffffffffffffffffffffffffffffffffff1602179055508080613d9890615105565b915050613ccd565b506019805480613db357613db26159d5565b5b6001900381819060005260206000200160006101000a81549073ffffffffffffffffffffffffffffffffffffffff021916905590555b50565b60008060115411613dfe576000613e0d565b60115442613e0c91906159a1565b5b905090565b60008373ffffffffffffffffffffffffffffffffffffffff1663150b7a02613e3861358f565b8786866040518563ffffffff1660e01b8152600401613e5a9493929190615a59565b602060405180830381600087803b158015613e7457600080fd5b505af1925050508015613ea557506040513d601f19601f82011682018060405250810190613ea29190615aba565b60015b613f1f573d8060008114613ed5576040519150601f19603f3d011682016040523d82523d6000602084013e613eda565b606091505b50600081511415613f17576040517fd1a57ed600000000000000000000000000000000000000000000000000000000815260040160405180910390fd5b805181602001fd5b63150b7a0260e01b7bffffffffffffffffffffffffffffffffffffffffffffffffffffffff1916817bffffffffffffffffffffffffffffffffffffffffffffffffffffffff191614915050949350505050565b6060600f8054613f8190614fe3565b80601f0160208091040260200160405190810160405280929190818152602001828054613fad90614fe3565b8015613ffa5780601f10613fcf57610100808354040283529160200191613ffa565b820191906000526020600020905b815481529060010190602001808311613fdd57829003601f168201915b5050505050905090565b606060a060405101806040526020810391506000825281835b60011561404857600184039350600a81066030018453600a810490508061404357614048565b61401d565b50828103602084039350808452505050919050565b60007f000000000000000000000000000000000000000000000000000000000000000073ffffffffffffffffffffffffffffffffffffffff16634000aea07f00000000000000000000000000000000000000000000000000000000000000007f000000000000000000000000000000000000000000000000000000000000000073ffffffffffffffffffffffffffffffffffffffff16634306d354886040518263ffffffff1660e01b815260040161411591906158d2565b60206040518083038186803b15801561412d57600080fd5b505afa158015614141573d6000803e3d6000fd5b505050506040513d601f19601f820116820180604052508101906141659190615617565b87878760405160200161417a93929190615b04565b6040516020818303038152906040526040518463ffffffff1660e01b81526004016141a793929190615b3b565b602060405180830381600087803b1580156141c157600080fd5b505af11580156141d5573d6000803e3d6000fd5b505050506040513d601f19601f820116820180604052508101906141f99190615682565b507f000000000000000000000000000000000000000000000000000000000000000073ffffffffffffffffffffffffffffffffffffffff1663fc2a88c36040518163ffffffff1660e01b815260040160206040518083038186803b15801561426057600080fd5b505afa158015614274573d6000803e3d6000fd5b505050506040513d601f19601f820116820180604052508101906142989190615617565b90509392505050565b600860009054906101000a900473ffffffffffffffffffffffffffffffffffffffff1673ffffffffffffffffffffffffffffffffffffffff163373ffffffffffffffffffffffffffffffffffffffff1614614331576040517f08c379a000000000000000000000000000000000000000000000000000000000815260040161432890615bc5565b60405180910390fd5b565b3373ffffffffffffffffffffffffffffffffffffffff168173ffffffffffffffffffffffffffffffffffffffff1614156143a2576040517f08c379a000000000000000000000000000000000000000000000000000000000815260040161439990615c31565b60405180910390fd5b80600960006101000a81548173ffffffffffffffffffffffffffffffffffffffff021916908373ffffffffffffffffffffffffffffffffffffffff1602179055508073ffffffffffffffffffffffffffffffffffffffff16600860009054906101000a900473ffffffffffffffffffffffffffffffffffffffff1673ffffffffffffffffffffffffffffffffffffffff167fed8889f560326eb138920d842192f0eb3dd22b4f139c87a2c57538e05bae127860405160405180910390a350565b60009392505050565b60006001821460e11b9050919050565b82805461448790614fe3565b90600052602060002090601f0160209004810192826144a957600085556144f0565b82601f106144c257805160ff19168380011785556144f0565b828001600101855582156144f0579182015b828111156144ef5782518255916020019190600101906144d4565b5b5090506144fd91906145c1565b5090565b82805482825590600052602060002090810192821561453d579160200282015b8281111561453c578251825591602001919060010190614521565b5b50905061454a91906145c1565b5090565b508054600082559060005260206000209081019061456c91906145c1565b50565b8280548282559060005260206000209081019282156145b05760005260206000209182015b828111156145af578254825591600101919060010190614594565b5b5090506145bd91906145c1565b5090565b5b808211156145da5760008160009055506001016145c2565b5090565b6000604051905090565b600080fd5b600080fd5b60007fffffffff0000000000000000000000000000000000000000000000000000000082169050919050565b614627816145f2565b811461463257600080fd5b50565b6000813590506146448161461e565b92915050565b6000602082840312156146605761465f6145e8565b5b600061466e84828501614635565b91505092915050565b60008115159050919050565b61468c81614677565b82525050565b60006020820190506146a76000830184614683565b92915050565b600081519050919050565b600082825260208201905092915050565b60005b838110156146e75780820151818401526020810190506146cc565b838111156146f6576000848401525b50505050565b6000601f19601f8301169050919050565b6000614718826146ad565b61472281856146b8565b93506147328185602086016146c9565b61473b816146fc565b840191505092915050565b60006020820190508181036000830152614760818461470d565b905092915050565b6000819050919050565b61477b81614768565b811461478657600080fd5b50565b60008135905061479881614772565b92915050565b6000602082840312156147b4576147b36145e8565b5b60006147c284828501614789565b91505092915050565b600073ffffffffffffffffffffffffffffffffffffffff82169050919050565b60006147f6826147cb565b9050919050565b614806816147eb565b82525050565b600060208201905061482160008301846147fd565b92915050565b614830816147eb565b811461483b57600080fd5b50565b60008135905061484d81614827565b92915050565b600060208284031215614869576148686145e8565b5b60006148778482850161483e565b91505092915050565b61488981614768565b82525050565b60006020820190506148a46000830184614880565b92915050565b600080604083850312156148c1576148c06145e8565b5b60006148cf8582860161483e565b92505060206148e085828601614789565b9150509250929050565b600080fd5b7f4e487b7100000000000000000000000000000000000000000000000000000000600052604160045260246000fd5b614927826146fc565b810181811067ffffffffffffffff82111715614946576149456148ef565b5b80604052505050565b60006149596145de565b9050614965828261491e565b919050565b600067ffffffffffffffff821115614985576149846148ef565b5b602082029050602081019050919050565b600080fd5b60006149ae6149a98461496a565b61494f565b905080838252602082019050602084028301858111156149d1576149d0614996565b5b835b818110156149fa57806149e68882614789565b8452602084019350506020810190506149d3565b5050509392505050565b600082601f830112614a1957614a186148ea565b5b8135614a2984826020860161499b565b91505092915050565b60008060408385031215614a4957614a486145e8565b5b6000614a5785828601614789565b925050602083013567ffffffffffffffff811115614a7857614a776145ed565b5b614a8485828601614a04565b9150509250929050565b600080600060608486031215614aa757614aa66145e8565b5b6000614ab58682870161483e565b9350506020614ac68682870161483e565b9250506040614ad786828701614789565b9150509250925092565b600080fd5b600067ffffffffffffffff821115614b0157614b006148ef565b5b614b0a826146fc565b9050602081019050919050565b82818337600083830152505050565b6000614b39614b3484614ae6565b61494f565b905082815260208101848484011115614b5557614b54614ae1565b5b614b60848285614b17565b509392505050565b600082601f830112614b7d57614b7c6148ea565b5b8135614b8d848260208601614b26565b91505092915050565b600060208284031215614bac57614bab6145e8565b5b600082013567ffffffffffffffff811115614bca57614bc96145ed565b5b614bd684828501614b68565b91505092915050565b600081519050919050565b600082825260208201905092915050565b6000819050602082019050919050565b614c14816147eb565b82525050565b6000614c268383614c0b565b60208301905092915050565b6000602082019050919050565b6000614c4a82614bdf565b614c548185614bea565b9350614c5f83614bfb565b8060005b83811015614c90578151614c778882614c1a565b9750614c8283614c32565b925050600181019050614c63565b5085935050505092915050565b60006020820190508181036000830152614cb78184614c3f565b905092915050565b6000604082019050614cd46000830185614880565b614ce16020830184614683565b9392505050565b614cf181614677565b8114614cfc57600080fd5b50565b600081359050614d0e81614ce8565b92915050565b60008060408385031215614d2b57614d2a6145e8565b5b6000614d398582860161483e565b9250506020614d4a85828601614cff565b9150509250929050565b600067ffffffffffffffff821115614d6f57614d6e6148ef565b5b614d78826146fc565b9050602081019050919050565b6000614d98614d9384614d54565b61494f565b905082815260208101848484011115614db457614db3614ae1565b5b614dbf848285614b17565b509392505050565b600082601f830112614ddc57614ddb6148ea565b5b8135614dec848260208601614d85565b91505092915050565b60008060008060808587031215614e0f57614e0e6145e8565b5b6000614e1d8782880161483e565b9450506020614e2e8782880161483e565b9350506040614e3f87828801614789565b925050606085013567ffffffffffffffff811115614e6057614e5f6145ed565b5b614e6c87828801614dc7565b91505092959194509250565b600081519050919050565b600082825260208201905092915050565b6000819050602082019050919050565b614ead81614768565b82525050565b6000614ebf8383614ea4565b60208301905092915050565b6000602082019050919050565b6000614ee382614e78565b614eed8185614e83565b9350614ef883614e94565b8060005b83811015614f29578151614f108882614eb3565b9750614f1b83614ecb565b925050600181019050614efc565b5085935050505092915050565b6000606082019050614f4b6000830186614880565b614f586020830185614683565b8181036040830152614f6a8184614ed8565b9050949350505050565b60008060408385031215614f8b57614f8a6145e8565b5b6000614f998582860161483e565b9250506020614faa8582860161483e565b9150509250929050565b7f4e487b7100000000000000000000000000000000000000000000000000000000600052602260045260246000fd5b60006002820490506001821680614ffb57607f821691505b6020821081141561500f5761500e614fb4565b5b50919050565b7f4f6e6c79206f70657261746f722063616e2063616c6c2074686973206d65746860008201527f6f64000000000000000000000000000000000000000000000000000000000000602082015250565b60006150716022836146b8565b915061507c82615015565b604082019050919050565b600060208201905081810360008301526150a081615064565b9050919050565b7f4e487b7100000000000000000000000000000000000000000000000000000000600052603260045260246000fd5b7f4e487b7100000000000000000000000000000000000000000000000000000000600052601160045260246000fd5b600061511082614768565b91507fffffffffffffffffffffffffffffffffffffffffffffffffffffffffffffffff821415615143576151426150d6565b5b600182019050919050565b7f6f6e6c792056524620563220777261707065722063616e2066756c66696c6c00600082015250565b6000615184601f836146b8565b915061518f8261514e565b602082019050919050565b600060208201905081810360008301526151b381615177565b9050919050565b600081905092915050565b50565b60006151d56000836151ba565b91506151e0826151c5565b600082019050919050565b60006151f6826151c8565b9150819050919050565b7f4661696c656420746f207472616e736665722045544800000000000000000000600082015250565b60006152366016836146b8565b915061524182615200565b602082019050919050565b6000602082019050818103600083015261526581615229565b9050919050565b7f4c61756e636820616c7265616479207374617274656400000000000000000000600082015250565b60006152a26016836146b8565b91506152ad8261526c565b602082019050919050565b600060208201905081810360008301526152d181615295565b9050919050565b7f4d7573742062652070726f706f736564206f776e657200000000000000000000600082015250565b600061530e6016836146b8565b9150615319826152d8565b602082019050919050565b6000602082019050818103600083015261533d81615301565b9050919050565b7f4c61756368206973206e6f742079657420737461727465640000000000000000600082015250565b600061537a6018836146b8565b915061538582615344565b602082019050919050565b600060208201905081810360008301526153a98161536d565b9050919050565b60006153bb82614768565b91506153c683614768565b9250827fffffffffffffffffffffffffffffffffffffffffffffffffffffffffffffffff038211156153fb576153fa6150d6565b5b828201905092915050565b7f4c61756e63682077617320636c6f736564000000000000000000000000000000600082015250565b600061543c6011836146b8565b915061544782615406565b602082019050919050565b6000602082019050818103600083015261546b8161542f565b9050919050565b7f536574206174206c65617374206f6e6500000000000000000000000000000000600082015250565b60006154a86010836146b8565b91506154b382615472565b602082019050919050565b600060208201905081810360008301526154d78161549b565b9050919050565b7f5469636b65747320696e2061207472616e73616374696f6e2073686f756c642060008201527f6e6f7420657863656564204d41585f5045525f54580000000000000000000000602082015250565b600061553a6035836146b8565b9150615545826154de565b604082019050919050565b600060208201905081810360008301526155698161552d565b9050919050565b7f416e20616464726573732063616e6e6f7420627579204e465420726166666c6560008201527f207469636b657473206d6f7265207468616e204d41585f5045525f4144445200602082015250565b60006155cc603f836146b8565b91506155d782615570565b604082019050919050565b600060208201905081810360008301526155fb816155bf565b9050919050565b60008151905061561181614772565b92915050565b60006020828403121561562d5761562c6145e8565b5b600061563b84828501615602565b91505092915050565b600060408201905061565960008301856147fd565b6156666020830184614880565b9392505050565b60008151905061567c81614ce8565b92915050565b600060208284031215615698576156976145e8565b5b60006156a68482850161566d565b91505092915050565b7f556e61626c6520746f207472616e736665720000000000000000000000000000600082015250565b60006156e56012836146b8565b91506156f0826156af565b602082019050919050565b60006020820190508181036000830152615714816156d8565b9050919050565b7f4e487b7100000000000000000000000000000000000000000000000000000000600052601260045260246000fd5b600061575582614768565b915061576083614768565b9250826157705761576f61571b565b5b828206905092915050565b7f4c61756e6368206973206e6f7420796574207374617274656400000000000000600082015250565b60006157b16019836146b8565b91506157bc8261577b565b602082019050919050565b600060208201905081810360008301526157e0816157a4565b9050919050565b600081905092915050565b60006157fd826146ad565b61580781856157e7565b93506158178185602086016146c9565b80840191505092915050565b600061582f82856157f2565b915061583b82846157f2565b91508190509392505050565b7f72657175657374206e6f7420666f756e64000000000000000000000000000000600082015250565b600061587d6011836146b8565b915061588882615847565b602082019050919050565b600060208201905081810360008301526158ac81615870565b9050919050565b600063ffffffff82169050919050565b6158cc816158b3565b82525050565b60006020820190506158e760008301846158c3565b92915050565b60006040820190506159026000830185614880565b61590f60208301846158c3565b9392505050565b6000819050919050565b61593161592c82614768565b615916565b82525050565b60006159438285615920565b6020820191506159538284615920565b6020820191508190509392505050565b60006060820190506159786000830186614880565b818103602083015261598a8185614ed8565b90506159996040830184614880565b949350505050565b60006159ac82614768565b91506159b783614768565b9250828210156159ca576159c96150d6565b5b828203905092915050565b7f4e487b7100000000000000000000000000000000000000000000000000000000600052603160045260246000fd5b600081519050919050565b600082825260208201905092915050565b6000615a2b82615a04565b615a358185615a0f565b9350615a458185602086016146c9565b615a4e816146fc565b840191505092915050565b6000608082019050615a6e60008301876147fd565b615a7b60208301866147fd565b615a886040830185614880565b8181036060830152615a9a8184615a20565b905095945050505050565b600081519050615ab48161461e565b92915050565b600060208284031215615ad057615acf6145e8565b5b6000615ade84828501615aa5565b91505092915050565b600061ffff82169050919050565b615afe81615ae7565b82525050565b6000606082019050615b1960008301866158c3565b615b266020830185615af5565b615b3360408301846158c3565b949350505050565b6000606082019050615b5060008301866147fd565b615b5d6020830185614880565b8181036040830152615b6f8184615a20565b9050949350505050565b7f4f6e6c792063616c6c61626c65206279206f776e657200000000000000000000600082015250565b6000615baf6016836146b8565b9150615bba82615b79565b602082019050919050565b60006020820190508181036000830152615bde81615ba2565b9050919050565b7f43616e6e6f74207472616e7366657220746f2073656c66000000000000000000600082015250565b6000615c1b6017836146b8565b9150615c2682615be5565b602082019050919050565b60006020820190508181036000830152615c4a81615c0e565b905091905056fea26469706673582212208d90130c471f04f2f9f925fde3fc1b008ce4181f865cf844bede561107dbb61064736f6c63430008090033",
  "linkReferences": {},
  "deployedLinkReferences": {}
}