{
  "_format": "hh-sol-artifact-1",
  "contractName": "TestGas",
  "sourceName": "contracts/TestGas.sol",
  "abi": [
    {
      "inputs": [],
      "stateMutability": "payable",
      "type": "constructor"
    },
    {
      "inputs": [],
      "name": "ApprovalCallerNotOwnerNorApproved",
      "type": "error"
    },
    {
      "inputs": [],
      "name": "ApprovalQueryForNonexistentToken",
      "type": "error"
    },
    {
      "inputs": [],
      "name": "BalanceQueryForZeroAddress",
      "type": "error"
    },
    {
      "inputs": [],
      "name": "MintERC2309QuantityExceedsLimit",
      "type": "error"
    },
    {
      "inputs": [],
      "name": "MintToZeroAddress",
      "type": "error"
    },
    {
      "inputs": [],
      "name": "MintZeroQuantity",
      "type": "error"
    },
    {
      "inputs": [],
      "name": "OwnerQueryForNonexistentToken",
      "type": "error"
    },
    {
      "inputs": [],
      "name": "OwnershipNotInitializedForExtraData",
      "type": "error"
    },
    {
      "inputs": [],
      "name": "TransferCallerNotOwnerNorApproved",
      "type": "error"
    },
    {
      "inputs": [],
      "name": "TransferFromIncorrectOwner",
      "type": "error"
    },
    {
      "inputs": [],
      "name": "TransferToNonERC721ReceiverImplementer",
      "type": "error"
    },
    {
      "inputs": [],
      "name": "TransferToZeroAddress",
      "type": "error"
    },
    {
      "inputs": [],
      "name": "URIQueryForNonexistentToken",
      "type": "error"
    },
    {
      "anonymous": false,
      "inputs": [
        {
          "indexed": true,
          "internalType": "address",
          "name": "owner",
          "type": "address"
        },
        {
          "indexed": true,
          "internalType": "address",
          "name": "approved",
          "type": "address"
        },
        {
          "indexed": true,
          "internalType": "uint256",
          "name": "tokenId",
          "type": "uint256"
        }
      ],
      "name": "Approval",
      "type": "event"
    },
    {
      "anonymous": false,
      "inputs": [
        {
          "indexed": true,
          "internalType": "address",
          "name": "owner",
          "type": "address"
        },
        {
          "indexed": true,
          "internalType": "address",
          "name": "operator",
          "type": "address"
        },
        {
          "indexed": false,
          "internalType": "bool",
          "name": "approved",
          "type": "bool"
        }
      ],
      "name": "ApprovalForAll",
      "type": "event"
    },
    {
      "anonymous": false,
      "inputs": [
        {
          "indexed": true,
          "internalType": "uint256",
          "name": "fromTokenId",
          "type": "uint256"
        },
        {
          "indexed": false,
          "internalType": "uint256",
          "name": "toTokenId",
          "type": "uint256"
        },
        {
          "indexed": true,
          "internalType": "address",
          "name": "from",
          "type": "address"
        },
        {
          "indexed": true,
          "internalType": "address",
          "name": "to",
          "type": "address"
        }
      ],
      "name": "ConsecutiveTransfer",
      "type": "event"
    },
    {
      "anonymous": false,
      "inputs": [
        {
          "indexed": true,
          "internalType": "uint256",
          "name": "_Duration",
          "type": "uint256"
        },
        {
          "indexed": true,
          "internalType": "uint256",
          "name": "_startTime",
          "type": "uint256"
        }
      ],
      "name": "LaunchStart",
      "type": "event"
    },
    {
      "anonymous": false,
      "inputs": [
        {
          "indexed": true,
          "internalType": "uint256",
          "name": "_timeElapsed",
          "type": "uint256"
        },
        {
          "indexed": true,
          "internalType": "uint256",
          "name": "_endTime",
          "type": "uint256"
        }
      ],
      "name": "LaunchStop",
      "type": "event"
    },
    {
      "anonymous": false,
      "inputs": [
        {
          "indexed": true,
          "internalType": "address",
          "name": "from",
          "type": "address"
        },
        {
          "indexed": true,
          "internalType": "address",
          "name": "to",
          "type": "address"
        }
      ],
      "name": "OwnershipTransferRequested",
      "type": "event"
    },
    {
      "anonymous": false,
      "inputs": [
        {
          "indexed": true,
          "internalType": "address",
          "name": "from",
          "type": "address"
        },
        {
          "indexed": true,
          "internalType": "address",
          "name": "to",
          "type": "address"
        }
      ],
      "name": "OwnershipTransferred",
      "type": "event"
    },
    {
      "anonymous": false,
      "inputs": [
        {
          "indexed": true,
          "internalType": "address",
          "name": "sender",
          "type": "address"
        },
        {
          "indexed": true,
          "internalType": "uint256",
          "name": "num",
          "type": "uint256"
        }
      ],
      "name": "ParticipateIn",
      "type": "event"
    },
    {
      "anonymous": false,
      "inputs": [
        {
          "indexed": false,
          "internalType": "uint256",
          "name": "requestId",
          "type": "uint256"
        },
        {
          "indexed": false,
          "internalType": "uint256[]",
          "name": "randomWords",
          "type": "uint256[]"
        },
        {
          "indexed": false,
          "internalType": "uint256",
          "name": "payment",
          "type": "uint256"
        }
      ],
      "name": "RequestFulfilled",
      "type": "event"
    },
    {
      "anonymous": false,
      "inputs": [
        {
          "indexed": false,
          "internalType": "uint256",
          "name": "requestId",
          "type": "uint256"
        },
        {
          "indexed": false,
          "internalType": "uint32",
          "name": "numWords",
          "type": "uint32"
        }
      ],
      "name": "RequestSent",
      "type": "event"
    },
    {
      "anonymous": false,
      "inputs": [
        {
          "indexed": true,
          "internalType": "address",
          "name": "from",
          "type": "address"
        },
        {
          "indexed": true,
          "internalType": "address",
          "name": "to",
          "type": "address"
        },
        {
          "indexed": true,
          "internalType": "uint256",
          "name": "tokenId",
          "type": "uint256"
        }
      ],
      "name": "Transfer",
      "type": "event"
    },
    {
      "inputs": [],
      "name": "MAX_PER_ADDR",
      "outputs": [
        {
          "internalType": "uint256",
          "name": "",
          "type": "uint256"
        }
      ],
      "stateMutability": "view",
      "type": "function"
    },
    {
      "inputs": [],
      "name": "MAX_PER_TX",
      "outputs": [
        {
          "internalType": "uint256",
          "name": "",
          "type": "uint256"
        }
      ],
      "stateMutability": "view",
      "type": "function"
    },
    {
      "inputs": [],
      "name": "PRICE_PER_TICKET",
      "outputs": [
        {
          "internalType": "uint256",
          "name": "",
          "type": "uint256"
        }
      ],
      "stateMutability": "view",
      "type": "function"
    },
    {
      "inputs": [],
      "name": "TOTAL_SUPPLY",
      "outputs": [
        {
          "internalType": "uint256",
          "name": "",
          "type": "uint256"
        }
      ],
      "stateMutability": "view",
      "type": "function"
    },
    {
      "inputs": [],
      "name": "acceptOwnership",
      "outputs": [],
      "stateMutability": "nonpayable",
      "type": "function"
    },
    {
      "inputs": [
        {
          "internalType": "address",
          "name": "to",
          "type": "address"
        },
        {
          "internalType": "uint256",
          "name": "tokenId",
          "type": "uint256"
        }
      ],
      "name": "approve",
      "outputs": [],
      "stateMutability": "payable",
      "type": "function"
    },
    {
      "inputs": [
        {
          "internalType": "address",
          "name": "owner",
          "type": "address"
        }
      ],
      "name": "balanceOf",
      "outputs": [
        {
          "internalType": "uint256",
          "name": "",
          "type": "uint256"
        }
      ],
      "stateMutability": "view",
      "type": "function"
    },
    {
      "inputs": [],
      "name": "calcuateRandomSeed",
      "outputs": [
        {
          "internalType": "uint256",
          "name": "",
          "type": "uint256"
        }
      ],
      "stateMutability": "nonpayable",
      "type": "function"
    },
    {
      "inputs": [],
      "name": "calculateRandomSeed",
      "outputs": [
        {
          "internalType": "uint256",
          "name": "result",
          "type": "uint256"
        }
      ],
      "stateMutability": "view",
      "type": "function"
    },
    {
      "inputs": [
        {
          "internalType": "address",
          "name": "",
          "type": "address"
        }
      ],
      "name": "countOfwins",
      "outputs": [
        {
          "internalType": "uint256",
          "name": "",
          "type": "uint256"
        }
      ],
      "stateMutability": "view",
      "type": "function"
    },
    {
      "inputs": [],
      "name": "durationOfLaunch",
      "outputs": [
        {
          "internalType": "uint256",
          "name": "",
          "type": "uint256"
        }
      ],
      "stateMutability": "view",
      "type": "function"
    },
    {
      "inputs": [
        {
          "internalType": "uint256",
          "name": "tokenId",
          "type": "uint256"
        }
      ],
      "name": "getApproved",
      "outputs": [
        {
          "internalType": "address",
          "name": "",
          "type": "address"
        }
      ],
      "stateMutability": "view",
      "type": "function"
    },
    {
      "inputs": [],
      "name": "getParticipants",
      "outputs": [
        {
          "internalType": "address[]",
          "name": "",
          "type": "address[]"
        }
      ],
      "stateMutability": "view",
      "type": "function"
    },
    {
      "inputs": [],
      "name": "getRandomSeed",
      "outputs": [
        {
          "internalType": "uint256",
          "name": "",
          "type": "uint256"
        }
      ],
      "stateMutability": "view",
      "type": "function"
    },
    {
      "inputs": [
        {
          "internalType": "uint256",
          "name": "_requestId",
          "type": "uint256"
        }
      ],
      "name": "getRequestStatus",
      "outputs": [
        {
          "internalType": "uint256",
          "name": "paid",
          "type": "uint256"
        },
        {
          "internalType": "bool",
          "name": "fulfilled",
          "type": "bool"
        },
        {
          "internalType": "uint256[]",
          "name": "randomWords",
          "type": "uint256[]"
        }
      ],
      "stateMutability": "view",
      "type": "function"
    },
    {
      "inputs": [],
      "name": "getWinners",
      "outputs": [
        {
          "internalType": "address[]",
          "name": "",
          "type": "address[]"
        }
      ],
      "stateMutability": "view",
      "type": "function"
    },
    {
      "inputs": [],
      "name": "initAll",
      "outputs": [],
      "stateMutability": "nonpayable",
      "type": "function"
    },
    {
      "inputs": [
        {
          "internalType": "address",
          "name": "owner",
          "type": "address"
        },
        {
          "internalType": "address",
          "name": "operator",
          "type": "address"
        }
      ],
      "name": "isApprovedForAll",
      "outputs": [
        {
          "internalType": "bool",
          "name": "",
          "type": "bool"
        }
      ],
      "stateMutability": "view",
      "type": "function"
    },
    {
      "inputs": [],
      "name": "isParticipateActive",
      "outputs": [
        {
          "internalType": "bool",
          "name": "",
          "type": "bool"
        }
      ],
      "stateMutability": "view",
      "type": "function"
    },
    {
      "inputs": [],
      "name": "lastRequestId",
      "outputs": [
        {
          "internalType": "uint256",
          "name": "",
          "type": "uint256"
        }
      ],
      "stateMutability": "view",
      "type": "function"
    },
    {
      "inputs": [],
      "name": "launchStartTime",
      "outputs": [
        {
          "internalType": "uint256",
          "name": "",
          "type": "uint256"
        }
      ],
      "stateMutability": "view",
      "type": "function"
    },
    {
      "inputs": [],
      "name": "launchStopTime",
      "outputs": [
        {
          "internalType": "uint256",
          "name": "",
          "type": "uint256"
        }
      ],
      "stateMutability": "view",
      "type": "function"
    },
    {
      "inputs": [
        {
          "internalType": "uint256",
          "name": "",
          "type": "uint256"
        }
      ],
      "name": "listOfParticipants",
      "outputs": [
        {
          "internalType": "address",
          "name": "",
          "type": "address"
        }
      ],
      "stateMutability": "view",
      "type": "function"
    },
    {
      "inputs": [],
      "name": "maxPerAddr",
      "outputs": [
        {
          "internalType": "uint256",
          "name": "",
          "type": "uint256"
        }
      ],
      "stateMutability": "view",
      "type": "function"
    },
    {
      "inputs": [],
      "name": "maxPerTx",
      "outputs": [
        {
          "internalType": "uint256",
          "name": "",
          "type": "uint256"
        }
      ],
      "stateMutability": "view",
      "type": "function"
    },
    {
      "inputs": [],
      "name": "name",
      "outputs": [
        {
          "internalType": "string",
          "name": "",
          "type": "string"
        }
      ],
      "stateMutability": "view",
      "type": "function"
    },
    {
      "inputs": [],
      "name": "numOfwinners",
      "outputs": [
        {
          "internalType": "uint256",
          "name": "",
          "type": "uint256"
        }
      ],
      "stateMutability": "view",
      "type": "function"
    },
    {
      "inputs": [],
      "name": "operator",
      "outputs": [
        {
          "internalType": "address",
          "name": "",
          "type": "address"
        }
      ],
      "stateMutability": "view",
      "type": "function"
    },
    {
      "inputs": [],
      "name": "owner",
      "outputs": [
        {
          "internalType": "address",
          "name": "",
          "type": "address"
        }
      ],
      "stateMutability": "view",
      "type": "function"
    },
    {
      "inputs": [
        {
          "internalType": "uint256",
          "name": "tokenId",
          "type": "uint256"
        }
      ],
      "name": "ownerOf",
      "outputs": [
        {
          "internalType": "address",
          "name": "",
          "type": "address"
        }
      ],
      "stateMutability": "view",
      "type": "function"
    },
    {
      "inputs": [
        {
          "internalType": "uint256",
          "name": "num",
          "type": "uint256"
        }
      ],
      "name": "participateInLaunch",
      "outputs": [],
      "stateMutability": "payable",
      "type": "function"
    },
    {
      "inputs": [
        {
          "internalType": "address",
          "name": "",
          "type": "address"
        }
      ],
      "name": "participatedPerAddress",
      "outputs": [
        {
          "internalType": "uint256",
          "name": "",
          "type": "uint256"
        }
      ],
      "stateMutability": "view",
      "type": "function"
    },
    {
      "inputs": [
        {
          "internalType": "uint256",
          "name": "_requestId",
          "type": "uint256"
        },
        {
          "internalType": "uint256[]",
          "name": "_randomWords",
          "type": "uint256[]"
        }
      ],
      "name": "rawFulfillRandomWords",
      "outputs": [],
      "stateMutability": "nonpayable",
      "type": "function"
    },
    {
      "inputs": [
        {
          "internalType": "uint256",
          "name": "",
          "type": "uint256"
        }
      ],
      "name": "requestIds",
      "outputs": [
        {
          "internalType": "uint256",
          "name": "",
          "type": "uint256"
        }
      ],
      "stateMutability": "view",
      "type": "function"
    },
    {
      "inputs": [],
      "name": "requestRandomSeed",
      "outputs": [
        {
          "internalType": "uint256",
          "name": "requestId",
          "type": "uint256"
        }
      ],
      "stateMutability": "nonpayable",
      "type": "function"
    },
    {
      "inputs": [
        {
          "internalType": "uint256",
          "name": "",
          "type": "uint256"
        }
      ],
      "name": "s_requests",
      "outputs": [
        {
          "internalType": "uint256",
          "name": "paid",
          "type": "uint256"
        },
        {
          "internalType": "bool",
          "name": "fulfilled",
          "type": "bool"
        }
      ],
      "stateMutability": "view",
      "type": "function"
    },
    {
      "inputs": [
        {
          "internalType": "address",
          "name": "from",
          "type": "address"
        },
        {
          "internalType": "address",
          "name": "to",
          "type": "address"
        },
        {
          "internalType": "uint256",
          "name": "tokenId",
          "type": "uint256"
        }
      ],
      "name": "safeTransferFrom",
      "outputs": [],
      "stateMutability": "payable",
      "type": "function"
    },
    {
      "inputs": [
        {
          "internalType": "address",
          "name": "from",
          "type": "address"
        },
        {
          "internalType": "address",
          "name": "to",
          "type": "address"
        },
        {
          "internalType": "uint256",
          "name": "tokenId",
          "type": "uint256"
        },
        {
          "internalType": "bytes",
          "name": "_data",
          "type": "bytes"
        }
      ],
      "name": "safeTransferFrom",
      "outputs": [],
      "stateMutability": "payable",
      "type": "function"
    },
    {
      "inputs": [],
      "name": "selectWinners",
      "outputs": [],
      "stateMutability": "nonpayable",
      "type": "function"
    },
    {
      "inputs": [
        {
          "internalType": "address",
          "name": "operator",
          "type": "address"
        },
        {
          "internalType": "bool",
          "name": "approved",
          "type": "bool"
        }
      ],
      "name": "setApprovalForAll",
      "outputs": [],
      "stateMutability": "nonpayable",
      "type": "function"
    },
    {
      "inputs": [
        {
          "internalType": "string",
          "name": "uri",
          "type": "string"
        }
      ],
      "name": "setBaseURI",
      "outputs": [],
      "stateMutability": "nonpayable",
      "type": "function"
    },
    {
      "inputs": [
        {
          "internalType": "uint256",
          "name": "_duration",
          "type": "uint256"
        }
      ],
      "name": "setDuration",
      "outputs": [],
      "stateMutability": "nonpayable",
      "type": "function"
    },
    {
      "inputs": [
        {
          "internalType": "uint256",
          "name": "num",
          "type": "uint256"
        }
      ],
      "name": "setRandomSeed",
      "outputs": [],
      "stateMutability": "nonpayable",
      "type": "function"
    },
    {
      "inputs": [],
      "name": "settlementV2",
      "outputs": [],
      "stateMutability": "nonpayable",
      "type": "function"
    },
    {
      "inputs": [],
      "name": "startLaunch",
      "outputs": [],
      "stateMutability": "nonpayable",
      "type": "function"
    },
    {
      "inputs": [],
      "name": "stopLaunch",
      "outputs": [],
      "stateMutability": "nonpayable",
      "type": "function"
    },
    {
      "inputs": [
        {
          "internalType": "bytes4",
          "name": "interfaceId",
          "type": "bytes4"
        }
      ],
      "name": "supportsInterface",
      "outputs": [
        {
          "internalType": "bool",
          "name": "",
          "type": "bool"
        }
      ],
      "stateMutability": "view",
      "type": "function"
    },
    {
      "inputs": [],
      "name": "symbol",
      "outputs": [
        {
          "internalType": "string",
          "name": "",
          "type": "string"
        }
      ],
      "stateMutability": "view",
      "type": "function"
    },
    {
      "inputs": [
        {
          "internalType": "uint256",
          "name": "",
          "type": "uint256"
        }
      ],
      "name": "tempList",
      "outputs": [
        {
          "internalType": "address",
          "name": "",
          "type": "address"
        }
      ],
      "stateMutability": "view",
      "type": "function"
    },
    {
      "inputs": [
        {
          "internalType": "uint256",
          "name": "tokenId",
          "type": "uint256"
        }
      ],
      "name": "tokenURI",
      "outputs": [
        {
          "internalType": "string",
          "name": "",
          "type": "string"
        }
      ],
      "stateMutability": "view",
      "type": "function"
    },
    {
      "inputs": [],
      "name": "totalSupply",
      "outputs": [
        {
          "internalType": "uint256",
          "name": "",
          "type": "uint256"
        }
      ],
      "stateMutability": "view",
      "type": "function"
    },
    {
      "inputs": [
        {
          "internalType": "address",
          "name": "from",
          "type": "address"
        },
        {
          "internalType": "address",
          "name": "to",
          "type": "address"
        },
        {
          "internalType": "uint256",
          "name": "tokenId",
          "type": "uint256"
        }
      ],
      "name": "transferFrom",
      "outputs": [],
      "stateMutability": "payable",
      "type": "function"
    },
    {
      "inputs": [
        {
          "internalType": "address",
          "name": "to",
          "type": "address"
        }
      ],
      "name": "transferOwnership",
      "outputs": [],
      "stateMutability": "nonpayable",
      "type": "function"
    },
    {
      "inputs": [
        {
          "internalType": "uint256",
          "name": "",
          "type": "uint256"
        }
      ],
      "name": "winners",
      "outputs": [
        {
          "internalType": "address",
          "name": "",
          "type": "address"
        }
      ],
      "stateMutability": "view",
      "type": "function"
    },
    {
      "inputs": [],
      "name": "withdrawLink",
      "outputs": [],
      "stateMutability": "nonpayable",
      "type": "function"
    },
    {
      "stateMutability": "payable",
      "type": "receive"
    }
  ],
  "bytecode": "0x60c060405273326c977e6efc84e512bb9c30f76e30c160ed06fb600d60006101000a81548173ffffffffffffffffffffffffffffffffffffffff021916908373ffffffffffffffffffffffffffffffffffffffff16021790555073708701a1dff4f478de54383e49a627ed4852c816600e60006101000a81548173ffffffffffffffffffffffffffffffffffffffff021916908373ffffffffffffffffffffffffffffffffffffffff160217905550620186a0600e60146101000a81548163ffffffff021916908363ffffffff1602179055506003600e60186101000a81548161ffff021916908361ffff1602179055506001600e601a6101000a81548163ffffffff021916908363ffffffff1602179055506000601060146101000a81548160ff02191690831515021790555061012c6013556000601755604051806101e0016040528073d119a4b0ecab5983e74a8f9ac8e1f32c48efcfcf73ffffffffffffffffffffffffffffffffffffffff1673ffffffffffffffffffffffffffffffffffffffff16815260200173f9ef4b1d33ae37dfe5f82e1b91ffd12d62d5551a73ffffffffffffffffffffffffffffffffffffffff1673ffffffffffffffffffffffffffffffffffffffff16815260200173034c9f2d589aa70b963bbc90929b55fd2689067873ffffffffffffffffffffffffffffffffffffffff1673ffffffffffffffffffffffffffffffffffffffff16815260200173e06644881f40f96a74eff6224ece45f1068a5fc173ffffffffffffffffffffffffffffffffffffffff1673ffffffffffffffffffffffffffffffffffffffff168152602001732a19ff2f460df0b1446e6cdae8ae646390800e1e73ffffffffffffffffffffffffffffffffffffffff1673ffffffffffffffffffffffffffffffffffffffff16815260200173dd24313433d5b670e43e24d63dcb487ad2d29ec873ffffffffffffffffffffffffffffffffffffffff1673ffffffffffffffffffffffffffffffffffffffff16815260200173a50eef1178b2c3ef8c73d0eebbcd14f3f87e7e6b73ffffffffffffffffffffffffffffffffffffffff1673ffffffffffffffffffffffffffffffffffffffff168152602001739160a61c08884d418dc0cff6523fd5362da5410e73ffffffffffffffffffffffffffffffffffffffff1673ffffffffffffffffffffffffffffffffffffffff16815260200173572d94477d3df3a7ee78230dc86a1af27f41907c73ffffffffffffffffffffffffffffffffffffffff1673ffffffffffffffffffffffffffffffffffffffff16815260200173b6f737e9787d90af7c06ef3e287f84dbb293483873ffffffffffffffffffffffffffffffffffffffff1673ffffffffffffffffffffffffffffffffffffffff16815260200173ce6d662d7611e100cc16c372fd2c5abe1734cb5573ffffffffffffffffffffffffffffffffffffffff1673ffffffffffffffffffffffffffffffffffffffff16815260200173a6e63083b5e72a06b907403e1850e1380c89581673ffffffffffffffffffffffffffffffffffffffff1673ffffffffffffffffffffffffffffffffffffffff16815260200173cdc6fa0c30d171c3cfdbf283ad30b618afbf29a173ffffffffffffffffffffffffffffffffffffffff1673ffffffffffffffffffffffffffffffffffffffff16815260200173ee8229352c7f7501dde85d253bd9c574a639695373ffffffffffffffffffffffffffffffffffffffff1673ffffffffffffffffffffffffffffffffffffffff16815260200173221bc9a22caaa1e27c317244573e7081d3e2628c73ffffffffffffffffffffffffffffffffffffffff1673ffffffffffffffffffffffffffffffffffffffff16815250601890600f6200056e92919062000a38565b50601860199080546200058392919062000ac7565b506005601c5533806000600d60009054906101000a900473ffffffffffffffffffffffffffffffffffffffff16600e60009054906101000a900473ffffffffffffffffffffffffffffffffffffffff166040518060400160405280600981526020017f4c61756e63684e465400000000000000000000000000000000000000000000008152506040518060400160405280600381526020017f4e4654000000000000000000000000000000000000000000000000000000000081525081600290805190602001906200065792919062000b1e565b5080600390805190602001906200067092919062000b1e565b50620006816200081860201b60201c565b60008190555050508173ffffffffffffffffffffffffffffffffffffffff1660808173ffffffffffffffffffffffffffffffffffffffff16815250508073ffffffffffffffffffffffffffffffffffffffff1660a08173ffffffffffffffffffffffffffffffffffffffff16815250505050600073ffffffffffffffffffffffffffffffffffffffff168273ffffffffffffffffffffffffffffffffffffffff16141562000766576040517f08c379a00000000000000000000000000000000000000000000000000000000081526004016200075d9062000c2f565b60405180910390fd5b81600860006101000a81548173ffffffffffffffffffffffffffffffffffffffff021916908373ffffffffffffffffffffffffffffffffffffffff160217905550600073ffffffffffffffffffffffffffffffffffffffff168173ffffffffffffffffffffffffffffffffffffffff1614620007ee57620007ed816200081d60201b60201c565b5b50505062000802336200094f60201b60201c565b6002601481905550600260158190555062000d9a565b600090565b3373ffffffffffffffffffffffffffffffffffffffff168173ffffffffffffffffffffffffffffffffffffffff1614156200088f576040517f08c379a0000000000000000000000000000000000000000000000000000000008152600401620008869062000ca1565b60405180910390fd5b80600960006101000a81548173ffffffffffffffffffffffffffffffffffffffff021916908373ffffffffffffffffffffffffffffffffffffffff1602179055508073ffffffffffffffffffffffffffffffffffffffff16600860009054906101000a900473ffffffffffffffffffffffffffffffffffffffff1673ffffffffffffffffffffffffffffffffffffffff167fed8889f560326eb138920d842192f0eb3dd22b4f139c87a2c57538e05bae127860405160405180910390a350565b6200095f620009a360201b60201c565b80601060006101000a81548173ffffffffffffffffffffffffffffffffffffffff021916908373ffffffffffffffffffffffffffffffffffffffff16021790555050565b600860009054906101000a900473ffffffffffffffffffffffffffffffffffffffff1673ffffffffffffffffffffffffffffffffffffffff163373ffffffffffffffffffffffffffffffffffffffff161462000a36576040517f08c379a000000000000000000000000000000000000000000000000000000000815260040162000a2d9062000d13565b60405180910390fd5b565b82805482825590600052602060002090810192821562000ab4579160200282015b8281111562000ab35782518260006101000a81548173ffffffffffffffffffffffffffffffffffffffff021916908373ffffffffffffffffffffffffffffffffffffffff1602179055509160200191906001019062000a59565b5b50905062000ac3919062000baf565b5090565b82805482825590600052602060002090810192821562000b0b5760005260206000209182015b8281111562000b0a57825482559160010191906001019062000aed565b5b50905062000b1a919062000baf565b5090565b82805462000b2c9062000d64565b90600052602060002090601f01602090048101928262000b50576000855562000b9c565b82601f1062000b6b57805160ff191683800117855562000b9c565b8280016001018555821562000b9c579182015b8281111562000b9b57825182559160200191906001019062000b7e565b5b50905062000bab919062000baf565b5090565b5b8082111562000bca57600081600090555060010162000bb0565b5090565b600082825260208201905092915050565b7f43616e6e6f7420736574206f776e657220746f207a65726f0000000000000000600082015250565b600062000c1760188362000bce565b915062000c248262000bdf565b602082019050919050565b6000602082019050818103600083015262000c4a8162000c08565b9050919050565b7f43616e6e6f74207472616e7366657220746f2073656c66000000000000000000600082015250565b600062000c8960178362000bce565b915062000c968262000c51565b602082019050919050565b6000602082019050818103600083015262000cbc8162000c7a565b9050919050565b7f4f6e6c792063616c6c61626c65206279206f776e657200000000000000000000600082015250565b600062000cfb60168362000bce565b915062000d088262000cc3565b602082019050919050565b6000602082019050818103600083015262000d2e8162000cec565b9050919050565b7f4e487b7100000000000000000000000000000000000000000000000000000000600052602260045260246000fd5b6000600282049050600182168062000d7d57607f821691505b6020821081141562000d945762000d9362000d35565b5b50919050565b60805160a051615a6962000ddc6000396000818161132201528181612f9a01528181613d7801528181613d990152613ed701526000613d3c0152615a696000f3fe6080604052600436106103545760003560e01c80638afe7532116101c6578063b88d4fde116100f7578063ea99881211610095578063f43a22dc1161006f578063f43a22dc14610c0f578063f6be71d114610c3a578063f968adbe14610c63578063fc2a88c314610c8e5761035b565b8063ea99881214610b90578063f25f299614610bbb578063f2fde38b14610be65761035b565b8063d8a4676f116100d1578063d8a4676f14610abe578063df15c37e14610afd578063e1da26c614610b28578063e985e9c514610b535761035b565b8063b88d4fde14610a3a578063c87b56dd14610a56578063c8cf323214610a935761035b565b806395d89b4111610164578063a2fb11751161013e578063a2fb117514610990578063aaf96ff5146109cd578063acc05208146109e4578063b22a981514610a0f5761035b565b806395d89b41146108fe578063a168fa8914610929578063a22cb465146109675761035b565b80638ef99b83116101a05780638ef99b8314610840578063902d55a51461086b578063903a593e1461089657806393b3cc6b146108d35761035b565b80638afe7532146107e75780638da5cb5b146107fe5780638dc654a2146108295761035b565b806355f804b3116102a05780636de652b71161023e5780637bb501ec116102185780637bb501ec14610726578063811d8526146107515780638461b7061461076d5780638796ba8c146107aa5761035b565b80636de652b7146106a757806370a08231146106d257806379ba50971461070f5761035b565b80635aa68ac01161027a5780635aa68ac0146105eb5780636352211e1461061657806366fea1d4146106535780636d5eac261461067c5761035b565b806355f804b314610580578063570ca735146105a957806359a945e9146105d45761035b565b80631a0de74c1161030d57806323b872dd116102e757806323b872dd146104e05780632c97fab9146104fc57806342842e0e146105275780635319a312146105435761035b565b80631a0de74c146104895780631fe543e3146104a05780632323c183146104c95761035b565b806301ffc9a71461036057806306fdde031461039d578063081812fc146103c857806309495f8814610405578063095ea7b31461044257806318160ddd1461045e5761035b565b3661035b57005b600080fd5b34801561036c57600080fd5b50610387600480360381019061038291906143ed565b610cb9565b6040516103949190614435565b60405180910390f35b3480156103a957600080fd5b506103b2610d4b565b6040516103bf91906144e9565b60405180910390f35b3480156103d457600080fd5b506103ef60048036038101906103ea9190614541565b610ddd565b6040516103fc91906145af565b60405180910390f35b34801561041157600080fd5b5061042c600480360381019061042791906145f6565b610e5c565b6040516104399190614632565b60405180910390f35b61045c6004803603810190610457919061464d565b610e74565b005b34801561046a57600080fd5b50610473610fb8565b6040516104809190614632565b60405180910390f35b34801561049557600080fd5b5061049e610fcf565b005b3480156104ac57600080fd5b506104c760048036038101906104c291906147d5565b611320565b005b3480156104d557600080fd5b506104de6113bc565b005b6104fa60048036038101906104f59190614831565b611505565b005b34801561050857600080fd5b5061051161182a565b60405161051e9190614632565b60405180910390f35b610541600480360381019061053c9190614831565b61182f565b005b34801561054f57600080fd5b5061056a600480360381019061056591906145f6565b61184f565b6040516105779190614632565b60405180910390f35b34801561058c57600080fd5b506105a760048036038101906105a29190614939565b611867565b005b3480156105b557600080fd5b506105be611911565b6040516105cb91906145af565b60405180910390f35b3480156105e057600080fd5b506105e9611937565b005b3480156105f757600080fd5b50610600611a6d565b60405161060d9190614a40565b60405180910390f35b34801561062257600080fd5b5061063d60048036038101906106389190614541565b611afb565b60405161064a91906145af565b60405180910390f35b34801561065f57600080fd5b5061067a60048036038101906106759190614541565b611b0d565b005b34801561068857600080fd5b50610691611ba7565b60405161069e9190614632565b60405180910390f35b3480156106b357600080fd5b506106bc611bad565b6040516106c99190614632565b60405180910390f35b3480156106de57600080fd5b506106f960048036038101906106f491906145f6565b611bb8565b6040516107069190614632565b60405180910390f35b34801561071b57600080fd5b50610724611c71565b005b34801561073257600080fd5b5061073b611e08565b6040516107489190614632565b60405180910390f35b61076b60048036038101906107669190614541565b611e0e565b005b34801561077957600080fd5b50610794600480360381019061078f9190614541565b612102565b6040516107a191906145af565b60405180910390f35b3480156107b657600080fd5b506107d160048036038101906107cc9190614541565b612141565b6040516107de9190614632565b60405180910390f35b3480156107f357600080fd5b506107fc612165565b005b34801561080a57600080fd5b5061081361247d565b60405161082091906145af565b60405180910390f35b34801561083557600080fd5b5061083e6124a7565b005b34801561084c57600080fd5b506108556126b5565b6040516108629190614632565b60405180910390f35b34801561087757600080fd5b50610880612738565b60405161088d9190614632565b60405180910390f35b3480156108a257600080fd5b506108bd60048036038101906108b89190614541565b61273d565b6040516108ca91906145af565b60405180910390f35b3480156108df57600080fd5b506108e861277c565b6040516108f59190614632565b60405180910390f35b34801561090a57600080fd5b50610913612786565b60405161092091906144e9565b60405180910390f35b34801561093557600080fd5b50610950600480360381019061094b9190614541565b612818565b60405161095e929190614a62565b60405180910390f35b34801561097357600080fd5b5061098e60048036038101906109899190614ab7565b612849565b005b34801561099c57600080fd5b506109b760048036038101906109b29190614541565b612954565b6040516109c491906145af565b60405180910390f35b3480156109d957600080fd5b506109e2612993565b005b3480156109f057600080fd5b506109f9612b0e565b604051610a069190614632565b60405180910390f35b348015610a1b57600080fd5b50610a24612bf4565b604051610a319190614632565b60405180910390f35b610a546004803603810190610a4f9190614b98565b612bfa565b005b348015610a6257600080fd5b50610a7d6004803603810190610a789190614541565b612c6d565b604051610a8a91906144e9565b60405180910390f35b348015610a9f57600080fd5b50610aa8612d0c565b604051610ab59190614632565b60405180910390f35b348015610aca57600080fd5b50610ae56004803603810190610ae09190614541565b612d12565b604051610af493929190614cd9565b60405180910390f35b348015610b0957600080fd5b50610b12612e2c565b604051610b1f9190614a40565b60405180910390f35b348015610b3457600080fd5b50610b3d612eba565b604051610b4a9190614632565b60405180910390f35b348015610b5f57600080fd5b50610b7a6004803603810190610b759190614d17565b613189565b604051610b879190614435565b60405180910390f35b348015610b9c57600080fd5b50610ba561321d565b604051610bb29190614632565b60405180910390f35b348015610bc757600080fd5b50610bd0613223565b604051610bdd9190614435565b60405180910390f35b348015610bf257600080fd5b50610c0d6004803603810190610c0891906145f6565b613236565b005b348015610c1b57600080fd5b50610c2461324a565b604051610c319190614632565b60405180910390f35b348015610c4657600080fd5b50610c616004803603810190610c5c9190614541565b61324f565b005b348015610c6f57600080fd5b50610c786132e9565b604051610c859190614632565b60405180910390f35b348015610c9a57600080fd5b50610ca36132ef565b604051610cb09190614632565b60405180910390f35b60006301ffc9a760e01b827bffffffffffffffffffffffffffffffffffffffffffffffffffffffff19161480610d1457506380ac58cd60e01b827bffffffffffffffffffffffffffffffffffffffffffffffffffffffff1916145b80610d445750635b5e139f60e01b827bffffffffffffffffffffffffffffffffffffffffffffffffffffffff1916145b9050919050565b606060028054610d5a90614d86565b80601f0160208091040260200160405190810160405280929190818152602001828054610d8690614d86565b8015610dd35780601f10610da857610100808354040283529160200191610dd3565b820191906000526020600020905b815481529060010190602001808311610db657829003601f168201915b5050505050905090565b6000610de8826132f5565b610e1e576040517fcf4700e400000000000000000000000000000000000000000000000000000000815260040160405180910390fd5b6006600083815260200190815260200160002060000160009054906101000a900473ffffffffffffffffffffffffffffffffffffffff169050919050565b601d6020528060005260406000206000915090505481565b6000610e7f82611afb565b90508073ffffffffffffffffffffffffffffffffffffffff16610ea0613354565b73ffffffffffffffffffffffffffffffffffffffff1614610f0357610ecc81610ec7613354565b613189565b610f02576040517fcfb3b94200000000000000000000000000000000000000000000000000000000815260040160405180910390fd5b5b826006600084815260200190815260200160002060000160006101000a81548173ffffffffffffffffffffffffffffffffffffffff021916908373ffffffffffffffffffffffffffffffffffffffff160217905550818373ffffffffffffffffffffffffffffffffffffffff168273ffffffffffffffffffffffffffffffffffffffff167f8c5be1e5ebec7d5bd14f71427d1e84f3dd0314c0f7b2291e5b200ac8c7c3b92560405160405180910390a4505050565b6000610fc261335c565b6001546000540303905090565b3373ffffffffffffffffffffffffffffffffffffffff16601060009054906101000a900473ffffffffffffffffffffffffffffffffffffffff1673ffffffffffffffffffffffffffffffffffffffff161461105f576040517f08c379a000000000000000000000000000000000000000000000000000000000815260040161105690614e2a565b60405180910390fd5b600061106961277c565b905060005b601c54601b805490501461131c57600073ffffffffffffffffffffffffffffffffffffffff16601983815481106110a8576110a7614e4a565b5b9060005260206000200160009054906101000a900473ffffffffffffffffffffffffffffffffffffffff1673ffffffffffffffffffffffffffffffffffffffff161461128157601b6019838154811061110457611103614e4a565b5b9060005260206000200160009054906101000a900473ffffffffffffffffffffffffffffffffffffffff169080600181540180825580915050600190039060005260206000200160009091909190916101000a81548173ffffffffffffffffffffffffffffffffffffffff021916908373ffffffffffffffffffffffffffffffffffffffff160217905550601d6000601984815481106111a7576111a6614e4a565b5b9060005260206000200160009054906101000a900473ffffffffffffffffffffffffffffffffffffffff1673ffffffffffffffffffffffffffffffffffffffff1673ffffffffffffffffffffffffffffffffffffffff168152602001908152602001600020600081548092919061121d90614ea8565b919050555060006019838154811061123857611237614e4a565b5b9060005260206000200160006101000a81548173ffffffffffffffffffffffffffffffffffffffff021916908373ffffffffffffffffffffffffffffffffffffffff1602179055505b6112c06040518060400160405280601381526020017f50726576696f75732052616e646f6d3a2025730000000000000000000000000081525083613361565b6112ca82826133fd565b9150806112d690614ea8565b90506113176040518060400160405280601481526020017f50726f6365737365642052616e646f6d3a20257300000000000000000000000081525083613361565b61106e565b5050565b7f000000000000000000000000000000000000000000000000000000000000000073ffffffffffffffffffffffffffffffffffffffff163373ffffffffffffffffffffffffffffffffffffffff16146113ae576040517f08c379a00000000000000000000000000000000000000000000000000000000081526004016113a590614f3d565b60405180910390fd5b6113b88282613525565b5050565b3373ffffffffffffffffffffffffffffffffffffffff16601060009054906101000a900473ffffffffffffffffffffffffffffffffffffffff1673ffffffffffffffffffffffffffffffffffffffff161461144c576040517f08c379a000000000000000000000000000000000000000000000000000000000815260040161144390614e2a565b60405180910390fd5b60005b601b805490508110156114f2576000601d6000601b848154811061147657611475614e4a565b5b9060005260206000200160009054906101000a900473ffffffffffffffffffffffffffffffffffffffff1673ffffffffffffffffffffffffffffffffffffffff1673ffffffffffffffffffffffffffffffffffffffff1681526020019081526020016000208190555080806114ea90614ea8565b91505061144f565b506114fb61362d565b6115036136cd565b565b600061151082613772565b90508373ffffffffffffffffffffffffffffffffffffffff168173ffffffffffffffffffffffffffffffffffffffff1614611577576040517fa114810000000000000000000000000000000000000000000000000000000000815260040160405180910390fd5b60008061158384613840565b915091506115998187611594613354565b613867565b6115e5576115ae866115a9613354565b613189565b6115e4576040517f59c896be00000000000000000000000000000000000000000000000000000000815260040160405180910390fd5b5b600073ffffffffffffffffffffffffffffffffffffffff168573ffffffffffffffffffffffffffffffffffffffff16141561164c576040517fea553b3400000000000000000000000000000000000000000000000000000000815260040160405180910390fd5b61165986868660016138ab565b801561166457600082555b600560008773ffffffffffffffffffffffffffffffffffffffff1673ffffffffffffffffffffffffffffffffffffffff168152602001908152602001600020600081546001900391905081905550600560008673ffffffffffffffffffffffffffffffffffffffff1673ffffffffffffffffffffffffffffffffffffffff16815260200190815260200160002060008154600101919050819055506117328561170e8888876138b1565b7c0200000000000000000000000000000000000000000000000000000000176138d9565b600460008681526020019081526020016000208190555060007c0200000000000000000000000000000000000000000000000000000000841614156117ba5760006001850190506000600460008381526020019081526020016000205414156117b85760005481146117b7578360046000838152602001908152602001600020819055505b5b505b838573ffffffffffffffffffffffffffffffffffffffff168773ffffffffffffffffffffffffffffffffffffffff167fddf252ad1be2c89b69c2b068fc378daa952ba7f163c4a11628f55a4df523b3ef60405160405180910390a46118228686866001613904565b505050505050565b600281565b61184a83838360405180602001604052806000815250612bfa565b505050565b60166020528060005260406000206000915090505481565b3373ffffffffffffffffffffffffffffffffffffffff16601060009054906101000a900473ffffffffffffffffffffffffffffffffffffffff1673ffffffffffffffffffffffffffffffffffffffff16146118f7576040517f08c379a00000000000000000000000000000000000000000000000000000000081526004016118ee90614e2a565b60405180910390fd5b80600f908051906020019061190d92919061421e565b5050565b601060009054906101000a900473ffffffffffffffffffffffffffffffffffffffff1681565b3373ffffffffffffffffffffffffffffffffffffffff16601060009054906101000a900473ffffffffffffffffffffffffffffffffffffffff1673ffffffffffffffffffffffffffffffffffffffff16146119c7576040517f08c379a00000000000000000000000000000000000000000000000000000000081526004016119be90614e2a565b60405180910390fd5b601060149054906101000a900460ff1615611a17576040517f08c379a0000000000000000000000000000000000000000000000000000000008152600401611a0e90614fa9565b60405180910390fd5b6001601060146101000a81548160ff021916908315150217905550426011819055506011546013547f389460ae1a631e45311498d24231a574ee6b54ab0d9bf3ffbefe7a317bf94c4960405160405180910390a3565b60606018805480602002602001604051908101604052809291908181526020018280548015611af157602002820191906000526020600020905b8160009054906101000a900473ffffffffffffffffffffffffffffffffffffffff1673ffffffffffffffffffffffffffffffffffffffff1681526020019060010190808311611aa7575b5050505050905090565b6000611b0682613772565b9050919050565b3373ffffffffffffffffffffffffffffffffffffffff16601060009054906101000a900473ffffffffffffffffffffffffffffffffffffffff1673ffffffffffffffffffffffffffffffffffffffff1614611b9d576040517f08c379a0000000000000000000000000000000000000000000000000000000008152600401611b9490614e2a565b60405180910390fd5b80601a8190555050565b601c5481565b66038d7ea4c6800081565b60008073ffffffffffffffffffffffffffffffffffffffff168273ffffffffffffffffffffffffffffffffffffffff161415611c20576040517f8f4eb60400000000000000000000000000000000000000000000000000000000815260040160405180910390fd5b67ffffffffffffffff600560008473ffffffffffffffffffffffffffffffffffffffff1673ffffffffffffffffffffffffffffffffffffffff16815260200190815260200160002054169050919050565b600960009054906101000a900473ffffffffffffffffffffffffffffffffffffffff1673ffffffffffffffffffffffffffffffffffffffff163373ffffffffffffffffffffffffffffffffffffffff1614611d01576040517f08c379a0000000000000000000000000000000000000000000000000000000008152600401611cf890615015565b60405180910390fd5b6000600860009054906101000a900473ffffffffffffffffffffffffffffffffffffffff16905033600860006101000a81548173ffffffffffffffffffffffffffffffffffffffff021916908373ffffffffffffffffffffffffffffffffffffffff1602179055506000600960006101000a81548173ffffffffffffffffffffffffffffffffffffffff021916908373ffffffffffffffffffffffffffffffffffffffff1602179055503373ffffffffffffffffffffffffffffffffffffffff168173ffffffffffffffffffffffffffffffffffffffff167f8be0079c531659141344cd1fd0a4f28419497f9722a3daafe3b4186f6b6457e060405160405180910390a350565b60115481565b601060149054906101000a900460ff16611e5d576040517f08c379a0000000000000000000000000000000000000000000000000000000008152600401611e5490615081565b60405180910390fd5b611e6561390a565b601354601154611e7591906150a1565b10611eb5576040517f08c379a0000000000000000000000000000000000000000000000000000000008152600401611eac90615143565b60405180910390fd5b60008111611ef8576040517f08c379a0000000000000000000000000000000000000000000000000000000008152600401611eef906151af565b60405180910390fd5b601454811115611f3d576040517f08c379a0000000000000000000000000000000000000000000000000000000008152600401611f3490615241565b60405180910390fd5b601554601660003373ffffffffffffffffffffffffffffffffffffffff1673ffffffffffffffffffffffffffffffffffffffff1681526020019081526020016000205482611f8b91906150a1565b1115611fcc576040517f08c379a0000000000000000000000000000000000000000000000000000000008152600401611fc3906152d3565b60405180910390fd5b8060176000828254611fde91906150a1565b9250508190555080601660003373ffffffffffffffffffffffffffffffffffffffff1673ffffffffffffffffffffffffffffffffffffffff168152602001908152602001600020600082825461203491906150a1565b9250508190555060005b818110156120ba576018339080600181540180825580915050600190039060005260206000200160009091909190916101000a81548173ffffffffffffffffffffffffffffffffffffffff021916908373ffffffffffffffffffffffffffffffffffffffff160217905550806120b390614ea8565b905061203e565b50803373ffffffffffffffffffffffffffffffffffffffff167f88b4081bc2573b78164bf68e4df2ee32d3ad041325994feab80bd9f3a177211a60405160405180910390a350565b6018818154811061211257600080fd5b906000526020600020016000915054906101000a900473ffffffffffffffffffffffffffffffffffffffff1681565b600b818154811061215157600080fd5b906000526020600020016000915090505481565b3373ffffffffffffffffffffffffffffffffffffffff16601060009054906101000a900473ffffffffffffffffffffffffffffffffffffffff1673ffffffffffffffffffffffffffffffffffffffff16146121f5576040517f08c379a00000000000000000000000000000000000000000000000000000000081526004016121ec90614e2a565b60405180910390fd5b60005b601880549050811015612391576000601d60006018848154811061221f5761221e614e4a565b5b9060005260206000200160009054906101000a900473ffffffffffffffffffffffffffffffffffffffff1673ffffffffffffffffffffffffffffffffffffffff1673ffffffffffffffffffffffffffffffffffffffff16815260200190815260200160002054141561237e576000601882815481106122a1576122a0614e4a565b5b9060005260206000200160009054906101000a900473ffffffffffffffffffffffffffffffffffffffff1673ffffffffffffffffffffffffffffffffffffffff1666038d7ea4c680006040516122f690615324565b60006040518083038185875af1925050503d8060008114612333576040519150601f19603f3d011682016040523d82523d6000602084013e612338565b606091505b505090508061237c576040517f08c379a000000000000000000000000000000000000000000000000000000000815260040161237390615385565b60405180910390fd5b505b808061238990614ea8565b9150506121f8565b5060005b601b8054905081101561247a57612467601b82815481106123b9576123b8614e4a565b5b9060005260206000200160009054906101000a900473ffffffffffffffffffffffffffffffffffffffff16601d6000601b85815481106123fc576123fb614e4a565b5b9060005260206000200160009054906101000a900473ffffffffffffffffffffffffffffffffffffffff1673ffffffffffffffffffffffffffffffffffffffff1673ffffffffffffffffffffffffffffffffffffffff16815260200190815260200160002054613930565b808061247290614ea8565b915050612395565b50565b6000600860009054906101000a900473ffffffffffffffffffffffffffffffffffffffff16905090565b3373ffffffffffffffffffffffffffffffffffffffff16601060009054906101000a900473ffffffffffffffffffffffffffffffffffffffff1673ffffffffffffffffffffffffffffffffffffffff1614612537576040517f08c379a000000000000000000000000000000000000000000000000000000000815260040161252e90614e2a565b60405180910390fd5b6000600d60009054906101000a900473ffffffffffffffffffffffffffffffffffffffff1690508073ffffffffffffffffffffffffffffffffffffffff1663a9059cbb338373ffffffffffffffffffffffffffffffffffffffff166370a08231306040518263ffffffff1660e01b81526004016125b491906145af565b60206040518083038186803b1580156125cc57600080fd5b505afa1580156125e0573d6000803e3d6000fd5b505050506040513d601f19601f8201168201806040525081019061260491906153ba565b6040518363ffffffff1660e01b81526004016126219291906153e7565b602060405180830381600087803b15801561263b57600080fd5b505af115801561264f573d6000803e3d6000fd5b505050506040513d601f19601f820116820180604052508101906126739190615425565b6126b2576040517f08c379a00000000000000000000000000000000000000000000000000000000081526004016126a99061549e565b60405180910390fd5b50565b6000801515600a6000600c54815260200190815260200160002060010160009054906101000a900460ff16151514156126ed57600080fd5b601880549050600a6000600c54815260200190815260200160002060020160008154811061271e5761271d614e4a565b5b906000526020600020015461273391906154ed565b905090565b600581565b6019818154811061274d57600080fd5b906000526020600020016000915054906101000a900473ffffffffffffffffffffffffffffffffffffffff1681565b6000601a54905090565b60606003805461279590614d86565b80601f01602080910402602001604051908101604052809291908181526020018280546127c190614d86565b801561280e5780601f106127e35761010080835404028352916020019161280e565b820191906000526020600020905b8154815290600101906020018083116127f157829003601f168201915b5050505050905090565b600a6020528060005260406000206000915090508060000154908060010160009054906101000a900460ff16905082565b8060076000612856613354565b73ffffffffffffffffffffffffffffffffffffffff1673ffffffffffffffffffffffffffffffffffffffff16815260200190815260200160002060008473ffffffffffffffffffffffffffffffffffffffff1673ffffffffffffffffffffffffffffffffffffffff16815260200190815260200160002060006101000a81548160ff0219169083151502179055508173ffffffffffffffffffffffffffffffffffffffff16612903613354565b73ffffffffffffffffffffffffffffffffffffffff167f17307eab39ab6107e8899845ad3d59bd9653f200f220920489ca2b5937696c31836040516129489190614435565b60405180910390a35050565b601b818154811061296457600080fd5b906000526020600020016000915054906101000a900473ffffffffffffffffffffffffffffffffffffffff1681565b3373ffffffffffffffffffffffffffffffffffffffff16601060009054906101000a900473ffffffffffffffffffffffffffffffffffffffff1673ffffffffffffffffffffffffffffffffffffffff1614612a23576040517f08c379a0000000000000000000000000000000000000000000000000000000008152600401612a1a90614e2a565b60405180910390fd5b601060149054906101000a900460ff16612a72576040517f08c379a0000000000000000000000000000000000000000000000000000000008152600401612a699061556a565b60405180910390fd5b6000601060146101000a81548160ff02191690831515021790555042601281905550612a9c61390a565b601354601154612aac91906150a1565b1015612acd57601354601154612ac291906150a1565b601281905550612ad5565b426012819055505b601254612ae061390a565b7ff0fcbc0076696dba8c2b6bd5b039faa5f8a5743ef0b895335badfe8adcc928df60405160405180910390a3565b60003373ffffffffffffffffffffffffffffffffffffffff16601060009054906101000a900473ffffffffffffffffffffffffffffffffffffffff1673ffffffffffffffffffffffffffffffffffffffff1614612ba0576040517f08c379a0000000000000000000000000000000000000000000000000000000008152600401612b9790614e2a565b60405180910390fd5b601880549050600a6000600c548152602001908152602001600020600201600081548110612bd157612bd0614e4a565b5b9060005260206000200154612be691906154ed565b601a81905550601a54905090565b60125481565b612c05848484611505565b60008373ffffffffffffffffffffffffffffffffffffffff163b14612c6757612c3084848484613aed565b612c66576040517fd1a57ed600000000000000000000000000000000000000000000000000000000815260040160405180910390fd5b5b50505050565b6060612c78826132f5565b612cae576040517fa14c4b5000000000000000000000000000000000000000000000000000000000815260040160405180910390fd5b6000612cb8613c4d565b9050600081511415612cd95760405180602001604052806000815250612d04565b80612ce384613cdf565b604051602001612cf49291906155c6565b6040516020818303038152906040525b915050919050565b60135481565b60008060606000600a60008681526020019081526020016000206000015411612d70576040517f08c379a0000000000000000000000000000000000000000000000000000000008152600401612d6790615636565b60405180910390fd5b6000600a6000868152602001908152602001600020604051806060016040529081600082015481526020016001820160009054906101000a900460ff1615151515815260200160028201805480602002602001604051908101604052809291908181526020018280548015612e0457602002820191906000526020600020905b815481526020019060010190808311612df0575b5050505050815250509050806000015181602001518260400151935093509350509193909250565b6060601b805480602002602001604051908101604052809291908181526020018280548015612eb057602002820191906000526020600020905b8160009054906101000a900473ffffffffffffffffffffffffffffffffffffffff1673ffffffffffffffffffffffffffffffffffffffff1681526020019060010190808311612e66575b5050505050905090565b60003373ffffffffffffffffffffffffffffffffffffffff16601060009054906101000a900473ffffffffffffffffffffffffffffffffffffffff1673ffffffffffffffffffffffffffffffffffffffff1614612f4c576040517f08c379a0000000000000000000000000000000000000000000000000000000008152600401612f4390614e2a565b60405180910390fd5b612f8b600e60149054906101000a900463ffffffff16600e60189054906101000a900461ffff16600e601a9054906101000a900463ffffffff16613d38565b905060405180606001604052807f000000000000000000000000000000000000000000000000000000000000000073ffffffffffffffffffffffffffffffffffffffff16634306d354600e60149054906101000a900463ffffffff166040518263ffffffff1660e01b81526004016130039190615675565b60206040518083038186803b15801561301b57600080fd5b505afa15801561302f573d6000803e3d6000fd5b505050506040513d601f19601f8201168201806040525081019061305391906153ba565b8152602001600015158152602001600067ffffffffffffffff81111561307c5761307b614692565b5b6040519080825280602002602001820160405280156130aa5781602001602082028036833780820191505090505b50815250600a60008381526020019081526020016000206000820151816000015560208201518160010160006101000a81548160ff02191690831515021790555060408201518160020190805190602001906131079291906142a4565b50905050600b81908060018154018082558091505060019003906000526020600020016000909190919091505580600c819055507fcc58b13ad3eab50626c6a6300b1d139cd6ebb1688a7cced9461c2f7e762665ee81600e601a9054906101000a900463ffffffff1660405161317e929190615690565b60405180910390a190565b6000600760008473ffffffffffffffffffffffffffffffffffffffff1673ffffffffffffffffffffffffffffffffffffffff16815260200190815260200160002060008373ffffffffffffffffffffffffffffffffffffffff1673ffffffffffffffffffffffffffffffffffffffff16815260200190815260200160002060009054906101000a900460ff16905092915050565b60155481565b601060149054906101000a900460ff1681565b61323e613f7c565b6132478161400e565b50565b600281565b3373ffffffffffffffffffffffffffffffffffffffff16601060009054906101000a900473ffffffffffffffffffffffffffffffffffffffff1673ffffffffffffffffffffffffffffffffffffffff16146132df576040517f08c379a00000000000000000000000000000000000000000000000000000000081526004016132d690614e2a565b60405180910390fd5b8060138190555050565b60145481565b600c5481565b60008161330061335c565b1115801561330f575060005482105b801561334d575060007c0100000000000000000000000000000000000000000000000000000000600460008581526020019081526020016000205416145b9050919050565b600033905090565b600090565b6133f982826040516024016133779291906156b9565b6040516020818303038152906040527fb60e72cc000000000000000000000000000000000000000000000000000000007bffffffffffffffffffffffffffffffffffffffffffffffffffffffff19166020820180517bffffffffffffffffffffffffffffffffffffffffffffffffffffffff838183161783525050505061413d565b5050565b60003373ffffffffffffffffffffffffffffffffffffffff16601060009054906101000a900473ffffffffffffffffffffffffffffffffffffffff1673ffffffffffffffffffffffffffffffffffffffff161461348f576040517f08c379a000000000000000000000000000000000000000000000000000000000815260040161348690614e2a565b60405180910390fd5b60006019805490506001856134a491906150a1565b846040516020016134b692919061570a565b6040516020818303038152906040528051906020012060001c6134d991906154ed565b905061351b6040518060400160405280601881526020017f73656c65637465643a2025732c20726573756c743a20257300000000000000008152508583614166565b8091505092915050565b6000600a6000848152602001908152602001600020600001541161357e576040517f08c379a000000000000000000000000000000000000000000000000000000000815260040161357590615636565b60405180910390fd5b6001600a600084815260200190815260200160002060010160006101000a81548160ff02191690831515021790555080600a600084815260200190815260200160002060020190805190602001906135d79291906142a4565b507f147eb1ff0c82f87f2b03e2c43f5a36488ff63ec6b730195fde4605f612f8db518282600a60008681526020019081526020016000206000015460405161362193929190615736565b60405180910390a15050565b3373ffffffffffffffffffffffffffffffffffffffff16601060009054906101000a900473ffffffffffffffffffffffffffffffffffffffff1673ffffffffffffffffffffffffffffffffffffffff16146136bd576040517f08c379a00000000000000000000000000000000000000000000000000000000081526004016136b490614e2a565b60405180910390fd5b601b60006136cb91906142f1565b565b3373ffffffffffffffffffffffffffffffffffffffff16601060009054906101000a900473ffffffffffffffffffffffffffffffffffffffff1673ffffffffffffffffffffffffffffffffffffffff161461375d576040517f08c379a000000000000000000000000000000000000000000000000000000000815260040161375490614e2a565b60405180910390fd5b6018601990805461376f929190614312565b50565b6000808290508061378161335c565b11613809576000548110156138085760006004600083815260200190815260200160002054905060007c010000000000000000000000000000000000000000000000000000000082161415613806575b60008114156137fc5760046000836001900393508381526020019081526020016000205490506137d1565b809250505061383b565b505b5b6040517fdf2d9b4200000000000000000000000000000000000000000000000000000000815260040160405180910390fd5b919050565b60008060006006600085815260200190815260200160002090508092508254915050915091565b600073ffffffffffffffffffffffffffffffffffffffff8316925073ffffffffffffffffffffffffffffffffffffffff821691508382148383141790509392505050565b50505050565b60008060e883901c905060e86138c8868684614205565b62ffffff16901b9150509392505050565b600073ffffffffffffffffffffffffffffffffffffffff83169250814260a01b178317905092915050565b50505050565b6000806011541161391c57600061392b565b6011544261392a9190615774565b5b905090565b6000805490506000821415613971576040517fb562e8dd00000000000000000000000000000000000000000000000000000000815260040160405180910390fd5b61397e60008483856138ab565b600160406001901b178202600560008573ffffffffffffffffffffffffffffffffffffffff1673ffffffffffffffffffffffffffffffffffffffff168152602001908152602001600020600082825401925050819055506139f5836139e660008660006138b1565b6139ef8561420e565b176138d9565b6004600083815260200190815260200160002081905550600080838301905073ffffffffffffffffffffffffffffffffffffffff85169150828260007fddf252ad1be2c89b69c2b068fc378daa952ba7f163c4a11628f55a4df523b3ef600080a4600183015b818114613a9657808360007fddf252ad1be2c89b69c2b068fc378daa952ba7f163c4a11628f55a4df523b3ef600080a4600181019050613a5b565b506000821415613ad2576040517f2e07630000000000000000000000000000000000000000000000000000000000815260040160405180910390fd5b806000819055505050613ae86000848385613904565b505050565b60008373ffffffffffffffffffffffffffffffffffffffff1663150b7a02613b13613354565b8786866040518563ffffffff1660e01b8152600401613b3594939291906157fd565b602060405180830381600087803b158015613b4f57600080fd5b505af1925050508015613b8057506040513d601f19601f82011682018060405250810190613b7d919061585e565b60015b613bfa573d8060008114613bb0576040519150601f19603f3d011682016040523d82523d6000602084013e613bb5565b606091505b50600081511415613bf2576040517fd1a57ed600000000000000000000000000000000000000000000000000000000815260040160405180910390fd5b805181602001fd5b63150b7a0260e01b7bffffffffffffffffffffffffffffffffffffffffffffffffffffffff1916817bffffffffffffffffffffffffffffffffffffffffffffffffffffffff191614915050949350505050565b6060600f8054613c5c90614d86565b80601f0160208091040260200160405190810160405280929190818152602001828054613c8890614d86565b8015613cd55780601f10613caa57610100808354040283529160200191613cd5565b820191906000526020600020905b815481529060010190602001808311613cb857829003601f168201915b5050505050905090565b606060a060405101806040526020810391506000825281835b600115613d2357600184039350600a81066030018453600a8104905080613d1e57613d23565b613cf8565b50828103602084039350808452505050919050565b60007f000000000000000000000000000000000000000000000000000000000000000073ffffffffffffffffffffffffffffffffffffffff16634000aea07f00000000000000000000000000000000000000000000000000000000000000007f000000000000000000000000000000000000000000000000000000000000000073ffffffffffffffffffffffffffffffffffffffff16634306d354886040518263ffffffff1660e01b8152600401613df09190615675565b60206040518083038186803b158015613e0857600080fd5b505afa158015613e1c573d6000803e3d6000fd5b505050506040513d601f19601f82011682018060405250810190613e4091906153ba565b878787604051602001613e55939291906158a8565b6040516020818303038152906040526040518463ffffffff1660e01b8152600401613e82939291906158df565b602060405180830381600087803b158015613e9c57600080fd5b505af1158015613eb0573d6000803e3d6000fd5b505050506040513d601f19601f82011682018060405250810190613ed49190615425565b507f000000000000000000000000000000000000000000000000000000000000000073ffffffffffffffffffffffffffffffffffffffff1663fc2a88c36040518163ffffffff1660e01b815260040160206040518083038186803b158015613f3b57600080fd5b505afa158015613f4f573d6000803e3d6000fd5b505050506040513d601f19601f82011682018060405250810190613f7391906153ba565b90509392505050565b600860009054906101000a900473ffffffffffffffffffffffffffffffffffffffff1673ffffffffffffffffffffffffffffffffffffffff163373ffffffffffffffffffffffffffffffffffffffff161461400c576040517f08c379a000000000000000000000000000000000000000000000000000000000815260040161400390615969565b60405180910390fd5b565b3373ffffffffffffffffffffffffffffffffffffffff168173ffffffffffffffffffffffffffffffffffffffff16141561407d576040517f08c379a0000000000000000000000000000000000000000000000000000000008152600401614074906159d5565b60405180910390fd5b80600960006101000a81548173ffffffffffffffffffffffffffffffffffffffff021916908373ffffffffffffffffffffffffffffffffffffffff1602179055508073ffffffffffffffffffffffffffffffffffffffff16600860009054906101000a900473ffffffffffffffffffffffffffffffffffffffff1673ffffffffffffffffffffffffffffffffffffffff167fed8889f560326eb138920d842192f0eb3dd22b4f139c87a2c57538e05bae127860405160405180910390a350565b60008151905060006a636f6e736f6c652e6c6f679050602083016000808483855afa5050505050565b61420083838360405160240161417e939291906159f5565b6040516020818303038152906040527fca47c4eb000000000000000000000000000000000000000000000000000000007bffffffffffffffffffffffffffffffffffffffffffffffffffffffff19166020820180517bffffffffffffffffffffffffffffffffffffffffffffffffffffffff838183161783525050505061413d565b505050565b60009392505050565b60006001821460e11b9050919050565b82805461422a90614d86565b90600052602060002090601f01602090048101928261424c5760008555614293565b82601f1061426557805160ff1916838001178555614293565b82800160010185558215614293579182015b82811115614292578251825591602001919060010190614277565b5b5090506142a09190614364565b5090565b8280548282559060005260206000209081019282156142e0579160200282015b828111156142df5782518255916020019190600101906142c4565b5b5090506142ed9190614364565b5090565b508054600082559060005260206000209081019061430f9190614364565b50565b8280548282559060005260206000209081019282156143535760005260206000209182015b82811115614352578254825591600101919060010190614337565b5b5090506143609190614364565b5090565b5b8082111561437d576000816000905550600101614365565b5090565b6000604051905090565b600080fd5b600080fd5b60007fffffffff0000000000000000000000000000000000000000000000000000000082169050919050565b6143ca81614395565b81146143d557600080fd5b50565b6000813590506143e7816143c1565b92915050565b6000602082840312156144035761440261438b565b5b6000614411848285016143d8565b91505092915050565b60008115159050919050565b61442f8161441a565b82525050565b600060208201905061444a6000830184614426565b92915050565b600081519050919050565b600082825260208201905092915050565b60005b8381101561448a57808201518184015260208101905061446f565b83811115614499576000848401525b50505050565b6000601f19601f8301169050919050565b60006144bb82614450565b6144c5818561445b565b93506144d581856020860161446c565b6144de8161449f565b840191505092915050565b6000602082019050818103600083015261450381846144b0565b905092915050565b6000819050919050565b61451e8161450b565b811461452957600080fd5b50565b60008135905061453b81614515565b92915050565b6000602082840312156145575761455661438b565b5b60006145658482850161452c565b91505092915050565b600073ffffffffffffffffffffffffffffffffffffffff82169050919050565b60006145998261456e565b9050919050565b6145a98161458e565b82525050565b60006020820190506145c460008301846145a0565b92915050565b6145d38161458e565b81146145de57600080fd5b50565b6000813590506145f0816145ca565b92915050565b60006020828403121561460c5761460b61438b565b5b600061461a848285016145e1565b91505092915050565b61462c8161450b565b82525050565b60006020820190506146476000830184614623565b92915050565b600080604083850312156146645761466361438b565b5b6000614672858286016145e1565b92505060206146838582860161452c565b9150509250929050565b600080fd5b7f4e487b7100000000000000000000000000000000000000000000000000000000600052604160045260246000fd5b6146ca8261449f565b810181811067ffffffffffffffff821117156146e9576146e8614692565b5b80604052505050565b60006146fc614381565b905061470882826146c1565b919050565b600067ffffffffffffffff82111561472857614727614692565b5b602082029050602081019050919050565b600080fd5b600061475161474c8461470d565b6146f2565b9050808382526020820190506020840283018581111561477457614773614739565b5b835b8181101561479d5780614789888261452c565b845260208401935050602081019050614776565b5050509392505050565b600082601f8301126147bc576147bb61468d565b5b81356147cc84826020860161473e565b91505092915050565b600080604083850312156147ec576147eb61438b565b5b60006147fa8582860161452c565b925050602083013567ffffffffffffffff81111561481b5761481a614390565b5b614827858286016147a7565b9150509250929050565b60008060006060848603121561484a5761484961438b565b5b6000614858868287016145e1565b9350506020614869868287016145e1565b925050604061487a8682870161452c565b9150509250925092565b600080fd5b600067ffffffffffffffff8211156148a4576148a3614692565b5b6148ad8261449f565b9050602081019050919050565b82818337600083830152505050565b60006148dc6148d784614889565b6146f2565b9050828152602081018484840111156148f8576148f7614884565b5b6149038482856148ba565b509392505050565b600082601f8301126149205761491f61468d565b5b81356149308482602086016148c9565b91505092915050565b60006020828403121561494f5761494e61438b565b5b600082013567ffffffffffffffff81111561496d5761496c614390565b5b6149798482850161490b565b91505092915050565b600081519050919050565b600082825260208201905092915050565b6000819050602082019050919050565b6149b78161458e565b82525050565b60006149c983836149ae565b60208301905092915050565b6000602082019050919050565b60006149ed82614982565b6149f7818561498d565b9350614a028361499e565b8060005b83811015614a33578151614a1a88826149bd565b9750614a25836149d5565b925050600181019050614a06565b5085935050505092915050565b60006020820190508181036000830152614a5a81846149e2565b905092915050565b6000604082019050614a776000830185614623565b614a846020830184614426565b9392505050565b614a948161441a565b8114614a9f57600080fd5b50565b600081359050614ab181614a8b565b92915050565b60008060408385031215614ace57614acd61438b565b5b6000614adc858286016145e1565b9250506020614aed85828601614aa2565b9150509250929050565b600067ffffffffffffffff821115614b1257614b11614692565b5b614b1b8261449f565b9050602081019050919050565b6000614b3b614b3684614af7565b6146f2565b905082815260208101848484011115614b5757614b56614884565b5b614b628482856148ba565b509392505050565b600082601f830112614b7f57614b7e61468d565b5b8135614b8f848260208601614b28565b91505092915050565b60008060008060808587031215614bb257614bb161438b565b5b6000614bc0878288016145e1565b9450506020614bd1878288016145e1565b9350506040614be28782880161452c565b925050606085013567ffffffffffffffff811115614c0357614c02614390565b5b614c0f87828801614b6a565b91505092959194509250565b600081519050919050565b600082825260208201905092915050565b6000819050602082019050919050565b614c508161450b565b82525050565b6000614c628383614c47565b60208301905092915050565b6000602082019050919050565b6000614c8682614c1b565b614c908185614c26565b9350614c9b83614c37565b8060005b83811015614ccc578151614cb38882614c56565b9750614cbe83614c6e565b925050600181019050614c9f565b5085935050505092915050565b6000606082019050614cee6000830186614623565b614cfb6020830185614426565b8181036040830152614d0d8184614c7b565b9050949350505050565b60008060408385031215614d2e57614d2d61438b565b5b6000614d3c858286016145e1565b9250506020614d4d858286016145e1565b9150509250929050565b7f4e487b7100000000000000000000000000000000000000000000000000000000600052602260045260246000fd5b60006002820490506001821680614d9e57607f821691505b60208210811415614db257614db1614d57565b5b50919050565b7f4f6e6c79206f70657261746f722063616e2063616c6c2074686973206d65746860008201527f6f64000000000000000000000000000000000000000000000000000000000000602082015250565b6000614e1460228361445b565b9150614e1f82614db8565b604082019050919050565b60006020820190508181036000830152614e4381614e07565b9050919050565b7f4e487b7100000000000000000000000000000000000000000000000000000000600052603260045260246000fd5b7f4e487b7100000000000000000000000000000000000000000000000000000000600052601160045260246000fd5b6000614eb38261450b565b91507fffffffffffffffffffffffffffffffffffffffffffffffffffffffffffffffff821415614ee657614ee5614e79565b5b600182019050919050565b7f6f6e6c792056524620563220777261707065722063616e2066756c66696c6c00600082015250565b6000614f27601f8361445b565b9150614f3282614ef1565b602082019050919050565b60006020820190508181036000830152614f5681614f1a565b9050919050565b7f4c61756e636820616c7265616479207374617274656400000000000000000000600082015250565b6000614f9360168361445b565b9150614f9e82614f5d565b602082019050919050565b60006020820190508181036000830152614fc281614f86565b9050919050565b7f4d7573742062652070726f706f736564206f776e657200000000000000000000600082015250565b6000614fff60168361445b565b915061500a82614fc9565b602082019050919050565b6000602082019050818103600083015261502e81614ff2565b9050919050565b7f4c61756368206973206e6f742079657420737461727465640000000000000000600082015250565b600061506b60188361445b565b915061507682615035565b602082019050919050565b6000602082019050818103600083015261509a8161505e565b9050919050565b60006150ac8261450b565b91506150b78361450b565b9250827fffffffffffffffffffffffffffffffffffffffffffffffffffffffffffffffff038211156150ec576150eb614e79565b5b828201905092915050565b7f4c61756e63682077617320636c6f736564000000000000000000000000000000600082015250565b600061512d60118361445b565b9150615138826150f7565b602082019050919050565b6000602082019050818103600083015261515c81615120565b9050919050565b7f536574206174206c65617374206f6e6500000000000000000000000000000000600082015250565b600061519960108361445b565b91506151a482615163565b602082019050919050565b600060208201905081810360008301526151c88161518c565b9050919050565b7f5469636b65747320696e2061207472616e73616374696f6e2073686f756c642060008201527f6e6f7420657863656564204d41585f5045525f54580000000000000000000000602082015250565b600061522b60358361445b565b9150615236826151cf565b604082019050919050565b6000602082019050818103600083015261525a8161521e565b9050919050565b7f416e20616464726573732063616e6e6f7420627579204e465420726166666c6560008201527f207469636b657473206d6f7265207468616e204d41585f5045525f4144445200602082015250565b60006152bd603f8361445b565b91506152c882615261565b604082019050919050565b600060208201905081810360008301526152ec816152b0565b9050919050565b600081905092915050565b50565b600061530e6000836152f3565b9150615319826152fe565b600082019050919050565b600061532f82615301565b9150819050919050565b7f4661696c656420746f207472616e736665722045544800000000000000000000600082015250565b600061536f60168361445b565b915061537a82615339565b602082019050919050565b6000602082019050818103600083015261539e81615362565b9050919050565b6000815190506153b481614515565b92915050565b6000602082840312156153d0576153cf61438b565b5b60006153de848285016153a5565b91505092915050565b60006040820190506153fc60008301856145a0565b6154096020830184614623565b9392505050565b60008151905061541f81614a8b565b92915050565b60006020828403121561543b5761543a61438b565b5b600061544984828501615410565b91505092915050565b7f556e61626c6520746f207472616e736665720000000000000000000000000000600082015250565b600061548860128361445b565b915061549382615452565b602082019050919050565b600060208201905081810360008301526154b78161547b565b9050919050565b7f4e487b7100000000000000000000000000000000000000000000000000000000600052601260045260246000fd5b60006154f88261450b565b91506155038361450b565b925082615513576155126154be565b5b828206905092915050565b7f4c61756e6368206973206e6f7420796574207374617274656400000000000000600082015250565b600061555460198361445b565b915061555f8261551e565b602082019050919050565b6000602082019050818103600083015261558381615547565b9050919050565b600081905092915050565b60006155a082614450565b6155aa818561558a565b93506155ba81856020860161446c565b80840191505092915050565b60006155d28285615595565b91506155de8284615595565b91508190509392505050565b7f72657175657374206e6f7420666f756e64000000000000000000000000000000600082015250565b600061562060118361445b565b915061562b826155ea565b602082019050919050565b6000602082019050818103600083015261564f81615613565b9050919050565b600063ffffffff82169050919050565b61566f81615656565b82525050565b600060208201905061568a6000830184615666565b92915050565b60006040820190506156a56000830185614623565b6156b26020830184615666565b9392505050565b600060408201905081810360008301526156d381856144b0565b90506156e26020830184614623565b9392505050565b6000819050919050565b6157046156ff8261450b565b6156e9565b82525050565b600061571682856156f3565b60208201915061572682846156f3565b6020820191508190509392505050565b600060608201905061574b6000830186614623565b818103602083015261575d8185614c7b565b905061576c6040830184614623565b949350505050565b600061577f8261450b565b915061578a8361450b565b92508282101561579d5761579c614e79565b5b828203905092915050565b600081519050919050565b600082825260208201905092915050565b60006157cf826157a8565b6157d981856157b3565b93506157e981856020860161446c565b6157f28161449f565b840191505092915050565b600060808201905061581260008301876145a0565b61581f60208301866145a0565b61582c6040830185614623565b818103606083015261583e81846157c4565b905095945050505050565b600081519050615858816143c1565b92915050565b6000602082840312156158745761587361438b565b5b600061588284828501615849565b91505092915050565b600061ffff82169050919050565b6158a28161588b565b82525050565b60006060820190506158bd6000830186615666565b6158ca6020830185615899565b6158d76040830184615666565b949350505050565b60006060820190506158f460008301866145a0565b6159016020830185614623565b818103604083015261591381846157c4565b9050949350505050565b7f4f6e6c792063616c6c61626c65206279206f776e657200000000000000000000600082015250565b600061595360168361445b565b915061595e8261591d565b602082019050919050565b6000602082019050818103600083015261598281615946565b9050919050565b7f43616e6e6f74207472616e7366657220746f2073656c66000000000000000000600082015250565b60006159bf60178361445b565b91506159ca82615989565b602082019050919050565b600060208201905081810360008301526159ee816159b2565b9050919050565b60006060820190508181036000830152615a0f81866144b0565b9050615a1e6020830185614623565b615a2b6040830184614623565b94935050505056fea2646970667358221220785d93dfb47356667eeb5f12c95c7f28733c12259ac51ba251aebe2a450cd4ac64736f6c63430008090033",
  "linkReferences": {},
  "deployedLinkReferences": {}
}