{
  "_format": "hh-sol-artifact-1",
  "contractName": "LaunchNFTv2",
  "sourceName": "contracts/LaunchNFTv2.sol",
  "abi": [
    {
      "inputs": [],
      "stateMutability": "payable",
      "type": "constructor"
    },
    {
      "inputs": [],
      "name": "ApprovalCallerNotOwnerNorApproved",
      "type": "error"
    },
    {
      "inputs": [],
      "name": "ApprovalQueryForNonexistentToken",
      "type": "error"
    },
    {
      "inputs": [],
      "name": "BalanceQueryForZeroAddress",
      "type": "error"
    },
    {
      "inputs": [],
      "name": "MintERC2309QuantityExceedsLimit",
      "type": "error"
    },
    {
      "inputs": [],
      "name": "MintToZeroAddress",
      "type": "error"
    },
    {
      "inputs": [],
      "name": "MintZeroQuantity",
      "type": "error"
    },
    {
      "inputs": [],
      "name": "OwnerQueryForNonexistentToken",
      "type": "error"
    },
    {
      "inputs": [],
      "name": "OwnershipNotInitializedForExtraData",
      "type": "error"
    },
    {
      "inputs": [],
      "name": "TransferCallerNotOwnerNorApproved",
      "type": "error"
    },
    {
      "inputs": [],
      "name": "TransferFromIncorrectOwner",
      "type": "error"
    },
    {
      "inputs": [],
      "name": "TransferToNonERC721ReceiverImplementer",
      "type": "error"
    },
    {
      "inputs": [],
      "name": "TransferToZeroAddress",
      "type": "error"
    },
    {
      "inputs": [],
      "name": "URIQueryForNonexistentToken",
      "type": "error"
    },
    {
      "anonymous": false,
      "inputs": [
        {
          "indexed": true,
          "internalType": "address",
          "name": "owner",
          "type": "address"
        },
        {
          "indexed": true,
          "internalType": "address",
          "name": "approved",
          "type": "address"
        },
        {
          "indexed": true,
          "internalType": "uint256",
          "name": "tokenId",
          "type": "uint256"
        }
      ],
      "name": "Approval",
      "type": "event"
    },
    {
      "anonymous": false,
      "inputs": [
        {
          "indexed": true,
          "internalType": "address",
          "name": "owner",
          "type": "address"
        },
        {
          "indexed": true,
          "internalType": "address",
          "name": "operator",
          "type": "address"
        },
        {
          "indexed": false,
          "internalType": "bool",
          "name": "approved",
          "type": "bool"
        }
      ],
      "name": "ApprovalForAll",
      "type": "event"
    },
    {
      "anonymous": false,
      "inputs": [
        {
          "indexed": true,
          "internalType": "uint256",
          "name": "fromTokenId",
          "type": "uint256"
        },
        {
          "indexed": false,
          "internalType": "uint256",
          "name": "toTokenId",
          "type": "uint256"
        },
        {
          "indexed": true,
          "internalType": "address",
          "name": "from",
          "type": "address"
        },
        {
          "indexed": true,
          "internalType": "address",
          "name": "to",
          "type": "address"
        }
      ],
      "name": "ConsecutiveTransfer",
      "type": "event"
    },
    {
      "anonymous": false,
      "inputs": [
        {
          "indexed": true,
          "internalType": "uint256",
          "name": "_Duration",
          "type": "uint256"
        },
        {
          "indexed": true,
          "internalType": "uint256",
          "name": "_startTime",
          "type": "uint256"
        }
      ],
      "name": "LaunchStart",
      "type": "event"
    },
    {
      "anonymous": false,
      "inputs": [
        {
          "indexed": true,
          "internalType": "uint256",
          "name": "_timeElapsed",
          "type": "uint256"
        },
        {
          "indexed": true,
          "internalType": "uint256",
          "name": "_endTime",
          "type": "uint256"
        }
      ],
      "name": "LaunchStop",
      "type": "event"
    },
    {
      "anonymous": false,
      "inputs": [
        {
          "indexed": true,
          "internalType": "address",
          "name": "from",
          "type": "address"
        },
        {
          "indexed": true,
          "internalType": "address",
          "name": "to",
          "type": "address"
        }
      ],
      "name": "OwnershipTransferRequested",
      "type": "event"
    },
    {
      "anonymous": false,
      "inputs": [
        {
          "indexed": true,
          "internalType": "address",
          "name": "from",
          "type": "address"
        },
        {
          "indexed": true,
          "internalType": "address",
          "name": "to",
          "type": "address"
        }
      ],
      "name": "OwnershipTransferred",
      "type": "event"
    },
    {
      "anonymous": false,
      "inputs": [
        {
          "indexed": true,
          "internalType": "address",
          "name": "sender",
          "type": "address"
        },
        {
          "indexed": true,
          "internalType": "uint256",
          "name": "num",
          "type": "uint256"
        }
      ],
      "name": "ParticipateIn",
      "type": "event"
    },
    {
      "anonymous": false,
      "inputs": [
        {
          "indexed": true,
          "internalType": "address",
          "name": "from",
          "type": "address"
        },
        {
          "indexed": true,
          "internalType": "address",
          "name": "to",
          "type": "address"
        },
        {
          "indexed": true,
          "internalType": "uint256",
          "name": "tokenId",
          "type": "uint256"
        }
      ],
      "name": "Transfer",
      "type": "event"
    },
    {
      "inputs": [],
      "name": "MAX_PER_ADDR",
      "outputs": [
        {
          "internalType": "uint256",
          "name": "",
          "type": "uint256"
        }
      ],
      "stateMutability": "view",
      "type": "function"
    },
    {
      "inputs": [],
      "name": "MAX_PER_TX",
      "outputs": [
        {
          "internalType": "uint256",
          "name": "",
          "type": "uint256"
        }
      ],
      "stateMutability": "view",
      "type": "function"
    },
    {
      "inputs": [],
      "name": "PRICE_PER_TICKET",
      "outputs": [
        {
          "internalType": "uint256",
          "name": "",
          "type": "uint256"
        }
      ],
      "stateMutability": "view",
      "type": "function"
    },
    {
      "inputs": [],
      "name": "TOTAL_SUPPLY",
      "outputs": [
        {
          "internalType": "uint256",
          "name": "",
          "type": "uint256"
        }
      ],
      "stateMutability": "view",
      "type": "function"
    },
    {
      "inputs": [],
      "name": "acceptOwnership",
      "outputs": [],
      "stateMutability": "nonpayable",
      "type": "function"
    },
    {
      "inputs": [
        {
          "internalType": "address",
          "name": "to",
          "type": "address"
        },
        {
          "internalType": "uint256",
          "name": "tokenId",
          "type": "uint256"
        }
      ],
      "name": "approve",
      "outputs": [],
      "stateMutability": "payable",
      "type": "function"
    },
    {
      "inputs": [
        {
          "internalType": "address",
          "name": "owner",
          "type": "address"
        }
      ],
      "name": "balanceOf",
      "outputs": [
        {
          "internalType": "uint256",
          "name": "",
          "type": "uint256"
        }
      ],
      "stateMutability": "view",
      "type": "function"
    },
    {
      "inputs": [
        {
          "internalType": "address",
          "name": "",
          "type": "address"
        }
      ],
      "name": "countOfwins",
      "outputs": [
        {
          "internalType": "uint256",
          "name": "",
          "type": "uint256"
        }
      ],
      "stateMutability": "view",
      "type": "function"
    },
    {
      "inputs": [],
      "name": "durationOfLaunch",
      "outputs": [
        {
          "internalType": "uint256",
          "name": "",
          "type": "uint256"
        }
      ],
      "stateMutability": "view",
      "type": "function"
    },
    {
      "inputs": [
        {
          "internalType": "uint256",
          "name": "index",
          "type": "uint256"
        }
      ],
      "name": "getAccount",
      "outputs": [
        {
          "internalType": "address",
          "name": "",
          "type": "address"
        }
      ],
      "stateMutability": "view",
      "type": "function"
    },
    {
      "inputs": [
        {
          "internalType": "uint256",
          "name": "tokenId",
          "type": "uint256"
        }
      ],
      "name": "getApproved",
      "outputs": [
        {
          "internalType": "address",
          "name": "",
          "type": "address"
        }
      ],
      "stateMutability": "view",
      "type": "function"
    },
    {
      "inputs": [],
      "name": "getParticipants",
      "outputs": [
        {
          "internalType": "address[]",
          "name": "",
          "type": "address[]"
        }
      ],
      "stateMutability": "view",
      "type": "function"
    },
    {
      "inputs": [],
      "name": "getRandomSeed",
      "outputs": [
        {
          "internalType": "uint256",
          "name": "",
          "type": "uint256"
        }
      ],
      "stateMutability": "view",
      "type": "function"
    },
    {
      "inputs": [],
      "name": "getWinners",
      "outputs": [
        {
          "internalType": "address[]",
          "name": "",
          "type": "address[]"
        }
      ],
      "stateMutability": "view",
      "type": "function"
    },
    {
      "inputs": [],
      "name": "initAll",
      "outputs": [],
      "stateMutability": "nonpayable",
      "type": "function"
    },
    {
      "inputs": [
        {
          "internalType": "address",
          "name": "owner",
          "type": "address"
        },
        {
          "internalType": "address",
          "name": "operator",
          "type": "address"
        }
      ],
      "name": "isApprovedForAll",
      "outputs": [
        {
          "internalType": "bool",
          "name": "",
          "type": "bool"
        }
      ],
      "stateMutability": "view",
      "type": "function"
    },
    {
      "inputs": [],
      "name": "isParticipateActive",
      "outputs": [
        {
          "internalType": "bool",
          "name": "",
          "type": "bool"
        }
      ],
      "stateMutability": "view",
      "type": "function"
    },
    {
      "inputs": [],
      "name": "launchStartTime",
      "outputs": [
        {
          "internalType": "uint256",
          "name": "",
          "type": "uint256"
        }
      ],
      "stateMutability": "view",
      "type": "function"
    },
    {
      "inputs": [],
      "name": "launchStopTime",
      "outputs": [
        {
          "internalType": "uint256",
          "name": "",
          "type": "uint256"
        }
      ],
      "stateMutability": "view",
      "type": "function"
    },
    {
      "inputs": [
        {
          "internalType": "uint256",
          "name": "",
          "type": "uint256"
        }
      ],
      "name": "listOfParticipants",
      "outputs": [
        {
          "internalType": "address",
          "name": "",
          "type": "address"
        }
      ],
      "stateMutability": "view",
      "type": "function"
    },
    {
      "inputs": [],
      "name": "maxPerAddr",
      "outputs": [
        {
          "internalType": "uint256",
          "name": "",
          "type": "uint256"
        }
      ],
      "stateMutability": "view",
      "type": "function"
    },
    {
      "inputs": [],
      "name": "maxPerTx",
      "outputs": [
        {
          "internalType": "uint256",
          "name": "",
          "type": "uint256"
        }
      ],
      "stateMutability": "view",
      "type": "function"
    },
    {
      "inputs": [],
      "name": "name",
      "outputs": [
        {
          "internalType": "string",
          "name": "",
          "type": "string"
        }
      ],
      "stateMutability": "view",
      "type": "function"
    },
    {
      "inputs": [],
      "name": "numOfwinners",
      "outputs": [
        {
          "internalType": "uint256",
          "name": "",
          "type": "uint256"
        }
      ],
      "stateMutability": "view",
      "type": "function"
    },
    {
      "inputs": [],
      "name": "operator",
      "outputs": [
        {
          "internalType": "address",
          "name": "",
          "type": "address"
        }
      ],
      "stateMutability": "view",
      "type": "function"
    },
    {
      "inputs": [],
      "name": "owner",
      "outputs": [
        {
          "internalType": "address",
          "name": "",
          "type": "address"
        }
      ],
      "stateMutability": "view",
      "type": "function"
    },
    {
      "inputs": [
        {
          "internalType": "uint256",
          "name": "tokenId",
          "type": "uint256"
        }
      ],
      "name": "ownerOf",
      "outputs": [
        {
          "internalType": "address",
          "name": "",
          "type": "address"
        }
      ],
      "stateMutability": "view",
      "type": "function"
    },
    {
      "inputs": [
        {
          "internalType": "uint256",
          "name": "num",
          "type": "uint256"
        }
      ],
      "name": "participateInLaunch",
      "outputs": [],
      "stateMutability": "payable",
      "type": "function"
    },
    {
      "inputs": [
        {
          "internalType": "address",
          "name": "",
          "type": "address"
        }
      ],
      "name": "participatedPerAddress",
      "outputs": [
        {
          "internalType": "uint256",
          "name": "",
          "type": "uint256"
        }
      ],
      "stateMutability": "view",
      "type": "function"
    },
    {
      "inputs": [
        {
          "internalType": "uint256",
          "name": "_requestId",
          "type": "uint256"
        },
        {
          "internalType": "uint256[]",
          "name": "_randomWords",
          "type": "uint256[]"
        }
      ],
      "name": "rawFulfillRandomWords",
      "outputs": [],
      "stateMutability": "nonpayable",
      "type": "function"
    },
    {
      "inputs": [],
      "name": "requestRandomSeed",
      "outputs": [
        {
          "internalType": "uint256",
          "name": "",
          "type": "uint256"
        }
      ],
      "stateMutability": "nonpayable",
      "type": "function"
    },
    {
      "inputs": [
        {
          "internalType": "address",
          "name": "from",
          "type": "address"
        },
        {
          "internalType": "address",
          "name": "to",
          "type": "address"
        },
        {
          "internalType": "uint256",
          "name": "tokenId",
          "type": "uint256"
        }
      ],
      "name": "safeTransferFrom",
      "outputs": [],
      "stateMutability": "payable",
      "type": "function"
    },
    {
      "inputs": [
        {
          "internalType": "address",
          "name": "from",
          "type": "address"
        },
        {
          "internalType": "address",
          "name": "to",
          "type": "address"
        },
        {
          "internalType": "uint256",
          "name": "tokenId",
          "type": "uint256"
        },
        {
          "internalType": "bytes",
          "name": "_data",
          "type": "bytes"
        }
      ],
      "name": "safeTransferFrom",
      "outputs": [],
      "stateMutability": "payable",
      "type": "function"
    },
    {
      "inputs": [],
      "name": "selectWinners",
      "outputs": [],
      "stateMutability": "nonpayable",
      "type": "function"
    },
    {
      "inputs": [],
      "name": "selectWinnersV2",
      "outputs": [],
      "stateMutability": "nonpayable",
      "type": "function"
    },
    {
      "inputs": [
        {
          "internalType": "address",
          "name": "operator",
          "type": "address"
        },
        {
          "internalType": "bool",
          "name": "approved",
          "type": "bool"
        }
      ],
      "name": "setApprovalForAll",
      "outputs": [],
      "stateMutability": "nonpayable",
      "type": "function"
    },
    {
      "inputs": [
        {
          "internalType": "string",
          "name": "uri",
          "type": "string"
        }
      ],
      "name": "setBaseURI",
      "outputs": [],
      "stateMutability": "nonpayable",
      "type": "function"
    },
    {
      "inputs": [
        {
          "internalType": "uint256",
          "name": "_duration",
          "type": "uint256"
        }
      ],
      "name": "setDuration",
      "outputs": [],
      "stateMutability": "nonpayable",
      "type": "function"
    },
    {
      "inputs": [
        {
          "internalType": "uint256",
          "name": "num",
          "type": "uint256"
        }
      ],
      "name": "setRandomSeed",
      "outputs": [],
      "stateMutability": "nonpayable",
      "type": "function"
    },
    {
      "inputs": [],
      "name": "settlement",
      "outputs": [],
      "stateMutability": "nonpayable",
      "type": "function"
    },
    {
      "inputs": [],
      "name": "startLaunch",
      "outputs": [],
      "stateMutability": "nonpayable",
      "type": "function"
    },
    {
      "inputs": [],
      "name": "stopLaunch",
      "outputs": [],
      "stateMutability": "nonpayable",
      "type": "function"
    },
    {
      "inputs": [
        {
          "internalType": "bytes4",
          "name": "interfaceId",
          "type": "bytes4"
        }
      ],
      "name": "supportsInterface",
      "outputs": [
        {
          "internalType": "bool",
          "name": "",
          "type": "bool"
        }
      ],
      "stateMutability": "view",
      "type": "function"
    },
    {
      "inputs": [],
      "name": "symbol",
      "outputs": [
        {
          "internalType": "string",
          "name": "",
          "type": "string"
        }
      ],
      "stateMutability": "view",
      "type": "function"
    },
    {
      "inputs": [
        {
          "internalType": "uint256",
          "name": "",
          "type": "uint256"
        }
      ],
      "name": "tempList",
      "outputs": [
        {
          "internalType": "address",
          "name": "",
          "type": "address"
        }
      ],
      "stateMutability": "view",
      "type": "function"
    },
    {
      "inputs": [
        {
          "internalType": "uint256",
          "name": "tokenId",
          "type": "uint256"
        }
      ],
      "name": "tokenURI",
      "outputs": [
        {
          "internalType": "string",
          "name": "",
          "type": "string"
        }
      ],
      "stateMutability": "view",
      "type": "function"
    },
    {
      "inputs": [],
      "name": "totalSupply",
      "outputs": [
        {
          "internalType": "uint256",
          "name": "",
          "type": "uint256"
        }
      ],
      "stateMutability": "view",
      "type": "function"
    },
    {
      "inputs": [
        {
          "internalType": "address",
          "name": "from",
          "type": "address"
        },
        {
          "internalType": "address",
          "name": "to",
          "type": "address"
        },
        {
          "internalType": "uint256",
          "name": "tokenId",
          "type": "uint256"
        }
      ],
      "name": "transferFrom",
      "outputs": [],
      "stateMutability": "payable",
      "type": "function"
    },
    {
      "inputs": [
        {
          "internalType": "address",
          "name": "to",
          "type": "address"
        }
      ],
      "name": "transferOwnership",
      "outputs": [],
      "stateMutability": "nonpayable",
      "type": "function"
    },
    {
      "inputs": [],
      "name": "vrfRequestId",
      "outputs": [
        {
          "internalType": "uint256",
          "name": "",
          "type": "uint256"
        }
      ],
      "stateMutability": "view",
      "type": "function"
    },
    {
      "inputs": [
        {
          "internalType": "uint256",
          "name": "",
          "type": "uint256"
        }
      ],
      "name": "winners",
      "outputs": [
        {
          "internalType": "address",
          "name": "",
          "type": "address"
        }
      ],
      "stateMutability": "view",
      "type": "function"
    },
    {
      "inputs": [],
      "name": "withdrawLink",
      "outputs": [],
      "stateMutability": "nonpayable",
      "type": "function"
    },
    {
      "stateMutability": "payable",
      "type": "receive"
    }
  ],
  "bytecode": "0x60c060405273326c977e6efc84e512bb9c30f76e30c160ed06fb600b60006101000a81548173ffffffffffffffffffffffffffffffffffffffff021916908373ffffffffffffffffffffffffffffffffffffffff16021790555073708701a1dff4f478de54383e49a627ed4852c816600c60006101000a81548173ffffffffffffffffffffffffffffffffffffffff021916908373ffffffffffffffffffffffffffffffffffffffff160217905550620186a0600c60146101000a81548163ffffffff021916908363ffffffff1602179055506003600c60186101000a81548161ffff021916908361ffff1602179055506001600c601a6101000a81548163ffffffff021916908363ffffffff1602179055506000600e60146101000a81548160ff02191690831515021790555061012c6011556000601555604051806101e0016040528073d119a4b0ecab5983e74a8f9ac8e1f32c48efcfcf73ffffffffffffffffffffffffffffffffffffffff1673ffffffffffffffffffffffffffffffffffffffff16815260200173f9ef4b1d33ae37dfe5f82e1b91ffd12d62d5551a73ffffffffffffffffffffffffffffffffffffffff1673ffffffffffffffffffffffffffffffffffffffff16815260200173034c9f2d589aa70b963bbc90929b55fd2689067873ffffffffffffffffffffffffffffffffffffffff1673ffffffffffffffffffffffffffffffffffffffff16815260200173e06644881f40f96a74eff6224ece45f1068a5fc173ffffffffffffffffffffffffffffffffffffffff1673ffffffffffffffffffffffffffffffffffffffff168152602001732a19ff2f460df0b1446e6cdae8ae646390800e1e73ffffffffffffffffffffffffffffffffffffffff1673ffffffffffffffffffffffffffffffffffffffff16815260200173dd24313433d5b670e43e24d63dcb487ad2d29ec873ffffffffffffffffffffffffffffffffffffffff1673ffffffffffffffffffffffffffffffffffffffff16815260200173a50eef1178b2c3ef8c73d0eebbcd14f3f87e7e6b73ffffffffffffffffffffffffffffffffffffffff1673ffffffffffffffffffffffffffffffffffffffff168152602001739160a61c08884d418dc0cff6523fd5362da5410e73ffffffffffffffffffffffffffffffffffffffff1673ffffffffffffffffffffffffffffffffffffffff16815260200173572d94477d3df3a7ee78230dc86a1af27f41907c73ffffffffffffffffffffffffffffffffffffffff1673ffffffffffffffffffffffffffffffffffffffff16815260200173b6f737e9787d90af7c06ef3e287f84dbb293483873ffffffffffffffffffffffffffffffffffffffff1673ffffffffffffffffffffffffffffffffffffffff16815260200173ce6d662d7611e100cc16c372fd2c5abe1734cb5573ffffffffffffffffffffffffffffffffffffffff1673ffffffffffffffffffffffffffffffffffffffff16815260200173a6e63083b5e72a06b907403e1850e1380c89581673ffffffffffffffffffffffffffffffffffffffff1673ffffffffffffffffffffffffffffffffffffffff16815260200173cdc6fa0c30d171c3cfdbf283ad30b618afbf29a173ffffffffffffffffffffffffffffffffffffffff1673ffffffffffffffffffffffffffffffffffffffff16815260200173ee8229352c7f7501dde85d253bd9c574a639695373ffffffffffffffffffffffffffffffffffffffff1673ffffffffffffffffffffffffffffffffffffffff16815260200173221bc9a22caaa1e27c317244573e7081d3e2628c73ffffffffffffffffffffffffffffffffffffffff1673ffffffffffffffffffffffffffffffffffffffff16815250601690600f6200056e92919062000a38565b50601660179080546200058392919062000ac7565b506005601a5533806000600b60009054906101000a900473ffffffffffffffffffffffffffffffffffffffff16600c60009054906101000a900473ffffffffffffffffffffffffffffffffffffffff166040518060400160405280600981526020017f4c61756e63684e465400000000000000000000000000000000000000000000008152506040518060400160405280600381526020017f4e4654000000000000000000000000000000000000000000000000000000000081525081600290805190602001906200065792919062000b1e565b5080600390805190602001906200067092919062000b1e565b50620006816200081860201b60201c565b60008190555050508173ffffffffffffffffffffffffffffffffffffffff1660808173ffffffffffffffffffffffffffffffffffffffff16815250508073ffffffffffffffffffffffffffffffffffffffff1660a08173ffffffffffffffffffffffffffffffffffffffff16815250505050600073ffffffffffffffffffffffffffffffffffffffff168273ffffffffffffffffffffffffffffffffffffffff16141562000766576040517f08c379a00000000000000000000000000000000000000000000000000000000081526004016200075d9062000c2f565b60405180910390fd5b81600860006101000a81548173ffffffffffffffffffffffffffffffffffffffff021916908373ffffffffffffffffffffffffffffffffffffffff160217905550600073ffffffffffffffffffffffffffffffffffffffff168173ffffffffffffffffffffffffffffffffffffffff1614620007ee57620007ed816200081d60201b60201c565b5b50505062000802336200094f60201b60201c565b6002601281905550600260138190555062000d9a565b600090565b3373ffffffffffffffffffffffffffffffffffffffff168173ffffffffffffffffffffffffffffffffffffffff1614156200088f576040517f08c379a0000000000000000000000000000000000000000000000000000000008152600401620008869062000ca1565b60405180910390fd5b80600960006101000a81548173ffffffffffffffffffffffffffffffffffffffff021916908373ffffffffffffffffffffffffffffffffffffffff1602179055508073ffffffffffffffffffffffffffffffffffffffff16600860009054906101000a900473ffffffffffffffffffffffffffffffffffffffff1673ffffffffffffffffffffffffffffffffffffffff167fed8889f560326eb138920d842192f0eb3dd22b4f139c87a2c57538e05bae127860405160405180910390a350565b6200095f620009a360201b60201c565b80600e60006101000a81548173ffffffffffffffffffffffffffffffffffffffff021916908373ffffffffffffffffffffffffffffffffffffffff16021790555050565b600860009054906101000a900473ffffffffffffffffffffffffffffffffffffffff1673ffffffffffffffffffffffffffffffffffffffff163373ffffffffffffffffffffffffffffffffffffffff161462000a36576040517f08c379a000000000000000000000000000000000000000000000000000000000815260040162000a2d9062000d13565b60405180910390fd5b565b82805482825590600052602060002090810192821562000ab4579160200282015b8281111562000ab35782518260006101000a81548173ffffffffffffffffffffffffffffffffffffffff021916908373ffffffffffffffffffffffffffffffffffffffff1602179055509160200191906001019062000a59565b5b50905062000ac3919062000baf565b5090565b82805482825590600052602060002090810192821562000b0b5760005260206000209182015b8281111562000b0a57825482559160010191906001019062000aed565b5b50905062000b1a919062000baf565b5090565b82805462000b2c9062000d64565b90600052602060002090601f01602090048101928262000b50576000855562000b9c565b82601f1062000b6b57805160ff191683800117855562000b9c565b8280016001018555821562000b9c579182015b8281111562000b9b57825182559160200191906001019062000b7e565b5b50905062000bab919062000baf565b5090565b5b8082111562000bca57600081600090555060010162000bb0565b5090565b600082825260208201905092915050565b7f43616e6e6f7420736574206f776e657220746f207a65726f0000000000000000600082015250565b600062000c1760188362000bce565b915062000c248262000bdf565b602082019050919050565b6000602082019050818103600083015262000c4a8162000c08565b9050919050565b7f43616e6e6f74207472616e7366657220746f2073656c66000000000000000000600082015250565b600062000c8960178362000bce565b915062000c968262000c51565b602082019050919050565b6000602082019050818103600083015262000cbc8162000c7a565b9050919050565b7f4f6e6c792063616c6c61626c65206279206f776e657200000000000000000000600082015250565b600062000cfb60168362000bce565b915062000d088262000cc3565b602082019050919050565b6000602082019050818103600083015262000d2e8162000cec565b9050919050565b7f4e487b7100000000000000000000000000000000000000000000000000000000600052602260045260246000fd5b6000600282049050600182168062000d7d57607f821691505b6020821081141562000d945762000d9362000d35565b5b50919050565b60805160a05161532162000dd56000396000818161119d0152818161397c0152818161399d0152613adb0152600061394001526153216000f3fe6080604052600436106103035760003560e01c80637bb501ec11610190578063b88d4fde116100dc578063e985e9c511610095578063f2fde38b1161006f578063f2fde38b14610b04578063f43a22dc14610b2d578063f6be71d114610b58578063f968adbe14610b815761030a565b8063e985e9c514610a71578063ea99881214610aae578063f25f299614610ad95761030a565b8063b88d4fde1461095a578063c87b56dd14610976578063c8cf3232146109b3578063ce88b145146109de578063df15c37e14610a1b578063e1da26c614610a465761030a565b8063903a593e11610149578063a22cb46511610123578063a22cb465146108b2578063a2fb1175146108db578063aaf96ff514610918578063b22a98151461092f5761030a565b8063903a593e1461081f57806393b3cc6b1461085c57806395d89b41146108875761030a565b80637bb501ec1461072e578063811d8526146107595780638461b706146107755780638da5cb5b146107b25780638dc654a2146107dd578063902d55a5146107f45761030a565b8063511606301161024f5780635aa68ac0116102085780636d5eac26116101e25780636d5eac26146106845780636de652b7146106af57806370a08231146106da57806379ba5097146107175761030a565b80635aa68ac0146105f35780636352211e1461061e57806366fea1d41461065b5761030a565b8063511606301461051d5780635319a3121461053457806355f804b314610571578063570ca7351461059a57806357979295146105c557806359a945e9146105dc5761030a565b806318a7ea5f116102bc5780632323c183116102965780632323c183146104a357806323b872dd146104ba5780632c97fab9146104d657806342842e0e146105015761030a565b806318a7ea5f146104385780631a0de74c146104635780631fe543e31461047a5761030a565b806301ffc9a71461030f57806306fdde031461034c578063081812fc1461037757806309495f88146103b4578063095ea7b3146103f157806318160ddd1461040d5761030a565b3661030a57005b600080fd5b34801561031b57600080fd5b5061033660048036038101906103319190613edc565b610bac565b6040516103439190613f24565b60405180910390f35b34801561035857600080fd5b50610361610c3e565b60405161036e9190613fd8565b60405180910390f35b34801561038357600080fd5b5061039e60048036038101906103999190614030565b610cd0565b6040516103ab919061409e565b60405180910390f35b3480156103c057600080fd5b506103db60048036038101906103d691906140e5565b610d4f565b6040516103e89190614121565b60405180910390f35b61040b6004803603810190610406919061413c565b610d67565b005b34801561041957600080fd5b50610422610eab565b60405161042f9190614121565b60405180910390f35b34801561044457600080fd5b5061044d610ec2565b60405161045a9190614121565b60405180910390f35b34801561046f57600080fd5b50610478610ec8565b005b34801561048657600080fd5b506104a1600480360381019061049c91906142c4565b61119b565b005b3480156104af57600080fd5b506104b8611237565b005b6104d460048036038101906104cf9190614320565b611380565b005b3480156104e257600080fd5b506104eb6116a5565b6040516104f89190614121565b60405180910390f35b61051b60048036038101906105169190614320565b6116aa565b005b34801561052957600080fd5b506105326116ca565b005b34801561054057600080fd5b5061055b600480360381019061055691906140e5565b6119c2565b6040516105689190614121565b60405180910390f35b34801561057d57600080fd5b5061059860048036038101906105939190614428565b6119da565b005b3480156105a657600080fd5b506105af611a84565b6040516105bc919061409e565b60405180910390f35b3480156105d157600080fd5b506105da611aaa565b005b3480156105e857600080fd5b506105f1611cc1565b005b3480156105ff57600080fd5b50610608611df7565b604051610615919061452f565b60405180910390f35b34801561062a57600080fd5b5061064560048036038101906106409190614030565b611e85565b604051610652919061409e565b60405180910390f35b34801561066757600080fd5b50610682600480360381019061067d9190614030565b611e97565b005b34801561069057600080fd5b50610699611f31565b6040516106a69190614121565b60405180910390f35b3480156106bb57600080fd5b506106c4611f37565b6040516106d19190614121565b60405180910390f35b3480156106e657600080fd5b5061070160048036038101906106fc91906140e5565b611f42565b60405161070e9190614121565b60405180910390f35b34801561072357600080fd5b5061072c611ffb565b005b34801561073a57600080fd5b50610743612192565b6040516107509190614121565b60405180910390f35b610773600480360381019061076e9190614030565b612198565b005b34801561078157600080fd5b5061079c60048036038101906107979190614030565b61248c565b6040516107a9919061409e565b60405180910390f35b3480156107be57600080fd5b506107c76124cb565b6040516107d4919061409e565b60405180910390f35b3480156107e957600080fd5b506107f26124f5565b005b34801561080057600080fd5b50610809612703565b6040516108169190614121565b60405180910390f35b34801561082b57600080fd5b5061084660048036038101906108419190614030565b612708565b604051610853919061409e565b60405180910390f35b34801561086857600080fd5b50610871612747565b60405161087e9190614121565b60405180910390f35b34801561089357600080fd5b5061089c612751565b6040516108a99190613fd8565b60405180910390f35b3480156108be57600080fd5b506108d960048036038101906108d4919061457d565b6127e3565b005b3480156108e757600080fd5b5061090260048036038101906108fd9190614030565b6128ee565b60405161090f919061409e565b60405180910390f35b34801561092457600080fd5b5061092d61292d565b005b34801561093b57600080fd5b50610944612aa8565b6040516109519190614121565b60405180910390f35b610974600480360381019061096f919061465e565b612aae565b005b34801561098257600080fd5b5061099d60048036038101906109989190614030565b612b21565b6040516109aa9190613fd8565b60405180910390f35b3480156109bf57600080fd5b506109c8612bc0565b6040516109d59190614121565b60405180910390f35b3480156109ea57600080fd5b50610a056004803603810190610a009190614030565b612bc6565b604051610a12919061409e565b60405180910390f35b348015610a2757600080fd5b50610a30612c0e565b604051610a3d919061452f565b60405180910390f35b348015610a5257600080fd5b50610a5b612c9c565b604051610a689190614121565b60405180910390f35b348015610a7d57600080fd5b50610a986004803603810190610a9391906146e1565b612d7b565b604051610aa59190613f24565b60405180910390f35b348015610aba57600080fd5b50610ac3612e0f565b604051610ad09190614121565b60405180910390f35b348015610ae557600080fd5b50610aee612e15565b604051610afb9190613f24565b60405180910390f35b348015610b1057600080fd5b50610b2b6004803603810190610b2691906140e5565b612e28565b005b348015610b3957600080fd5b50610b42612e3c565b604051610b4f9190614121565b60405180910390f35b348015610b6457600080fd5b50610b7f6004803603810190610b7a9190614030565b612e41565b005b348015610b8d57600080fd5b50610b96612edb565b604051610ba39190614121565b60405180910390f35b60006301ffc9a760e01b827bffffffffffffffffffffffffffffffffffffffffffffffffffffffff19161480610c0757506380ac58cd60e01b827bffffffffffffffffffffffffffffffffffffffffffffffffffffffff1916145b80610c375750635b5e139f60e01b827bffffffffffffffffffffffffffffffffffffffffffffffffffffffff1916145b9050919050565b606060028054610c4d90614750565b80601f0160208091040260200160405190810160405280929190818152602001828054610c7990614750565b8015610cc65780601f10610c9b57610100808354040283529160200191610cc6565b820191906000526020600020905b815481529060010190602001808311610ca957829003601f168201915b5050505050905090565b6000610cdb82612ee1565b610d11576040517fcf4700e400000000000000000000000000000000000000000000000000000000815260040160405180910390fd5b6006600083815260200190815260200160002060000160009054906101000a900473ffffffffffffffffffffffffffffffffffffffff169050919050565b601b6020528060005260406000206000915090505481565b6000610d7282611e85565b90508073ffffffffffffffffffffffffffffffffffffffff16610d93612f40565b73ffffffffffffffffffffffffffffffffffffffff1614610df657610dbf81610dba612f40565b612d7b565b610df5576040517fcfb3b94200000000000000000000000000000000000000000000000000000000815260040160405180910390fd5b5b826006600084815260200190815260200160002060000160006101000a81548173ffffffffffffffffffffffffffffffffffffffff021916908373ffffffffffffffffffffffffffffffffffffffff160217905550818373ffffffffffffffffffffffffffffffffffffffff168273ffffffffffffffffffffffffffffffffffffffff167f8c5be1e5ebec7d5bd14f71427d1e84f3dd0314c0f7b2291e5b200ac8c7c3b92560405160405180910390a4505050565b6000610eb5612f48565b6001546000540303905090565b600a5481565b3373ffffffffffffffffffffffffffffffffffffffff16600e60009054906101000a900473ffffffffffffffffffffffffffffffffffffffff1673ffffffffffffffffffffffffffffffffffffffff1614610f58576040517f08c379a0000000000000000000000000000000000000000000000000000000008152600401610f4f906147f4565b60405180910390fd5b6000610f62612747565b905060005b601a546019805490501461119757600073ffffffffffffffffffffffffffffffffffffffff1660178381548110610fa157610fa0614814565b5b9060005260206000200160009054906101000a900473ffffffffffffffffffffffffffffffffffffffff1673ffffffffffffffffffffffffffffffffffffffff161461117a57601960178381548110610ffd57610ffc614814565b5b9060005260206000200160009054906101000a900473ffffffffffffffffffffffffffffffffffffffff169080600181540180825580915050600190039060005260206000200160009091909190916101000a81548173ffffffffffffffffffffffffffffffffffffffff021916908373ffffffffffffffffffffffffffffffffffffffff160217905550601b6000601784815481106110a05761109f614814565b5b9060005260206000200160009054906101000a900473ffffffffffffffffffffffffffffffffffffffff1673ffffffffffffffffffffffffffffffffffffffff1673ffffffffffffffffffffffffffffffffffffffff168152602001908152602001600020600081548092919061111690614872565b919050555060006017838154811061113157611130614814565b5b9060005260206000200160006101000a81548173ffffffffffffffffffffffffffffffffffffffff021916908373ffffffffffffffffffffffffffffffffffffffff1602179055505b6111848282612f4d565b91508061119090614872565b9050610f67565b5050565b7f000000000000000000000000000000000000000000000000000000000000000073ffffffffffffffffffffffffffffffffffffffff163373ffffffffffffffffffffffffffffffffffffffff1614611229576040517f08c379a000000000000000000000000000000000000000000000000000000000815260040161122090614907565b60405180910390fd5b6112338282613035565b5050565b3373ffffffffffffffffffffffffffffffffffffffff16600e60009054906101000a900473ffffffffffffffffffffffffffffffffffffffff1673ffffffffffffffffffffffffffffffffffffffff16146112c7576040517f08c379a00000000000000000000000000000000000000000000000000000000081526004016112be906147f4565b60405180910390fd5b60005b60198054905081101561136d576000601b6000601984815481106112f1576112f0614814565b5b9060005260206000200160009054906101000a900473ffffffffffffffffffffffffffffffffffffffff1673ffffffffffffffffffffffffffffffffffffffff1673ffffffffffffffffffffffffffffffffffffffff16815260200190815260200160002081905550808061136590614872565b9150506112ca565b5061137661306b565b61137e61310b565b565b600061138b826131b0565b90508373ffffffffffffffffffffffffffffffffffffffff168173ffffffffffffffffffffffffffffffffffffffff16146113f2576040517fa114810000000000000000000000000000000000000000000000000000000000815260040160405180910390fd5b6000806113fe8461327e565b91509150611414818761140f612f40565b6132a5565b6114605761142986611424612f40565b612d7b565b61145f576040517f59c896be00000000000000000000000000000000000000000000000000000000815260040160405180910390fd5b5b600073ffffffffffffffffffffffffffffffffffffffff168573ffffffffffffffffffffffffffffffffffffffff1614156114c7576040517fea553b3400000000000000000000000000000000000000000000000000000000815260040160405180910390fd5b6114d486868660016132e9565b80156114df57600082555b600560008773ffffffffffffffffffffffffffffffffffffffff1673ffffffffffffffffffffffffffffffffffffffff168152602001908152602001600020600081546001900391905081905550600560008673ffffffffffffffffffffffffffffffffffffffff1673ffffffffffffffffffffffffffffffffffffffff16815260200190815260200160002060008154600101919050819055506115ad856115898888876132ef565b7c020000000000000000000000000000000000000000000000000000000017613317565b600460008681526020019081526020016000208190555060007c020000000000000000000000000000000000000000000000000000000084161415611635576000600185019050600060046000838152602001908152602001600020541415611633576000548114611632578360046000838152602001908152602001600020819055505b5b505b838573ffffffffffffffffffffffffffffffffffffffff168773ffffffffffffffffffffffffffffffffffffffff167fddf252ad1be2c89b69c2b068fc378daa952ba7f163c4a11628f55a4df523b3ef60405160405180910390a461169d8686866001613342565b505050505050565b600281565b6116c583838360405180602001604052806000815250612aae565b505050565b3373ffffffffffffffffffffffffffffffffffffffff16600e60009054906101000a900473ffffffffffffffffffffffffffffffffffffffff1673ffffffffffffffffffffffffffffffffffffffff161461175a576040517f08c379a0000000000000000000000000000000000000000000000000000000008152600401611751906147f4565b60405180910390fd5b60005b6016805490508110156119bf576000601b60006016848154811061178457611783614814565b5b9060005260206000200160009054906101000a900473ffffffffffffffffffffffffffffffffffffffff1673ffffffffffffffffffffffffffffffffffffffff1673ffffffffffffffffffffffffffffffffffffffff16815260200190815260200160002054146118b9576118b46016828154811061180657611805614814565b5b9060005260206000200160009054906101000a900473ffffffffffffffffffffffffffffffffffffffff16601b60006016858154811061184957611848614814565b5b9060005260206000200160009054906101000a900473ffffffffffffffffffffffffffffffffffffffff1673ffffffffffffffffffffffffffffffffffffffff1673ffffffffffffffffffffffffffffffffffffffff16815260200190815260200160002054613348565b6119ac565b6000601682815481106118cf576118ce614814565b5b9060005260206000200160009054906101000a900473ffffffffffffffffffffffffffffffffffffffff1673ffffffffffffffffffffffffffffffffffffffff1666038d7ea4c6800060405161192490614958565b60006040518083038185875af1925050503d8060008114611961576040519150601f19603f3d011682016040523d82523d6000602084013e611966565b606091505b50509050806119aa576040517f08c379a00000000000000000000000000000000000000000000000000000000081526004016119a1906149b9565b60405180910390fd5b505b80806119b790614872565b91505061175d565b50565b60146020528060005260406000206000915090505481565b3373ffffffffffffffffffffffffffffffffffffffff16600e60009054906101000a900473ffffffffffffffffffffffffffffffffffffffff1673ffffffffffffffffffffffffffffffffffffffff1614611a6a576040517f08c379a0000000000000000000000000000000000000000000000000000000008152600401611a61906147f4565b60405180910390fd5b80600d9080519060200190611a80929190613d5a565b5050565b600e60009054906101000a900473ffffffffffffffffffffffffffffffffffffffff1681565b3373ffffffffffffffffffffffffffffffffffffffff16600e60009054906101000a900473ffffffffffffffffffffffffffffffffffffffff1673ffffffffffffffffffffffffffffffffffffffff1614611b3a576040517f08c379a0000000000000000000000000000000000000000000000000000000008152600401611b31906147f4565b60405180910390fd5b6000611b44612747565b90506000805b601a54811015611cbc57601960178481548110611b6a57611b69614814565b5b9060005260206000200160009054906101000a900473ffffffffffffffffffffffffffffffffffffffff169080600181540180825580915050600190039060005260206000200160009091909190916101000a81548173ffffffffffffffffffffffffffffffffffffffff021916908373ffffffffffffffffffffffffffffffffffffffff160217905550601b600060178581548110611c0d57611c0c614814565b5b9060005260206000200160009054906101000a900473ffffffffffffffffffffffffffffffffffffffff1673ffffffffffffffffffffffffffffffffffffffff1673ffffffffffffffffffffffffffffffffffffffff1681526020019081526020016000206000815480929190611c8390614872565b9190505550611c9183613505565b611c9b8383612f4d565b925081611ca790614872565b91508080611cb490614872565b915050611b4a565b505050565b3373ffffffffffffffffffffffffffffffffffffffff16600e60009054906101000a900473ffffffffffffffffffffffffffffffffffffffff1673ffffffffffffffffffffffffffffffffffffffff1614611d51576040517f08c379a0000000000000000000000000000000000000000000000000000000008152600401611d48906147f4565b60405180910390fd5b600e60149054906101000a900460ff1615611da1576040517f08c379a0000000000000000000000000000000000000000000000000000000008152600401611d9890614a25565b60405180910390fd5b6001600e60146101000a81548160ff02191690831515021790555042600f81905550600f546011547f389460ae1a631e45311498d24231a574ee6b54ab0d9bf3ffbefe7a317bf94c4960405160405180910390a3565b60606016805480602002602001604051908101604052809291908181526020018280548015611e7b57602002820191906000526020600020905b8160009054906101000a900473ffffffffffffffffffffffffffffffffffffffff1673ffffffffffffffffffffffffffffffffffffffff1681526020019060010190808311611e31575b5050505050905090565b6000611e90826131b0565b9050919050565b3373ffffffffffffffffffffffffffffffffffffffff16600e60009054906101000a900473ffffffffffffffffffffffffffffffffffffffff1673ffffffffffffffffffffffffffffffffffffffff1614611f27576040517f08c379a0000000000000000000000000000000000000000000000000000000008152600401611f1e906147f4565b60405180910390fd5b8060188190555050565b601a5481565b66038d7ea4c6800081565b60008073ffffffffffffffffffffffffffffffffffffffff168273ffffffffffffffffffffffffffffffffffffffff161415611faa576040517f8f4eb60400000000000000000000000000000000000000000000000000000000815260040160405180910390fd5b67ffffffffffffffff600560008473ffffffffffffffffffffffffffffffffffffffff1673ffffffffffffffffffffffffffffffffffffffff16815260200190815260200160002054169050919050565b600960009054906101000a900473ffffffffffffffffffffffffffffffffffffffff1673ffffffffffffffffffffffffffffffffffffffff163373ffffffffffffffffffffffffffffffffffffffff161461208b576040517f08c379a000000000000000000000000000000000000000000000000000000000815260040161208290614a91565b60405180910390fd5b6000600860009054906101000a900473ffffffffffffffffffffffffffffffffffffffff16905033600860006101000a81548173ffffffffffffffffffffffffffffffffffffffff021916908373ffffffffffffffffffffffffffffffffffffffff1602179055506000600960006101000a81548173ffffffffffffffffffffffffffffffffffffffff021916908373ffffffffffffffffffffffffffffffffffffffff1602179055503373ffffffffffffffffffffffffffffffffffffffff168173ffffffffffffffffffffffffffffffffffffffff167f8be0079c531659141344cd1fd0a4f28419497f9722a3daafe3b4186f6b6457e060405160405180910390a350565b600f5481565b600e60149054906101000a900460ff166121e7576040517f08c379a00000000000000000000000000000000000000000000000000000000081526004016121de90614afd565b60405180910390fd5b6121ef6136cb565b601154600f546121ff9190614b1d565b1061223f576040517f08c379a000000000000000000000000000000000000000000000000000000000815260040161223690614bbf565b60405180910390fd5b60008111612282576040517f08c379a000000000000000000000000000000000000000000000000000000000815260040161227990614c2b565b60405180910390fd5b6012548111156122c7576040517f08c379a00000000000000000000000000000000000000000000000000000000081526004016122be90614cbd565b60405180910390fd5b601354601460003373ffffffffffffffffffffffffffffffffffffffff1673ffffffffffffffffffffffffffffffffffffffff16815260200190815260200160002054826123159190614b1d565b1115612356576040517f08c379a000000000000000000000000000000000000000000000000000000000815260040161234d90614d4f565b60405180910390fd5b80601560008282546123689190614b1d565b9250508190555080601460003373ffffffffffffffffffffffffffffffffffffffff1673ffffffffffffffffffffffffffffffffffffffff16815260200190815260200160002060008282546123be9190614b1d565b9250508190555060005b81811015612444576016339080600181540180825580915050600190039060005260206000200160009091909190916101000a81548173ffffffffffffffffffffffffffffffffffffffff021916908373ffffffffffffffffffffffffffffffffffffffff1602179055508061243d90614872565b90506123c8565b50803373ffffffffffffffffffffffffffffffffffffffff167f88b4081bc2573b78164bf68e4df2ee32d3ad041325994feab80bd9f3a177211a60405160405180910390a350565b6016818154811061249c57600080fd5b906000526020600020016000915054906101000a900473ffffffffffffffffffffffffffffffffffffffff1681565b6000600860009054906101000a900473ffffffffffffffffffffffffffffffffffffffff16905090565b3373ffffffffffffffffffffffffffffffffffffffff16600e60009054906101000a900473ffffffffffffffffffffffffffffffffffffffff1673ffffffffffffffffffffffffffffffffffffffff1614612585576040517f08c379a000000000000000000000000000000000000000000000000000000000815260040161257c906147f4565b60405180910390fd5b6000600b60009054906101000a900473ffffffffffffffffffffffffffffffffffffffff1690508073ffffffffffffffffffffffffffffffffffffffff1663a9059cbb338373ffffffffffffffffffffffffffffffffffffffff166370a08231306040518263ffffffff1660e01b8152600401612602919061409e565b60206040518083038186803b15801561261a57600080fd5b505afa15801561262e573d6000803e3d6000fd5b505050506040513d601f19601f820116820180604052508101906126529190614d84565b6040518363ffffffff1660e01b815260040161266f929190614db1565b602060405180830381600087803b15801561268957600080fd5b505af115801561269d573d6000803e3d6000fd5b505050506040513d601f19601f820116820180604052508101906126c19190614def565b612700576040517f08c379a00000000000000000000000000000000000000000000000000000000081526004016126f790614e68565b60405180910390fd5b50565b600581565b6017818154811061271857600080fd5b906000526020600020016000915054906101000a900473ffffffffffffffffffffffffffffffffffffffff1681565b6000601854905090565b60606003805461276090614750565b80601f016020809104026020016040519081016040528092919081815260200182805461278c90614750565b80156127d95780601f106127ae576101008083540402835291602001916127d9565b820191906000526020600020905b8154815290600101906020018083116127bc57829003601f168201915b5050505050905090565b80600760006127f0612f40565b73ffffffffffffffffffffffffffffffffffffffff1673ffffffffffffffffffffffffffffffffffffffff16815260200190815260200160002060008473ffffffffffffffffffffffffffffffffffffffff1673ffffffffffffffffffffffffffffffffffffffff16815260200190815260200160002060006101000a81548160ff0219169083151502179055508173ffffffffffffffffffffffffffffffffffffffff1661289d612f40565b73ffffffffffffffffffffffffffffffffffffffff167f17307eab39ab6107e8899845ad3d59bd9653f200f220920489ca2b5937696c31836040516128e29190613f24565b60405180910390a35050565b601981815481106128fe57600080fd5b906000526020600020016000915054906101000a900473ffffffffffffffffffffffffffffffffffffffff1681565b3373ffffffffffffffffffffffffffffffffffffffff16600e60009054906101000a900473ffffffffffffffffffffffffffffffffffffffff1673ffffffffffffffffffffffffffffffffffffffff16146129bd576040517f08c379a00000000000000000000000000000000000000000000000000000000081526004016129b4906147f4565b60405180910390fd5b600e60149054906101000a900460ff16612a0c576040517f08c379a0000000000000000000000000000000000000000000000000000000008152600401612a0390614ed4565b60405180910390fd5b6000600e60146101000a81548160ff02191690831515021790555042601081905550612a366136cb565b601154600f54612a469190614b1d565b1015612a6757601154600f54612a5c9190614b1d565b601081905550612a6f565b426010819055505b601054612a7a6136cb565b7ff0fcbc0076696dba8c2b6bd5b039faa5f8a5743ef0b895335badfe8adcc928df60405160405180910390a3565b60105481565b612ab9848484611380565b60008373ffffffffffffffffffffffffffffffffffffffff163b14612b1b57612ae4848484846136f1565b612b1a576040517fd1a57ed600000000000000000000000000000000000000000000000000000000815260040160405180910390fd5b5b50505050565b6060612b2c82612ee1565b612b62576040517fa14c4b5000000000000000000000000000000000000000000000000000000000815260040160405180910390fd5b6000612b6c613851565b9050600081511415612b8d5760405180602001604052806000815250612bb8565b80612b97846138e3565b604051602001612ba8929190614f30565b6040516020818303038152906040525b915050919050565b60115481565b600060168281548110612bdc57612bdb614814565b5b9060005260206000200160009054906101000a900473ffffffffffffffffffffffffffffffffffffffff169050919050565b60606019805480602002602001604051908101604052809291908181526020018280548015612c9257602002820191906000526020600020905b8160009054906101000a900473ffffffffffffffffffffffffffffffffffffffff1673ffffffffffffffffffffffffffffffffffffffff1681526020019060010190808311612c48575b5050505050905090565b60003373ffffffffffffffffffffffffffffffffffffffff16600e60009054906101000a900473ffffffffffffffffffffffffffffffffffffffff1673ffffffffffffffffffffffffffffffffffffffff1614612d2e576040517f08c379a0000000000000000000000000000000000000000000000000000000008152600401612d25906147f4565b60405180910390fd5b612d6d600c60149054906101000a900463ffffffff16600c60189054906101000a900461ffff16600c601a9054906101000a900463ffffffff1661393c565b600a81905550600a54905090565b6000600760008473ffffffffffffffffffffffffffffffffffffffff1673ffffffffffffffffffffffffffffffffffffffff16815260200190815260200160002060008373ffffffffffffffffffffffffffffffffffffffff1673ffffffffffffffffffffffffffffffffffffffff16815260200190815260200160002060009054906101000a900460ff16905092915050565b60135481565b600e60149054906101000a900460ff1681565b612e30613b80565b612e3981613c12565b50565b600281565b3373ffffffffffffffffffffffffffffffffffffffff16600e60009054906101000a900473ffffffffffffffffffffffffffffffffffffffff1673ffffffffffffffffffffffffffffffffffffffff1614612ed1576040517f08c379a0000000000000000000000000000000000000000000000000000000008152600401612ec8906147f4565b60405180910390fd5b8060118190555050565b60125481565b600081612eec612f48565b11158015612efb575060005482105b8015612f39575060007c0100000000000000000000000000000000000000000000000000000000600460008581526020019081526020016000205416145b9050919050565b600033905090565b600090565b60003373ffffffffffffffffffffffffffffffffffffffff16600e60009054906101000a900473ffffffffffffffffffffffffffffffffffffffff1673ffffffffffffffffffffffffffffffffffffffff1614612fdf576040517f08c379a0000000000000000000000000000000000000000000000000000000008152600401612fd6906147f4565b60405180910390fd5b6000601780549050600185612ff49190614b1d565b84604051602001613006929190614f75565b6040516020818303038152906040528051906020012060001c6130299190614fd0565b90508091505092915050565b6016805490508160008151811061304f5761304e614814565b5b60200260200101516130619190614fd0565b6018819055505050565b3373ffffffffffffffffffffffffffffffffffffffff16600e60009054906101000a900473ffffffffffffffffffffffffffffffffffffffff1673ffffffffffffffffffffffffffffffffffffffff16146130fb576040517f08c379a00000000000000000000000000000000000000000000000000000000081526004016130f2906147f4565b60405180910390fd5b601960006131099190613de0565b565b3373ffffffffffffffffffffffffffffffffffffffff16600e60009054906101000a900473ffffffffffffffffffffffffffffffffffffffff1673ffffffffffffffffffffffffffffffffffffffff161461319b576040517f08c379a0000000000000000000000000000000000000000000000000000000008152600401613192906147f4565b60405180910390fd5b601660179080546131ad929190613e01565b50565b600080829050806131bf612f48565b11613247576000548110156132465760006004600083815260200190815260200160002054905060007c010000000000000000000000000000000000000000000000000000000082161415613244575b600081141561323a57600460008360019003935083815260200190815260200160002054905061320f565b8092505050613279565b505b5b6040517fdf2d9b4200000000000000000000000000000000000000000000000000000000815260040160405180910390fd5b919050565b60008060006006600085815260200190815260200160002090508092508254915050915091565b600073ffffffffffffffffffffffffffffffffffffffff8316925073ffffffffffffffffffffffffffffffffffffffff821691508382148383141790509392505050565b50505050565b60008060e883901c905060e8613306868684613d41565b62ffffff16901b9150509392505050565b600073ffffffffffffffffffffffffffffffffffffffff83169250814260a01b178317905092915050565b50505050565b6000805490506000821415613389576040517fb562e8dd00000000000000000000000000000000000000000000000000000000815260040160405180910390fd5b61339660008483856132e9565b600160406001901b178202600560008573ffffffffffffffffffffffffffffffffffffffff1673ffffffffffffffffffffffffffffffffffffffff1681526020019081526020016000206000828254019250508190555061340d836133fe60008660006132ef565b61340785613d4a565b17613317565b6004600083815260200190815260200160002081905550600080838301905073ffffffffffffffffffffffffffffffffffffffff85169150828260007fddf252ad1be2c89b69c2b068fc378daa952ba7f163c4a11628f55a4df523b3ef600080a4600183015b8181146134ae57808360007fddf252ad1be2c89b69c2b068fc378daa952ba7f163c4a11628f55a4df523b3ef600080a4600181019050613473565b5060008214156134ea576040517f2e07630000000000000000000000000000000000000000000000000000000000815260040160405180910390fd5b8060008190555050506135006000848385613342565b505050565b3373ffffffffffffffffffffffffffffffffffffffff16600e60009054906101000a900473ffffffffffffffffffffffffffffffffffffffff1673ffffffffffffffffffffffffffffffffffffffff1614613595576040517f08c379a000000000000000000000000000000000000000000000000000000000815260040161358c906147f4565b60405180910390fd5b60178054905081106135a6576136c8565b60008190505b60016017805490506135be9190615001565b81101561367f5760176001826135d49190614b1d565b815481106135e5576135e4614814565b5b9060005260206000200160009054906101000a900473ffffffffffffffffffffffffffffffffffffffff166017828154811061362457613623614814565b5b9060005260206000200160006101000a81548173ffffffffffffffffffffffffffffffffffffffff021916908373ffffffffffffffffffffffffffffffffffffffff160217905550808061367790614872565b9150506135ac565b50601780548061369257613691615035565b5b6001900381819060005260206000200160006101000a81549073ffffffffffffffffffffffffffffffffffffffff021916905590555b50565b600080600f54116136dd5760006136ec565b600f54426136eb9190615001565b5b905090565b60008373ffffffffffffffffffffffffffffffffffffffff1663150b7a02613717612f40565b8786866040518563ffffffff1660e01b815260040161373994939291906150b9565b602060405180830381600087803b15801561375357600080fd5b505af192505050801561378457506040513d601f19601f82011682018060405250810190613781919061511a565b60015b6137fe573d80600081146137b4576040519150601f19603f3d011682016040523d82523d6000602084013e6137b9565b606091505b506000815114156137f6576040517fd1a57ed600000000000000000000000000000000000000000000000000000000815260040160405180910390fd5b805181602001fd5b63150b7a0260e01b7bffffffffffffffffffffffffffffffffffffffffffffffffffffffff1916817bffffffffffffffffffffffffffffffffffffffffffffffffffffffff191614915050949350505050565b6060600d805461386090614750565b80601f016020809104026020016040519081016040528092919081815260200182805461388c90614750565b80156138d95780601f106138ae576101008083540402835291602001916138d9565b820191906000526020600020905b8154815290600101906020018083116138bc57829003601f168201915b5050505050905090565b606060a060405101806040526020810391506000825281835b60011561392757600184039350600a81066030018453600a810490508061392257613927565b6138fc565b50828103602084039350808452505050919050565b60007f000000000000000000000000000000000000000000000000000000000000000073ffffffffffffffffffffffffffffffffffffffff16634000aea07f00000000000000000000000000000000000000000000000000000000000000007f000000000000000000000000000000000000000000000000000000000000000073ffffffffffffffffffffffffffffffffffffffff16634306d354886040518263ffffffff1660e01b81526004016139f49190615166565b60206040518083038186803b158015613a0c57600080fd5b505afa158015613a20573d6000803e3d6000fd5b505050506040513d601f19601f82011682018060405250810190613a449190614d84565b878787604051602001613a599392919061519e565b6040516020818303038152906040526040518463ffffffff1660e01b8152600401613a86939291906151d5565b602060405180830381600087803b158015613aa057600080fd5b505af1158015613ab4573d6000803e3d6000fd5b505050506040513d601f19601f82011682018060405250810190613ad89190614def565b507f000000000000000000000000000000000000000000000000000000000000000073ffffffffffffffffffffffffffffffffffffffff1663fc2a88c36040518163ffffffff1660e01b815260040160206040518083038186803b158015613b3f57600080fd5b505afa158015613b53573d6000803e3d6000fd5b505050506040513d601f19601f82011682018060405250810190613b779190614d84565b90509392505050565b600860009054906101000a900473ffffffffffffffffffffffffffffffffffffffff1673ffffffffffffffffffffffffffffffffffffffff163373ffffffffffffffffffffffffffffffffffffffff1614613c10576040517f08c379a0000000000000000000000000000000000000000000000000000000008152600401613c079061525f565b60405180910390fd5b565b3373ffffffffffffffffffffffffffffffffffffffff168173ffffffffffffffffffffffffffffffffffffffff161415613c81576040517f08c379a0000000000000000000000000000000000000000000000000000000008152600401613c78906152cb565b60405180910390fd5b80600960006101000a81548173ffffffffffffffffffffffffffffffffffffffff021916908373ffffffffffffffffffffffffffffffffffffffff1602179055508073ffffffffffffffffffffffffffffffffffffffff16600860009054906101000a900473ffffffffffffffffffffffffffffffffffffffff1673ffffffffffffffffffffffffffffffffffffffff167fed8889f560326eb138920d842192f0eb3dd22b4f139c87a2c57538e05bae127860405160405180910390a350565b60009392505050565b60006001821460e11b9050919050565b828054613d6690614750565b90600052602060002090601f016020900481019282613d885760008555613dcf565b82601f10613da157805160ff1916838001178555613dcf565b82800160010185558215613dcf579182015b82811115613dce578251825591602001919060010190613db3565b5b509050613ddc9190613e53565b5090565b5080546000825590600052602060002090810190613dfe9190613e53565b50565b828054828255906000526020600020908101928215613e425760005260206000209182015b82811115613e41578254825591600101919060010190613e26565b5b509050613e4f9190613e53565b5090565b5b80821115613e6c576000816000905550600101613e54565b5090565b6000604051905090565b600080fd5b600080fd5b60007fffffffff0000000000000000000000000000000000000000000000000000000082169050919050565b613eb981613e84565b8114613ec457600080fd5b50565b600081359050613ed681613eb0565b92915050565b600060208284031215613ef257613ef1613e7a565b5b6000613f0084828501613ec7565b91505092915050565b60008115159050919050565b613f1e81613f09565b82525050565b6000602082019050613f396000830184613f15565b92915050565b600081519050919050565b600082825260208201905092915050565b60005b83811015613f79578082015181840152602081019050613f5e565b83811115613f88576000848401525b50505050565b6000601f19601f8301169050919050565b6000613faa82613f3f565b613fb48185613f4a565b9350613fc4818560208601613f5b565b613fcd81613f8e565b840191505092915050565b60006020820190508181036000830152613ff28184613f9f565b905092915050565b6000819050919050565b61400d81613ffa565b811461401857600080fd5b50565b60008135905061402a81614004565b92915050565b60006020828403121561404657614045613e7a565b5b60006140548482850161401b565b91505092915050565b600073ffffffffffffffffffffffffffffffffffffffff82169050919050565b60006140888261405d565b9050919050565b6140988161407d565b82525050565b60006020820190506140b3600083018461408f565b92915050565b6140c28161407d565b81146140cd57600080fd5b50565b6000813590506140df816140b9565b92915050565b6000602082840312156140fb576140fa613e7a565b5b6000614109848285016140d0565b91505092915050565b61411b81613ffa565b82525050565b60006020820190506141366000830184614112565b92915050565b6000806040838503121561415357614152613e7a565b5b6000614161858286016140d0565b92505060206141728582860161401b565b9150509250929050565b600080fd5b7f4e487b7100000000000000000000000000000000000000000000000000000000600052604160045260246000fd5b6141b982613f8e565b810181811067ffffffffffffffff821117156141d8576141d7614181565b5b80604052505050565b60006141eb613e70565b90506141f782826141b0565b919050565b600067ffffffffffffffff82111561421757614216614181565b5b602082029050602081019050919050565b600080fd5b600061424061423b846141fc565b6141e1565b9050808382526020820190506020840283018581111561426357614262614228565b5b835b8181101561428c5780614278888261401b565b845260208401935050602081019050614265565b5050509392505050565b600082601f8301126142ab576142aa61417c565b5b81356142bb84826020860161422d565b91505092915050565b600080604083850312156142db576142da613e7a565b5b60006142e98582860161401b565b925050602083013567ffffffffffffffff81111561430a57614309613e7f565b5b61431685828601614296565b9150509250929050565b60008060006060848603121561433957614338613e7a565b5b6000614347868287016140d0565b9350506020614358868287016140d0565b92505060406143698682870161401b565b9150509250925092565b600080fd5b600067ffffffffffffffff82111561439357614392614181565b5b61439c82613f8e565b9050602081019050919050565b82818337600083830152505050565b60006143cb6143c684614378565b6141e1565b9050828152602081018484840111156143e7576143e6614373565b5b6143f28482856143a9565b509392505050565b600082601f83011261440f5761440e61417c565b5b813561441f8482602086016143b8565b91505092915050565b60006020828403121561443e5761443d613e7a565b5b600082013567ffffffffffffffff81111561445c5761445b613e7f565b5b614468848285016143fa565b91505092915050565b600081519050919050565b600082825260208201905092915050565b6000819050602082019050919050565b6144a68161407d565b82525050565b60006144b8838361449d565b60208301905092915050565b6000602082019050919050565b60006144dc82614471565b6144e6818561447c565b93506144f18361448d565b8060005b8381101561452257815161450988826144ac565b9750614514836144c4565b9250506001810190506144f5565b5085935050505092915050565b6000602082019050818103600083015261454981846144d1565b905092915050565b61455a81613f09565b811461456557600080fd5b50565b60008135905061457781614551565b92915050565b6000806040838503121561459457614593613e7a565b5b60006145a2858286016140d0565b92505060206145b385828601614568565b9150509250929050565b600067ffffffffffffffff8211156145d8576145d7614181565b5b6145e182613f8e565b9050602081019050919050565b60006146016145fc846145bd565b6141e1565b90508281526020810184848401111561461d5761461c614373565b5b6146288482856143a9565b509392505050565b600082601f8301126146455761464461417c565b5b81356146558482602086016145ee565b91505092915050565b6000806000806080858703121561467857614677613e7a565b5b6000614686878288016140d0565b9450506020614697878288016140d0565b93505060406146a88782880161401b565b925050606085013567ffffffffffffffff8111156146c9576146c8613e7f565b5b6146d587828801614630565b91505092959194509250565b600080604083850312156146f8576146f7613e7a565b5b6000614706858286016140d0565b9250506020614717858286016140d0565b9150509250929050565b7f4e487b7100000000000000000000000000000000000000000000000000000000600052602260045260246000fd5b6000600282049050600182168061476857607f821691505b6020821081141561477c5761477b614721565b5b50919050565b7f4f6e6c79206f70657261746f722063616e2063616c6c2074686973206d65746860008201527f6f64000000000000000000000000000000000000000000000000000000000000602082015250565b60006147de602283613f4a565b91506147e982614782565b604082019050919050565b6000602082019050818103600083015261480d816147d1565b9050919050565b7f4e487b7100000000000000000000000000000000000000000000000000000000600052603260045260246000fd5b7f4e487b7100000000000000000000000000000000000000000000000000000000600052601160045260246000fd5b600061487d82613ffa565b91507fffffffffffffffffffffffffffffffffffffffffffffffffffffffffffffffff8214156148b0576148af614843565b5b600182019050919050565b7f6f6e6c792056524620563220777261707065722063616e2066756c66696c6c00600082015250565b60006148f1601f83613f4a565b91506148fc826148bb565b602082019050919050565b60006020820190508181036000830152614920816148e4565b9050919050565b600081905092915050565b50565b6000614942600083614927565b915061494d82614932565b600082019050919050565b600061496382614935565b9150819050919050565b7f4661696c656420746f207472616e736665722045544800000000000000000000600082015250565b60006149a3601683613f4a565b91506149ae8261496d565b602082019050919050565b600060208201905081810360008301526149d281614996565b9050919050565b7f4c61756e636820616c7265616479207374617274656400000000000000000000600082015250565b6000614a0f601683613f4a565b9150614a1a826149d9565b602082019050919050565b60006020820190508181036000830152614a3e81614a02565b9050919050565b7f4d7573742062652070726f706f736564206f776e657200000000000000000000600082015250565b6000614a7b601683613f4a565b9150614a8682614a45565b602082019050919050565b60006020820190508181036000830152614aaa81614a6e565b9050919050565b7f4c61756368206973206e6f742079657420737461727465640000000000000000600082015250565b6000614ae7601883613f4a565b9150614af282614ab1565b602082019050919050565b60006020820190508181036000830152614b1681614ada565b9050919050565b6000614b2882613ffa565b9150614b3383613ffa565b9250827fffffffffffffffffffffffffffffffffffffffffffffffffffffffffffffffff03821115614b6857614b67614843565b5b828201905092915050565b7f4c61756e63682077617320636c6f736564000000000000000000000000000000600082015250565b6000614ba9601183613f4a565b9150614bb482614b73565b602082019050919050565b60006020820190508181036000830152614bd881614b9c565b9050919050565b7f536574206174206c65617374206f6e6500000000000000000000000000000000600082015250565b6000614c15601083613f4a565b9150614c2082614bdf565b602082019050919050565b60006020820190508181036000830152614c4481614c08565b9050919050565b7f5469636b65747320696e2061207472616e73616374696f6e2073686f756c642060008201527f6e6f7420657863656564204d41585f5045525f54580000000000000000000000602082015250565b6000614ca7603583613f4a565b9150614cb282614c4b565b604082019050919050565b60006020820190508181036000830152614cd681614c9a565b9050919050565b7f416e20616464726573732063616e6e6f7420627579204e465420726166666c6560008201527f207469636b657473206d6f7265207468616e204d41585f5045525f4144445200602082015250565b6000614d39603f83613f4a565b9150614d4482614cdd565b604082019050919050565b60006020820190508181036000830152614d6881614d2c565b9050919050565b600081519050614d7e81614004565b92915050565b600060208284031215614d9a57614d99613e7a565b5b6000614da884828501614d6f565b91505092915050565b6000604082019050614dc6600083018561408f565b614dd36020830184614112565b9392505050565b600081519050614de981614551565b92915050565b600060208284031215614e0557614e04613e7a565b5b6000614e1384828501614dda565b91505092915050565b7f556e61626c6520746f207472616e736665720000000000000000000000000000600082015250565b6000614e52601283613f4a565b9150614e5d82614e1c565b602082019050919050565b60006020820190508181036000830152614e8181614e45565b9050919050565b7f4c61756e6368206973206e6f7420796574207374617274656400000000000000600082015250565b6000614ebe601983613f4a565b9150614ec982614e88565b602082019050919050565b60006020820190508181036000830152614eed81614eb1565b9050919050565b600081905092915050565b6000614f0a82613f3f565b614f148185614ef4565b9350614f24818560208601613f5b565b80840191505092915050565b6000614f3c8285614eff565b9150614f488284614eff565b91508190509392505050565b6000819050919050565b614f6f614f6a82613ffa565b614f54565b82525050565b6000614f818285614f5e565b602082019150614f918284614f5e565b6020820191508190509392505050565b7f4e487b7100000000000000000000000000000000000000000000000000000000600052601260045260246000fd5b6000614fdb82613ffa565b9150614fe683613ffa565b925082614ff657614ff5614fa1565b5b828206905092915050565b600061500c82613ffa565b915061501783613ffa565b92508282101561502a57615029614843565b5b828203905092915050565b7f4e487b7100000000000000000000000000000000000000000000000000000000600052603160045260246000fd5b600081519050919050565b600082825260208201905092915050565b600061508b82615064565b615095818561506f565b93506150a5818560208601613f5b565b6150ae81613f8e565b840191505092915050565b60006080820190506150ce600083018761408f565b6150db602083018661408f565b6150e86040830185614112565b81810360608301526150fa8184615080565b905095945050505050565b60008151905061511481613eb0565b92915050565b6000602082840312156151305761512f613e7a565b5b600061513e84828501615105565b91505092915050565b600063ffffffff82169050919050565b61516081615147565b82525050565b600060208201905061517b6000830184615157565b92915050565b600061ffff82169050919050565b61519881615181565b82525050565b60006060820190506151b36000830186615157565b6151c0602083018561518f565b6151cd6040830184615157565b949350505050565b60006060820190506151ea600083018661408f565b6151f76020830185614112565b81810360408301526152098184615080565b9050949350505050565b7f4f6e6c792063616c6c61626c65206279206f776e657200000000000000000000600082015250565b6000615249601683613f4a565b915061525482615213565b602082019050919050565b600060208201905081810360008301526152788161523c565b9050919050565b7f43616e6e6f74207472616e7366657220746f2073656c66000000000000000000600082015250565b60006152b5601783613f4a565b91506152c08261527f565b602082019050919050565b600060208201905081810360008301526152e4816152a8565b905091905056fea264697066735822122059e3b15a0b9a870bf2770f97b79a95c82e0fd52e48db7d40fe22f79d036e635d64736f6c63430008090033",
  "linkReferences": {},
  "deployedLinkReferences": {}
}