{
  "_format": "hh-sol-artifact-1",
  "contractName": "VRFTest",
  "sourceName": "contracts/VRFTest.sol",
  "abi": [
    {
      "inputs": [],
      "stateMutability": "nonpayable",
      "type": "constructor"
    },
    {
      "anonymous": false,
      "inputs": [
        {
          "indexed": true,
          "internalType": "address",
          "name": "from",
          "type": "address"
        },
        {
          "indexed": true,
          "internalType": "address",
          "name": "to",
          "type": "address"
        }
      ],
      "name": "OwnershipTransferRequested",
      "type": "event"
    },
    {
      "anonymous": false,
      "inputs": [
        {
          "indexed": true,
          "internalType": "address",
          "name": "from",
          "type": "address"
        },
        {
          "indexed": true,
          "internalType": "address",
          "name": "to",
          "type": "address"
        }
      ],
      "name": "OwnershipTransferred",
      "type": "event"
    },
    {
      "anonymous": false,
      "inputs": [
        {
          "indexed": false,
          "internalType": "uint256",
          "name": "requestId",
          "type": "uint256"
        },
        {
          "indexed": false,
          "internalType": "uint256[]",
          "name": "randomWords",
          "type": "uint256[]"
        },
        {
          "indexed": false,
          "internalType": "uint256",
          "name": "payment",
          "type": "uint256"
        }
      ],
      "name": "RequestFulfilled",
      "type": "event"
    },
    {
      "anonymous": false,
      "inputs": [
        {
          "indexed": false,
          "internalType": "uint256",
          "name": "requestId",
          "type": "uint256"
        },
        {
          "indexed": false,
          "internalType": "uint32",
          "name": "numWords",
          "type": "uint32"
        }
      ],
      "name": "RequestSent",
      "type": "event"
    },
    {
      "inputs": [],
      "name": "acceptOwnership",
      "outputs": [],
      "stateMutability": "nonpayable",
      "type": "function"
    },
    {
      "inputs": [
        {
          "internalType": "uint256",
          "name": "_requestId",
          "type": "uint256"
        }
      ],
      "name": "getRequestStatus",
      "outputs": [
        {
          "internalType": "uint256",
          "name": "paid",
          "type": "uint256"
        },
        {
          "internalType": "bool",
          "name": "fulfilled",
          "type": "bool"
        },
        {
          "internalType": "uint256[]",
          "name": "randomWords",
          "type": "uint256[]"
        }
      ],
      "stateMutability": "view",
      "type": "function"
    },
    {
      "inputs": [],
      "name": "lastRequestId",
      "outputs": [
        {
          "internalType": "uint256",
          "name": "",
          "type": "uint256"
        }
      ],
      "stateMutability": "view",
      "type": "function"
    },
    {
      "inputs": [],
      "name": "owner",
      "outputs": [
        {
          "internalType": "address",
          "name": "",
          "type": "address"
        }
      ],
      "stateMutability": "view",
      "type": "function"
    },
    {
      "inputs": [
        {
          "internalType": "uint256",
          "name": "_requestId",
          "type": "uint256"
        },
        {
          "internalType": "uint256[]",
          "name": "_randomWords",
          "type": "uint256[]"
        }
      ],
      "name": "rawFulfillRandomWords",
      "outputs": [],
      "stateMutability": "nonpayable",
      "type": "function"
    },
    {
      "inputs": [
        {
          "internalType": "uint256",
          "name": "",
          "type": "uint256"
        }
      ],
      "name": "requestIds",
      "outputs": [
        {
          "internalType": "uint256",
          "name": "",
          "type": "uint256"
        }
      ],
      "stateMutability": "view",
      "type": "function"
    },
    {
      "inputs": [],
      "name": "requestRandomWords",
      "outputs": [
        {
          "internalType": "uint256",
          "name": "requestId",
          "type": "uint256"
        }
      ],
      "stateMutability": "nonpayable",
      "type": "function"
    },
    {
      "inputs": [
        {
          "internalType": "uint256",
          "name": "",
          "type": "uint256"
        }
      ],
      "name": "s_requests",
      "outputs": [
        {
          "internalType": "uint256",
          "name": "paid",
          "type": "uint256"
        },
        {
          "internalType": "bool",
          "name": "fulfilled",
          "type": "bool"
        }
      ],
      "stateMutability": "view",
      "type": "function"
    },
    {
      "inputs": [
        {
          "internalType": "address",
          "name": "to",
          "type": "address"
        }
      ],
      "name": "transferOwnership",
      "outputs": [],
      "stateMutability": "nonpayable",
      "type": "function"
    },
    {
      "inputs": [],
      "name": "withdrawLink",
      "outputs": [],
      "stateMutability": "nonpayable",
      "type": "function"
    }
  ],
  "bytecode": "0x60c0604052620186a0600560006101000a81548163ffffffff021916908363ffffffff1602179055506003600560046101000a81548161ffff021916908361ffff1602179055506001600560066101000a81548163ffffffff021916908363ffffffff16021790555073326c977e6efc84e512bb9c30f76e30c160ed06fb6005600a6101000a81548173ffffffffffffffffffffffffffffffffffffffff021916908373ffffffffffffffffffffffffffffffffffffffff16021790555073708701a1dff4f478de54383e49a627ed4852c816600660006101000a81548173ffffffffffffffffffffffffffffffffffffffff021916908373ffffffffffffffffffffffffffffffffffffffff1602179055503480156200011f57600080fd5b50338060006005600a9054906101000a900473ffffffffffffffffffffffffffffffffffffffff16600660009054906101000a900473ffffffffffffffffffffffffffffffffffffffff168173ffffffffffffffffffffffffffffffffffffffff1660808173ffffffffffffffffffffffffffffffffffffffff16815250508073ffffffffffffffffffffffffffffffffffffffff1660a08173ffffffffffffffffffffffffffffffffffffffff16815250505050600073ffffffffffffffffffffffffffffffffffffffff168273ffffffffffffffffffffffffffffffffffffffff16141562000247576040517f08c379a00000000000000000000000000000000000000000000000000000000081526004016200023e9062000468565b60405180910390fd5b816000806101000a81548173ffffffffffffffffffffffffffffffffffffffff021916908373ffffffffffffffffffffffffffffffffffffffff160217905550600073ffffffffffffffffffffffffffffffffffffffff168173ffffffffffffffffffffffffffffffffffffffff1614620002ce57620002cd81620002d760201b60201c565b5b505050620004fc565b3373ffffffffffffffffffffffffffffffffffffffff168173ffffffffffffffffffffffffffffffffffffffff16141562000349576040517f08c379a00000000000000000000000000000000000000000000000000000000081526004016200034090620004da565b60405180910390fd5b80600160006101000a81548173ffffffffffffffffffffffffffffffffffffffff021916908373ffffffffffffffffffffffffffffffffffffffff1602179055508073ffffffffffffffffffffffffffffffffffffffff1660008054906101000a900473ffffffffffffffffffffffffffffffffffffffff1673ffffffffffffffffffffffffffffffffffffffff167fed8889f560326eb138920d842192f0eb3dd22b4f139c87a2c57538e05bae127860405160405180910390a350565b600082825260208201905092915050565b7f43616e6e6f7420736574206f776e657220746f207a65726f0000000000000000600082015250565b60006200045060188362000407565b91506200045d8262000418565b602082019050919050565b60006020820190508181036000830152620004838162000441565b9050919050565b7f43616e6e6f74207472616e7366657220746f2073656c66000000000000000000600082015250565b6000620004c260178362000407565b9150620004cf826200048a565b602082019050919050565b60006020820190508181036000830152620004f581620004b3565b9050919050565b60805160a0516118986200053e600039600081816101de0152818161078301528181610b6401528181610b850152610cc301526000610b2801526118986000f3fe608060405234801561001057600080fd5b506004361061009e5760003560e01c8063a168fa8911610066578063a168fa8914610121578063d8a4676f14610152578063e0c8628914610184578063f2fde38b146101a2578063fc2a88c3146101be5761009e565b80631fe543e3146100a357806379ba5097146100bf5780638796ba8c146100c95780638da5cb5b146100f95780638dc654a214610117575b600080fd5b6100bd60048036038101906100b891906110a2565b6101dc565b005b6100c7610278565b005b6100e360048036038101906100de91906110fe565b61040d565b6040516100f0919061113a565b60405180910390f35b610101610431565b60405161010e9190611196565b60405180910390f35b61011f61045a565b005b61013b600480360381019061013691906110fe565b6105e0565b6040516101499291906111cc565b60405180910390f35b61016c600480360381019061016791906110fe565b610611565b60405161017b939291906112b3565b60405180910390f35b61018c61072b565b604051610199919061113a565b60405180910390f35b6101bc60048036038101906101b7919061131d565b610972565b005b6101c6610986565b6040516101d3919061113a565b60405180910390f35b7f000000000000000000000000000000000000000000000000000000000000000073ffffffffffffffffffffffffffffffffffffffff163373ffffffffffffffffffffffffffffffffffffffff161461026a576040517f08c379a0000000000000000000000000000000000000000000000000000000008152600401610261906113a7565b60405180910390fd5b610274828261098c565b5050565b600160009054906101000a900473ffffffffffffffffffffffffffffffffffffffff1673ffffffffffffffffffffffffffffffffffffffff163373ffffffffffffffffffffffffffffffffffffffff1614610308576040517f08c379a00000000000000000000000000000000000000000000000000000000081526004016102ff90611413565b60405180910390fd5b60008060009054906101000a900473ffffffffffffffffffffffffffffffffffffffff169050336000806101000a81548173ffffffffffffffffffffffffffffffffffffffff021916908373ffffffffffffffffffffffffffffffffffffffff1602179055506000600160006101000a81548173ffffffffffffffffffffffffffffffffffffffff021916908373ffffffffffffffffffffffffffffffffffffffff1602179055503373ffffffffffffffffffffffffffffffffffffffff168173ffffffffffffffffffffffffffffffffffffffff167f8be0079c531659141344cd1fd0a4f28419497f9722a3daafe3b4186f6b6457e060405160405180910390a350565b6003818154811061041d57600080fd5b906000526020600020016000915090505481565b60008060009054906101000a900473ffffffffffffffffffffffffffffffffffffffff16905090565b610462610a94565b60006005600a9054906101000a900473ffffffffffffffffffffffffffffffffffffffff1690508073ffffffffffffffffffffffffffffffffffffffff1663a9059cbb338373ffffffffffffffffffffffffffffffffffffffff166370a08231306040518263ffffffff1660e01b81526004016104df9190611196565b60206040518083038186803b1580156104f757600080fd5b505afa15801561050b573d6000803e3d6000fd5b505050506040513d601f19601f8201168201806040525081019061052f9190611448565b6040518363ffffffff1660e01b815260040161054c929190611475565b602060405180830381600087803b15801561056657600080fd5b505af115801561057a573d6000803e3d6000fd5b505050506040513d601f19601f8201168201806040525081019061059e91906114ca565b6105dd576040517f08c379a00000000000000000000000000000000000000000000000000000000081526004016105d490611543565b60405180910390fd5b50565b60026020528060005260406000206000915090508060000154908060010160009054906101000a900460ff16905082565b6000806060600060026000868152602001908152602001600020600001541161066f576040517f08c379a0000000000000000000000000000000000000000000000000000000008152600401610666906115af565b60405180910390fd5b600060026000868152602001908152602001600020604051806060016040529081600082015481526020016001820160009054906101000a900460ff161515151581526020016002820180548060200260200160405190810160405280929190818152602001828054801561070357602002820191906000526020600020905b8154815260200190600101908083116106ef575b5050505050815250509050806000015181602001518260400151935093509350509193909250565b6000610735610a94565b610774600560009054906101000a900463ffffffff16600560049054906101000a900461ffff16600560069054906101000a900463ffffffff16610b24565b905060405180606001604052807f000000000000000000000000000000000000000000000000000000000000000073ffffffffffffffffffffffffffffffffffffffff16634306d354600560009054906101000a900463ffffffff166040518263ffffffff1660e01b81526004016107ec91906115ee565b60206040518083038186803b15801561080457600080fd5b505afa158015610818573d6000803e3d6000fd5b505050506040513d601f19601f8201168201806040525081019061083c9190611448565b8152602001600015158152602001600067ffffffffffffffff81111561086557610864610f5f565b5b6040519080825280602002602001820160405280156108935781602001602082028036833780820191505090505b50815250600260008381526020019081526020016000206000820151816000015560208201518160010160006101000a81548160ff02191690831515021790555060408201518160020190805190602001906108f0929190610e95565b509050506003819080600181540180825580915050600190039060005260206000200160009091909190915055806004819055507fcc58b13ad3eab50626c6a6300b1d139cd6ebb1688a7cced9461c2f7e762665ee81600560069054906101000a900463ffffffff16604051610967929190611609565b60405180910390a190565b61097a610a94565b61098381610d68565b50565b60045481565b60006002600084815260200190815260200160002060000154116109e5576040517f08c379a00000000000000000000000000000000000000000000000000000000081526004016109dc906115af565b60405180910390fd5b60016002600084815260200190815260200160002060010160006101000a81548160ff02191690831515021790555080600260008481526020019081526020016000206002019080519060200190610a3e929190610e95565b507f147eb1ff0c82f87f2b03e2c43f5a36488ff63ec6b730195fde4605f612f8db5182826002600086815260200190815260200160002060000154604051610a8893929190611632565b60405180910390a15050565b60008054906101000a900473ffffffffffffffffffffffffffffffffffffffff1673ffffffffffffffffffffffffffffffffffffffff163373ffffffffffffffffffffffffffffffffffffffff1614610b22576040517f08c379a0000000000000000000000000000000000000000000000000000000008152600401610b19906116bc565b60405180910390fd5b565b60007f000000000000000000000000000000000000000000000000000000000000000073ffffffffffffffffffffffffffffffffffffffff16634000aea07f00000000000000000000000000000000000000000000000000000000000000007f000000000000000000000000000000000000000000000000000000000000000073ffffffffffffffffffffffffffffffffffffffff16634306d354886040518263ffffffff1660e01b8152600401610bdc91906115ee565b60206040518083038186803b158015610bf457600080fd5b505afa158015610c08573d6000803e3d6000fd5b505050506040513d601f19601f82011682018060405250810190610c2c9190611448565b878787604051602001610c41939291906116f9565b6040516020818303038152906040526040518463ffffffff1660e01b8152600401610c6e939291906117b8565b602060405180830381600087803b158015610c8857600080fd5b505af1158015610c9c573d6000803e3d6000fd5b505050506040513d601f19601f82011682018060405250810190610cc091906114ca565b507f000000000000000000000000000000000000000000000000000000000000000073ffffffffffffffffffffffffffffffffffffffff1663fc2a88c36040518163ffffffff1660e01b815260040160206040518083038186803b158015610d2757600080fd5b505afa158015610d3b573d6000803e3d6000fd5b505050506040513d601f19601f82011682018060405250810190610d5f9190611448565b90509392505050565b3373ffffffffffffffffffffffffffffffffffffffff168173ffffffffffffffffffffffffffffffffffffffff161415610dd7576040517f08c379a0000000000000000000000000000000000000000000000000000000008152600401610dce90611842565b60405180910390fd5b80600160006101000a81548173ffffffffffffffffffffffffffffffffffffffff021916908373ffffffffffffffffffffffffffffffffffffffff1602179055508073ffffffffffffffffffffffffffffffffffffffff1660008054906101000a900473ffffffffffffffffffffffffffffffffffffffff1673ffffffffffffffffffffffffffffffffffffffff167fed8889f560326eb138920d842192f0eb3dd22b4f139c87a2c57538e05bae127860405160405180910390a350565b828054828255906000526020600020908101928215610ed1579160200282015b82811115610ed0578251825591602001919060010190610eb5565b5b509050610ede9190610ee2565b5090565b5b80821115610efb576000816000905550600101610ee3565b5090565b6000604051905090565b600080fd5b600080fd5b6000819050919050565b610f2681610f13565b8114610f3157600080fd5b50565b600081359050610f4381610f1d565b92915050565b600080fd5b6000601f19601f8301169050919050565b7f4e487b7100000000000000000000000000000000000000000000000000000000600052604160045260246000fd5b610f9782610f4e565b810181811067ffffffffffffffff82111715610fb657610fb5610f5f565b5b80604052505050565b6000610fc9610eff565b9050610fd58282610f8e565b919050565b600067ffffffffffffffff821115610ff557610ff4610f5f565b5b602082029050602081019050919050565b600080fd5b600061101e61101984610fda565b610fbf565b9050808382526020820190506020840283018581111561104157611040611006565b5b835b8181101561106a57806110568882610f34565b845260208401935050602081019050611043565b5050509392505050565b600082601f83011261108957611088610f49565b5b813561109984826020860161100b565b91505092915050565b600080604083850312156110b9576110b8610f09565b5b60006110c785828601610f34565b925050602083013567ffffffffffffffff8111156110e8576110e7610f0e565b5b6110f485828601611074565b9150509250929050565b60006020828403121561111457611113610f09565b5b600061112284828501610f34565b91505092915050565b61113481610f13565b82525050565b600060208201905061114f600083018461112b565b92915050565b600073ffffffffffffffffffffffffffffffffffffffff82169050919050565b600061118082611155565b9050919050565b61119081611175565b82525050565b60006020820190506111ab6000830184611187565b92915050565b60008115159050919050565b6111c6816111b1565b82525050565b60006040820190506111e1600083018561112b565b6111ee60208301846111bd565b9392505050565b600081519050919050565b600082825260208201905092915050565b6000819050602082019050919050565b61122a81610f13565b82525050565b600061123c8383611221565b60208301905092915050565b6000602082019050919050565b6000611260826111f5565b61126a8185611200565b935061127583611211565b8060005b838110156112a657815161128d8882611230565b975061129883611248565b925050600181019050611279565b5085935050505092915050565b60006060820190506112c8600083018661112b565b6112d560208301856111bd565b81810360408301526112e78184611255565b9050949350505050565b6112fa81611175565b811461130557600080fd5b50565b600081359050611317816112f1565b92915050565b60006020828403121561133357611332610f09565b5b600061134184828501611308565b91505092915050565b600082825260208201905092915050565b7f6f6e6c792056524620563220777261707065722063616e2066756c66696c6c00600082015250565b6000611391601f8361134a565b915061139c8261135b565b602082019050919050565b600060208201905081810360008301526113c081611384565b9050919050565b7f4d7573742062652070726f706f736564206f776e657200000000000000000000600082015250565b60006113fd60168361134a565b9150611408826113c7565b602082019050919050565b6000602082019050818103600083015261142c816113f0565b9050919050565b60008151905061144281610f1d565b92915050565b60006020828403121561145e5761145d610f09565b5b600061146c84828501611433565b91505092915050565b600060408201905061148a6000830185611187565b611497602083018461112b565b9392505050565b6114a7816111b1565b81146114b257600080fd5b50565b6000815190506114c48161149e565b92915050565b6000602082840312156114e0576114df610f09565b5b60006114ee848285016114b5565b91505092915050565b7f556e61626c6520746f207472616e736665720000000000000000000000000000600082015250565b600061152d60128361134a565b9150611538826114f7565b602082019050919050565b6000602082019050818103600083015261155c81611520565b9050919050565b7f72657175657374206e6f7420666f756e64000000000000000000000000000000600082015250565b600061159960118361134a565b91506115a482611563565b602082019050919050565b600060208201905081810360008301526115c88161158c565b9050919050565b600063ffffffff82169050919050565b6115e8816115cf565b82525050565b600060208201905061160360008301846115df565b92915050565b600060408201905061161e600083018561112b565b61162b60208301846115df565b9392505050565b6000606082019050611647600083018661112b565b81810360208301526116598185611255565b9050611668604083018461112b565b949350505050565b7f4f6e6c792063616c6c61626c65206279206f776e657200000000000000000000600082015250565b60006116a660168361134a565b91506116b182611670565b602082019050919050565b600060208201905081810360008301526116d581611699565b9050919050565b600061ffff82169050919050565b6116f3816116dc565b82525050565b600060608201905061170e60008301866115df565b61171b60208301856116ea565b61172860408301846115df565b949350505050565b600081519050919050565b600082825260208201905092915050565b60005b8381101561176a57808201518184015260208101905061174f565b83811115611779576000848401525b50505050565b600061178a82611730565b611794818561173b565b93506117a481856020860161174c565b6117ad81610f4e565b840191505092915050565b60006060820190506117cd6000830186611187565b6117da602083018561112b565b81810360408301526117ec818461177f565b9050949350505050565b7f43616e6e6f74207472616e7366657220746f2073656c66000000000000000000600082015250565b600061182c60178361134a565b9150611837826117f6565b602082019050919050565b6000602082019050818103600083015261185b8161181f565b905091905056fea26469706673582212205e004f147379092081e4f386ace5a2e7094aa78954df9963414e264f85ff008b64736f6c63430008090033",
  "linkReferences": {},
  "deployedLinkReferences": {}
}